{
	"contracts/RockPaperScissors.sol": {
		"RockPaperScissors": {
			"abi": [
				{
					"inputs": [],
					"stateMutability": "nonpayable",
					"type": "constructor"
				},
				{
					"anonymous": false,
					"inputs": [
						{
							"indexed": false,
							"internalType": "address",
							"name": "_player",
							"type": "address"
						},
						{
							"indexed": false,
							"internalType": "bytes32",
							"name": "_hashedChoice",
							"type": "bytes32"
						}
					],
					"name": "commit",
					"type": "event"
				},
				{
					"anonymous": false,
					"inputs": [
						{
							"indexed": false,
							"internalType": "address",
							"name": "_player",
							"type": "address"
						},
						{
							"indexed": false,
							"internalType": "enum RockPaperScissors.Choice",
							"name": "choice",
							"type": "uint8"
						}
					],
					"name": "reveal",
					"type": "event"
				},
				{
					"anonymous": false,
					"inputs": [
						{
							"indexed": false,
							"internalType": "address",
							"name": "_winner",
							"type": "address"
						}
					],
					"name": "sendWinner",
					"type": "event"
				},
				{
					"inputs": [
						{
							"internalType": "address",
							"name": "",
							"type": "address"
						}
					],
					"name": "choices",
					"outputs": [
						{
							"internalType": "bytes32",
							"name": "",
							"type": "bytes32"
						}
					],
					"stateMutability": "view",
					"type": "function"
				},
				{
					"inputs": [],
					"name": "isChooseStage",
					"outputs": [
						{
							"internalType": "bool",
							"name": "",
							"type": "bool"
						}
					],
					"stateMutability": "view",
					"type": "function"
				},
				{
					"inputs": [
						{
							"internalType": "bytes32",
							"name": "_hashedChoice",
							"type": "bytes32"
						}
					],
					"name": "makeChoice",
					"outputs": [],
					"stateMutability": "nonpayable",
					"type": "function"
				},
				{
					"inputs": [
						{
							"internalType": "uint256",
							"name": "_choice",
							"type": "uint256"
						},
						{
							"internalType": "bytes32",
							"name": "_secret",
							"type": "bytes32"
						}
					],
					"name": "revealChoices",
					"outputs": [],
					"stateMutability": "nonpayable",
					"type": "function"
				},
				{
					"inputs": [
						{
							"internalType": "address",
							"name": "",
							"type": "address"
						}
					],
					"name": "revealedChoice",
					"outputs": [
						{
							"internalType": "enum RockPaperScissors.Choice",
							"name": "",
							"type": "uint8"
						}
					],
					"stateMutability": "view",
					"type": "function"
				}
			],
			"devdoc": {
				"kind": "dev",
				"methods": {},
				"version": 1
			},
			"evm": {
				"assembly": "    /* \"contracts/RockPaperScissors.sol\":62:3316  contract RockPaperScissors {\r... */\n  mstore(0x40, 0x80)\n    /* \"contracts/RockPaperScissors.sol\":525:578  constructor() {\r... */\n  callvalue\n  dup1\n  iszero\n  tag_1\n  jumpi\n  0x00\n  dup1\n  revert\ntag_1:\n  pop\n    /* \"contracts/RockPaperScissors.sol\":566:570  true */\n  0x01\n    /* \"contracts/RockPaperScissors.sol\":550:563  isChooseStage */\n  dup1\n  0x14\n    /* \"contracts/RockPaperScissors.sol\":550:570  isChooseStage = true */\n  0x0100\n  exp\n  dup2\n  sload\n  dup2\n  0xff\n  mul\n  not\n  and\n  swap1\n  dup4\n  iszero\n  iszero\n  mul\n  or\n  swap1\n  sstore\n  pop\n    /* \"contracts/RockPaperScissors.sol\":62:3316  contract RockPaperScissors {\r... */\n  dataSize(sub_0)\n  dup1\n  dataOffset(sub_0)\n  0x00\n  codecopy\n  0x00\n  return\nstop\n\nsub_0: assembly {\n        /* \"contracts/RockPaperScissors.sol\":62:3316  contract RockPaperScissors {\r... */\n      mstore(0x40, 0x80)\n      callvalue\n      dup1\n      iszero\n      tag_1\n      jumpi\n      0x00\n      dup1\n      revert\n    tag_1:\n      pop\n      jumpi(tag_2, lt(calldatasize, 0x04))\n      shr(0xe0, calldataload(0x00))\n      dup1\n      0x410346b3\n      eq\n      tag_3\n      jumpi\n      dup1\n      0xa3b99089\n      eq\n      tag_4\n      jumpi\n      dup1\n      0xaa00daf1\n      eq\n      tag_5\n      jumpi\n      dup1\n      0xc1d5383c\n      eq\n      tag_6\n      jumpi\n      dup1\n      0xfce55812\n      eq\n      tag_7\n      jumpi\n    tag_2:\n      0x00\n      dup1\n      revert\n        /* \"contracts/RockPaperScissors.sol\":393:435  mapping(address => bytes32) public choices */\n    tag_3:\n      tag_8\n      0x04\n      dup1\n      calldatasize\n      sub\n      dup2\n      add\n      swap1\n      tag_9\n      swap2\n      swap1\n      tag_10\n      jump\t// in\n    tag_9:\n      tag_11\n      jump\t// in\n    tag_8:\n      mload(0x40)\n      tag_12\n      swap2\n      swap1\n      tag_13\n      jump\t// in\n    tag_12:\n      mload(0x40)\n      dup1\n      swap2\n      sub\n      swap1\n      return\n        /* \"contracts/RockPaperScissors.sol\":468:516  mapping(address => Choice) public revealedChoice */\n    tag_4:\n      tag_14\n      0x04\n      dup1\n      calldatasize\n      sub\n      dup2\n      add\n      swap1\n      tag_15\n      swap2\n      swap1\n      tag_10\n      jump\t// in\n    tag_15:\n      tag_16\n      jump\t// in\n    tag_14:\n      mload(0x40)\n      tag_17\n      swap2\n      swap1\n      tag_18\n      jump\t// in\n    tag_17:\n      mload(0x40)\n      dup1\n      swap2\n      sub\n      swap1\n      return\n        /* \"contracts/RockPaperScissors.sol\":361:386  bool public isChooseStage */\n    tag_5:\n      tag_19\n      tag_20\n      jump\t// in\n    tag_19:\n      mload(0x40)\n      tag_21\n      swap2\n      swap1\n      tag_22\n      jump\t// in\n    tag_21:\n      mload(0x40)\n      dup1\n      swap2\n      sub\n      swap1\n      return\n        /* \"contracts/RockPaperScissors.sol\":1702:2161  function revealChoices(uint _choice, bytes32 _secret) external revealStage {\r... */\n    tag_6:\n      tag_23\n      0x04\n      dup1\n      calldatasize\n      sub\n      dup2\n      add\n      swap1\n      tag_24\n      swap2\n      swap1\n      tag_25\n      jump\t// in\n    tag_24:\n      tag_26\n      jump\t// in\n    tag_23:\n      stop\n        /* \"contracts/RockPaperScissors.sol\":1404:1694  function makeChoice(bytes32 _hashedChoice) external chooseStage {\r... */\n    tag_7:\n      tag_27\n      0x04\n      dup1\n      calldatasize\n      sub\n      dup2\n      add\n      swap1\n      tag_28\n      swap2\n      swap1\n      tag_29\n      jump\t// in\n    tag_28:\n      tag_30\n      jump\t// in\n    tag_27:\n      stop\n        /* \"contracts/RockPaperScissors.sol\":393:435  mapping(address => bytes32) public choices */\n    tag_11:\n      mstore(0x20, 0x02)\n      dup1\n      0x00\n      mstore\n      keccak256(0x00, 0x40)\n      0x00\n      swap2\n      pop\n      swap1\n      pop\n      sload\n      dup2\n      jump\t// out\n        /* \"contracts/RockPaperScissors.sol\":468:516  mapping(address => Choice) public revealedChoice */\n    tag_16:\n      mstore(0x20, 0x04)\n      dup1\n      0x00\n      mstore\n      keccak256(0x00, 0x40)\n      0x00\n      swap2\n      pop\n      sload\n      swap1\n      0x0100\n      exp\n      swap1\n      div\n      0xff\n      and\n      dup2\n      jump\t// out\n        /* \"contracts/RockPaperScissors.sol\":361:386  bool public isChooseStage */\n    tag_20:\n      0x01\n      0x14\n      swap1\n      sload\n      swap1\n      0x0100\n      exp\n      swap1\n      div\n      0xff\n      and\n      dup2\n      jump\t// out\n        /* \"contracts/RockPaperScissors.sol\":1702:2161  function revealChoices(uint _choice, bytes32 _secret) external revealStage {\r... */\n    tag_26:\n        /* \"contracts/RockPaperScissors.sol\":833:846  isChooseStage */\n      0x01\n      0x14\n      swap1\n      sload\n      swap1\n      0x0100\n      exp\n      swap1\n      div\n      0xff\n      and\n        /* \"contracts/RockPaperScissors.sol\":832:846  !isChooseStage */\n      iszero\n        /* \"contracts/RockPaperScissors.sol\":824:885  require(!isChooseStage, \"Choose stage haven't finished yet!\") */\n      tag_32\n      jumpi\n      mload(0x40)\n      0x08c379a000000000000000000000000000000000000000000000000000000000\n      dup2\n      mstore\n      0x04\n      add\n      tag_33\n      swap1\n      tag_34\n      jump\t// in\n    tag_33:\n      mload(0x40)\n      dup1\n      swap2\n      sub\n      swap1\n      revert\n    tag_32:\n        /* \"contracts/RockPaperScissors.sol\":1826:1837  Choice.None */\n      0x00\n        /* \"contracts/RockPaperScissors.sol\":1796:1837  revealedChoice[msg.sender] == Choice.None */\n      0x03\n      dup2\n      gt\n      iszero\n      tag_36\n      jumpi\n      tag_37\n      tag_38\n      jump\t// in\n    tag_37:\n    tag_36:\n        /* \"contracts/RockPaperScissors.sol\":1796:1810  revealedChoice */\n      0x04\n        /* \"contracts/RockPaperScissors.sol\":1796:1822  revealedChoice[msg.sender] */\n      0x00\n        /* \"contracts/RockPaperScissors.sol\":1811:1821  msg.sender */\n      caller\n        /* \"contracts/RockPaperScissors.sol\":1796:1822  revealedChoice[msg.sender] */\n      0xffffffffffffffffffffffffffffffffffffffff\n      and\n      0xffffffffffffffffffffffffffffffffffffffff\n      and\n      dup2\n      mstore\n      0x20\n      add\n      swap1\n      dup2\n      mstore\n      0x20\n      add\n      0x00\n      keccak256\n      0x00\n      swap1\n      sload\n      swap1\n      0x0100\n      exp\n      swap1\n      div\n      0xff\n      and\n        /* \"contracts/RockPaperScissors.sol\":1796:1837  revealedChoice[msg.sender] == Choice.None */\n      0x03\n      dup2\n      gt\n      iszero\n      tag_39\n      jumpi\n      tag_40\n      tag_38\n      jump\t// in\n    tag_40:\n    tag_39:\n      eq\n        /* \"contracts/RockPaperScissors.sol\":1788:1875  require(revealedChoice[msg.sender] == Choice.None, \"You already revealed your choice!\") */\n      tag_41\n      jumpi\n      mload(0x40)\n      0x08c379a000000000000000000000000000000000000000000000000000000000\n      dup2\n      mstore\n      0x04\n      add\n      tag_42\n      swap1\n      tag_43\n      jump\t// in\n    tag_42:\n      mload(0x40)\n      dup1\n      swap2\n      sub\n      swap1\n      revert\n    tag_41:\n        /* \"contracts/RockPaperScissors.sol\":1955:1962  choices */\n      0x02\n        /* \"contracts/RockPaperScissors.sol\":1955:1974  choices[msg.sender] */\n      0x00\n        /* \"contracts/RockPaperScissors.sol\":1963:1973  msg.sender */\n      caller\n        /* \"contracts/RockPaperScissors.sol\":1955:1974  choices[msg.sender] */\n      0xffffffffffffffffffffffffffffffffffffffff\n      and\n      0xffffffffffffffffffffffffffffffffffffffff\n      and\n      dup2\n      mstore\n      0x20\n      add\n      swap1\n      dup2\n      mstore\n      0x20\n      add\n      0x00\n      keccak256\n      sload\n        /* \"contracts/RockPaperScissors.sol\":1921:1928  _choice */\n      dup3\n        /* \"contracts/RockPaperScissors.sol\":1930:1937  _secret */\n      dup3\n        /* \"contracts/RockPaperScissors.sol\":1939:1949  msg.sender */\n      caller\n        /* \"contracts/RockPaperScissors.sol\":1904:1950  abi.encodePacked(_choice, _secret, msg.sender) */\n      add(0x20, mload(0x40))\n      tag_44\n      swap4\n      swap3\n      swap2\n      swap1\n      tag_45\n      jump\t// in\n    tag_44:\n      mload(0x40)\n      0x20\n      dup2\n      dup4\n      sub\n      sub\n      dup2\n      mstore\n      swap1\n      0x40\n      mstore\n        /* \"contracts/RockPaperScissors.sol\":1894:1951  keccak256(abi.encodePacked(_choice, _secret, msg.sender)) */\n      dup1\n      mload\n      swap1\n      0x20\n      add\n      keccak256\n        /* \"contracts/RockPaperScissors.sol\":1894:1974  keccak256(abi.encodePacked(_choice, _secret, msg.sender)) == choices[msg.sender] */\n      eq\n        /* \"contracts/RockPaperScissors.sol\":1886:2019  require(keccak256(abi.encodePacked(_choice, _secret, msg.sender)) == choices[msg.sender], \"Choice is deffers from what you choosed!\") */\n      tag_46\n      jumpi\n      mload(0x40)\n      0x08c379a000000000000000000000000000000000000000000000000000000000\n      dup2\n      mstore\n      0x04\n      add\n      tag_47\n      swap1\n      tag_48\n      jump\t// in\n    tag_47:\n      mload(0x40)\n      dup1\n      swap2\n      sub\n      swap1\n      revert\n    tag_46:\n        /* \"contracts/RockPaperScissors.sol\":2061:2089  getEnumValueByIndex(_choice) */\n      tag_49\n        /* \"contracts/RockPaperScissors.sol\":2081:2088  _choice */\n      dup3\n        /* \"contracts/RockPaperScissors.sol\":2061:2080  getEnumValueByIndex */\n      tag_50\n        /* \"contracts/RockPaperScissors.sol\":2061:2089  getEnumValueByIndex(_choice) */\n      jump\t// in\n    tag_49:\n        /* \"contracts/RockPaperScissors.sol\":2032:2046  revealedChoice */\n      0x04\n        /* \"contracts/RockPaperScissors.sol\":2032:2058  revealedChoice[msg.sender] */\n      0x00\n        /* \"contracts/RockPaperScissors.sol\":2047:2057  msg.sender */\n      caller\n        /* \"contracts/RockPaperScissors.sol\":2032:2058  revealedChoice[msg.sender] */\n      0xffffffffffffffffffffffffffffffffffffffff\n      and\n      0xffffffffffffffffffffffffffffffffffffffff\n      and\n      dup2\n      mstore\n      0x20\n      add\n      swap1\n      dup2\n      mstore\n      0x20\n      add\n      0x00\n      keccak256\n      0x00\n        /* \"contracts/RockPaperScissors.sol\":2032:2089  revealedChoice[msg.sender] = getEnumValueByIndex(_choice) */\n      0x0100\n      exp\n      dup2\n      sload\n      dup2\n      0xff\n      mul\n      not\n      and\n      swap1\n      dup4\n      0x03\n      dup2\n      gt\n      iszero\n      tag_51\n      jumpi\n      tag_52\n      tag_38\n      jump\t// in\n    tag_52:\n    tag_51:\n      mul\n      or\n      swap1\n      sstore\n      pop\n        /* \"contracts/RockPaperScissors.sol\":2105:2153  reveal(msg.sender, getEnumValueByIndex(_choice)) */\n      0x5a6f3269421694461ff6bf84b6be1922723cedb23a85496d43a1ab67f7ea67fb\n        /* \"contracts/RockPaperScissors.sol\":2112:2122  msg.sender */\n      caller\n        /* \"contracts/RockPaperScissors.sol\":2124:2152  getEnumValueByIndex(_choice) */\n      tag_53\n        /* \"contracts/RockPaperScissors.sol\":2144:2151  _choice */\n      dup5\n        /* \"contracts/RockPaperScissors.sol\":2124:2143  getEnumValueByIndex */\n      tag_50\n        /* \"contracts/RockPaperScissors.sol\":2124:2152  getEnumValueByIndex(_choice) */\n      jump\t// in\n    tag_53:\n        /* \"contracts/RockPaperScissors.sol\":2105:2153  reveal(msg.sender, getEnumValueByIndex(_choice)) */\n      mload(0x40)\n      tag_54\n      swap3\n      swap2\n      swap1\n      tag_55\n      jump\t// in\n    tag_54:\n      mload(0x40)\n      dup1\n      swap2\n      sub\n      swap1\n      log1\n        /* \"contracts/RockPaperScissors.sol\":908:922  peopleRevealed */\n      0x03\n      0x00\n        /* \"contracts/RockPaperScissors.sol\":908:924  peopleRevealed++ */\n      dup2\n      sload\n      dup1\n      swap3\n      swap2\n      swap1\n      tag_56\n      swap1\n      tag_57\n      jump\t// in\n    tag_56:\n      swap2\n      swap1\n      pop\n      sstore\n      pop\n        /* \"contracts/RockPaperScissors.sol\":957:958  2 */\n      0x02\n        /* \"contracts/RockPaperScissors.sol\":939:953  peopleRevealed */\n      sload(0x03)\n        /* \"contracts/RockPaperScissors.sol\":939:958  peopleRevealed == 2 */\n      eq\n        /* \"contracts/RockPaperScissors.sol\":935:1039  if (peopleRevealed == 2) {\r... */\n      iszero\n      tag_58\n      jumpi\n        /* \"contracts/RockPaperScissors.sol\":975:989  defineWinner() */\n      tag_59\n        /* \"contracts/RockPaperScissors.sol\":975:987  defineWinner */\n      tag_60\n        /* \"contracts/RockPaperScissors.sol\":975:989  defineWinner() */\n      jump\t// in\n    tag_59:\n        /* \"contracts/RockPaperScissors.sol\":1009:1027  sendWinner(winner) */\n      0xbfabc6814ae9da8c3d60f2534acc59a54c9ddc4d1ce2c6fc2afef4d447880daf\n        /* \"contracts/RockPaperScissors.sol\":1020:1026  winner */\n      0x01\n      0x00\n      swap1\n      sload\n      swap1\n      0x0100\n      exp\n      swap1\n      div\n      0xffffffffffffffffffffffffffffffffffffffff\n      and\n        /* \"contracts/RockPaperScissors.sol\":1009:1027  sendWinner(winner) */\n      mload(0x40)\n      tag_61\n      swap2\n      swap1\n      tag_62\n      jump\t// in\n    tag_61:\n      mload(0x40)\n      dup1\n      swap2\n      sub\n      swap1\n      log1\n        /* \"contracts/RockPaperScissors.sol\":935:1039  if (peopleRevealed == 2) {\r... */\n    tag_58:\n        /* \"contracts/RockPaperScissors.sol\":1702:2161  function revealChoices(uint _choice, bytes32 _secret) external revealStage {\r... */\n      pop\n      pop\n      jump\t// out\n        /* \"contracts/RockPaperScissors.sol\":1404:1694  function makeChoice(bytes32 _hashedChoice) external chooseStage {\r... */\n    tag_30:\n        /* \"contracts/RockPaperScissors.sol\":628:641  isChooseStage */\n      0x01\n      0x14\n      swap1\n      sload\n      swap1\n      0x0100\n      exp\n      swap1\n      div\n      0xff\n      and\n        /* \"contracts/RockPaperScissors.sol\":620:676  require(isChooseStage, \"Choose stage already finished!\") */\n      tag_64\n      jumpi\n      mload(0x40)\n      0x08c379a000000000000000000000000000000000000000000000000000000000\n      dup2\n      mstore\n      0x04\n      add\n      tag_65\n      swap1\n      tag_66\n      jump\t// in\n    tag_65:\n      mload(0x40)\n      dup1\n      swap2\n      sub\n      swap1\n      revert\n    tag_64:\n        /* \"contracts/RockPaperScissors.sol\":1518:1519  0 */\n      0x00\n        /* \"contracts/RockPaperScissors.sol\":1510:1520  bytes32(0) */\n      dup1\n      shl\n        /* \"contracts/RockPaperScissors.sol\":1487:1494  choices */\n      0x02\n        /* \"contracts/RockPaperScissors.sol\":1487:1506  choices[msg.sender] */\n      0x00\n        /* \"contracts/RockPaperScissors.sol\":1495:1505  msg.sender */\n      caller\n        /* \"contracts/RockPaperScissors.sol\":1487:1506  choices[msg.sender] */\n      0xffffffffffffffffffffffffffffffffffffffff\n      and\n      0xffffffffffffffffffffffffffffffffffffffff\n      and\n      dup2\n      mstore\n      0x20\n      add\n      swap1\n      dup2\n      mstore\n      0x20\n      add\n      0x00\n      keccak256\n      sload\n        /* \"contracts/RockPaperScissors.sol\":1487:1520  choices[msg.sender] == bytes32(0) */\n      eq\n        /* \"contracts/RockPaperScissors.sol\":1479:1551  require(choices[msg.sender] == bytes32(0), \"You already made a choice!\") */\n      tag_68\n      jumpi\n      mload(0x40)\n      0x08c379a000000000000000000000000000000000000000000000000000000000\n      dup2\n      mstore\n      0x04\n      add\n      tag_69\n      swap1\n      tag_70\n      jump\t// in\n    tag_69:\n      mload(0x40)\n      dup1\n      swap2\n      sub\n      swap1\n      revert\n    tag_68:\n        /* \"contracts/RockPaperScissors.sol\":1564:1574  playerKeys */\n      0x00\n        /* \"contracts/RockPaperScissors.sol\":1580:1590  msg.sender */\n      caller\n        /* \"contracts/RockPaperScissors.sol\":1564:1591  playerKeys.push(msg.sender) */\n      swap1\n      dup1\n      0x01\n      dup2\n      sload\n      add\n      dup1\n      dup3\n      sstore\n      dup1\n      swap2\n      pop\n      pop\n      0x01\n      swap1\n      sub\n      swap1\n      0x00\n      mstore\n      keccak256(0x00, 0x20)\n      add\n      0x00\n      swap1\n      swap2\n      swap1\n      swap2\n      swap1\n      swap2\n      0x0100\n      exp\n      dup2\n      sload\n      dup2\n      0xffffffffffffffffffffffffffffffffffffffff\n      mul\n      not\n      and\n      swap1\n      dup4\n      0xffffffffffffffffffffffffffffffffffffffff\n      and\n      mul\n      or\n      swap1\n      sstore\n      pop\n        /* \"contracts/RockPaperScissors.sol\":1624:1637  _hashedChoice */\n      dup1\n        /* \"contracts/RockPaperScissors.sol\":1602:1609  choices */\n      0x02\n        /* \"contracts/RockPaperScissors.sol\":1602:1621  choices[msg.sender] */\n      0x00\n        /* \"contracts/RockPaperScissors.sol\":1610:1620  msg.sender */\n      caller\n        /* \"contracts/RockPaperScissors.sol\":1602:1621  choices[msg.sender] */\n      0xffffffffffffffffffffffffffffffffffffffff\n      and\n      0xffffffffffffffffffffffffffffffffffffffff\n      and\n      dup2\n      mstore\n      0x20\n      add\n      swap1\n      dup2\n      mstore\n      0x20\n      add\n      0x00\n      keccak256\n        /* \"contracts/RockPaperScissors.sol\":1602:1637  choices[msg.sender] = _hashedChoice */\n      dup2\n      swap1\n      sstore\n      pop\n        /* \"contracts/RockPaperScissors.sol\":1653:1686  commit(msg.sender, _hashedChoice) */\n      0x30f73c991d5cc2b3ba37e592c2cada15a965c615935598e04ac3bc5fc71c3319\n        /* \"contracts/RockPaperScissors.sol\":1660:1670  msg.sender */\n      caller\n        /* \"contracts/RockPaperScissors.sol\":1672:1685  _hashedChoice */\n      dup3\n        /* \"contracts/RockPaperScissors.sol\":1653:1686  commit(msg.sender, _hashedChoice) */\n      mload(0x40)\n      tag_72\n      swap3\n      swap2\n      swap1\n      tag_73\n      jump\t// in\n    tag_72:\n      mload(0x40)\n      dup1\n      swap2\n      sub\n      swap1\n      log1\n        /* \"contracts/RockPaperScissors.sol\":724:725  2 */\n      0x02\n        /* \"contracts/RockPaperScissors.sol\":703:713  playerKeys */\n      0x00\n        /* \"contracts/RockPaperScissors.sol\":703:720  playerKeys.length */\n      dup1\n      sload\n      swap1\n      pop\n        /* \"contracts/RockPaperScissors.sol\":703:725  playerKeys.length == 2 */\n      eq\n        /* \"contracts/RockPaperScissors.sol\":699:775  if (playerKeys.length == 2) {\r... */\n      iszero\n      tag_74\n      jumpi\n        /* \"contracts/RockPaperScissors.sol\":758:763  false */\n      0x00\n        /* \"contracts/RockPaperScissors.sol\":742:755  isChooseStage */\n      0x01\n      0x14\n        /* \"contracts/RockPaperScissors.sol\":742:763  isChooseStage = false */\n      0x0100\n      exp\n      dup2\n      sload\n      dup2\n      0xff\n      mul\n      not\n      and\n      swap1\n      dup4\n      iszero\n      iszero\n      mul\n      or\n      swap1\n      sstore\n      pop\n        /* \"contracts/RockPaperScissors.sol\":699:775  if (playerKeys.length == 2) {\r... */\n    tag_74:\n        /* \"contracts/RockPaperScissors.sol\":1404:1694  function makeChoice(bytes32 _hashedChoice) external chooseStage {\r... */\n      pop\n      jump\t// out\n        /* \"contracts/RockPaperScissors.sol\":1054:1396  function getEnumValueByIndex(uint _choice) private pure returns (Choice) {\r... */\n    tag_50:\n        /* \"contracts/RockPaperScissors.sol\":1119:1125  Choice */\n      0x00\n        /* \"contracts/RockPaperScissors.sol\":1153:1154  1 */\n      0x01\n        /* \"contracts/RockPaperScissors.sol\":1142:1149  _choice */\n      dup3\n        /* \"contracts/RockPaperScissors.sol\":1142:1154  _choice == 1 */\n      eq\n        /* \"contracts/RockPaperScissors.sol\":1138:1344  if (_choice == 1) {\r... */\n      iszero\n      tag_76\n      jumpi\n        /* \"contracts/RockPaperScissors.sol\":1178:1189  Choice.Rock */\n      0x01\n        /* \"contracts/RockPaperScissors.sol\":1171:1189  return Choice.Rock */\n      swap1\n      pop\n      jump(tag_75)\n        /* \"contracts/RockPaperScissors.sol\":1138:1344  if (_choice == 1) {\r... */\n    tag_76:\n        /* \"contracts/RockPaperScissors.sol\":1222:1223  2 */\n      0x02\n        /* \"contracts/RockPaperScissors.sol\":1211:1218  _choice */\n      dup3\n        /* \"contracts/RockPaperScissors.sol\":1211:1223  _choice == 2 */\n      eq\n        /* \"contracts/RockPaperScissors.sol\":1207:1344  if (_choice == 2) {\r... */\n      iszero\n      tag_78\n      jumpi\n        /* \"contracts/RockPaperScissors.sol\":1247:1259  Choice.Paper */\n      0x02\n        /* \"contracts/RockPaperScissors.sol\":1240:1259  return Choice.Paper */\n      swap1\n      pop\n      jump(tag_75)\n        /* \"contracts/RockPaperScissors.sol\":1207:1344  if (_choice == 2) {\r... */\n    tag_78:\n        /* \"contracts/RockPaperScissors.sol\":1292:1293  3 */\n      0x03\n        /* \"contracts/RockPaperScissors.sol\":1281:1288  _choice */\n      dup3\n        /* \"contracts/RockPaperScissors.sol\":1281:1293  _choice == 3 */\n      eq\n        /* \"contracts/RockPaperScissors.sol\":1277:1344  if (_choice == 3) {\r... */\n      iszero\n      tag_80\n      jumpi\n        /* \"contracts/RockPaperScissors.sol\":1317:1332  Choice.Scissors */\n      0x03\n        /* \"contracts/RockPaperScissors.sol\":1310:1332  return Choice.Scissors */\n      swap1\n      pop\n      jump(tag_75)\n        /* \"contracts/RockPaperScissors.sol\":1277:1344  if (_choice == 3) {\r... */\n    tag_80:\n        /* \"contracts/RockPaperScissors.sol\":1354:1388  revert(\"Incorrect choice number!\") */\n      mload(0x40)\n      0x08c379a000000000000000000000000000000000000000000000000000000000\n      dup2\n      mstore\n      0x04\n      add\n      tag_81\n      swap1\n      tag_82\n      jump\t// in\n    tag_81:\n      mload(0x40)\n      dup1\n      swap2\n      sub\n      swap1\n      revert\n        /* \"contracts/RockPaperScissors.sol\":1054:1396  function getEnumValueByIndex(uint _choice) private pure returns (Choice) {\r... */\n    tag_75:\n      swap2\n      swap1\n      pop\n      jump\t// out\n        /* \"contracts/RockPaperScissors.sol\":2169:2664  function defineWinner() private {\r... */\n    tag_60:\n        /* \"contracts/RockPaperScissors.sol\":2212:2224  Choice first */\n      0x00\n        /* \"contracts/RockPaperScissors.sol\":2227:2241  revealedChoice */\n      0x04\n        /* \"contracts/RockPaperScissors.sol\":2227:2256  revealedChoice[playerKeys[0]] */\n      0x00\n        /* \"contracts/RockPaperScissors.sol\":2242:2252  playerKeys */\n      dup1\n        /* \"contracts/RockPaperScissors.sol\":2253:2254  0 */\n      0x00\n        /* \"contracts/RockPaperScissors.sol\":2242:2255  playerKeys[0] */\n      dup2\n      sload\n      dup2\n      lt\n      tag_84\n      jumpi\n      tag_85\n      tag_86\n      jump\t// in\n    tag_85:\n    tag_84:\n      swap1\n      0x00\n      mstore\n      keccak256(0x00, 0x20)\n      add\n      0x00\n      swap1\n      sload\n      swap1\n      0x0100\n      exp\n      swap1\n      div\n      0xffffffffffffffffffffffffffffffffffffffff\n      and\n        /* \"contracts/RockPaperScissors.sol\":2227:2256  revealedChoice[playerKeys[0]] */\n      0xffffffffffffffffffffffffffffffffffffffff\n      and\n      0xffffffffffffffffffffffffffffffffffffffff\n      and\n      dup2\n      mstore\n      0x20\n      add\n      swap1\n      dup2\n      mstore\n      0x20\n      add\n      0x00\n      keccak256\n      0x00\n      swap1\n      sload\n      swap1\n      0x0100\n      exp\n      swap1\n      div\n      0xff\n      and\n        /* \"contracts/RockPaperScissors.sol\":2212:2256  Choice first = revealedChoice[playerKeys[0]] */\n      swap1\n      pop\n        /* \"contracts/RockPaperScissors.sol\":2267:2280  Choice second */\n      0x00\n        /* \"contracts/RockPaperScissors.sol\":2283:2297  revealedChoice */\n      0x04\n        /* \"contracts/RockPaperScissors.sol\":2283:2312  revealedChoice[playerKeys[1]] */\n      0x00\n        /* \"contracts/RockPaperScissors.sol\":2298:2308  playerKeys */\n      dup1\n        /* \"contracts/RockPaperScissors.sol\":2309:2310  1 */\n      0x01\n        /* \"contracts/RockPaperScissors.sol\":2298:2311  playerKeys[1] */\n      dup2\n      sload\n      dup2\n      lt\n      tag_88\n      jumpi\n      tag_89\n      tag_86\n      jump\t// in\n    tag_89:\n    tag_88:\n      swap1\n      0x00\n      mstore\n      keccak256(0x00, 0x20)\n      add\n      0x00\n      swap1\n      sload\n      swap1\n      0x0100\n      exp\n      swap1\n      div\n      0xffffffffffffffffffffffffffffffffffffffff\n      and\n        /* \"contracts/RockPaperScissors.sol\":2283:2312  revealedChoice[playerKeys[1]] */\n      0xffffffffffffffffffffffffffffffffffffffff\n      and\n      0xffffffffffffffffffffffffffffffffffffffff\n      and\n      dup2\n      mstore\n      0x20\n      add\n      swap1\n      dup2\n      mstore\n      0x20\n      add\n      0x00\n      keccak256\n      0x00\n      swap1\n      sload\n      swap1\n      0x0100\n      exp\n      swap1\n      div\n      0xff\n      and\n        /* \"contracts/RockPaperScissors.sol\":2267:2312  Choice second = revealedChoice[playerKeys[1]] */\n      swap1\n      pop\n        /* \"contracts/RockPaperScissors.sol\":2338:2344  second */\n      dup1\n        /* \"contracts/RockPaperScissors.sol\":2329:2344  first != second */\n      0x03\n      dup2\n      gt\n      iszero\n      tag_91\n      jumpi\n      tag_92\n      tag_38\n      jump\t// in\n    tag_92:\n    tag_91:\n        /* \"contracts/RockPaperScissors.sol\":2329:2334  first */\n      dup3\n        /* \"contracts/RockPaperScissors.sol\":2329:2344  first != second */\n      0x03\n      dup2\n      gt\n      iszero\n      tag_93\n      jumpi\n      tag_94\n      tag_38\n      jump\t// in\n    tag_94:\n    tag_93:\n      eq\n        /* \"contracts/RockPaperScissors.sol\":2325:2657  if (first != second) {\r... */\n      tag_95\n      jumpi\n        /* \"contracts/RockPaperScissors.sol\":2375:2386  Choice.Rock */\n      0x01\n        /* \"contracts/RockPaperScissors.sol\":2366:2386  first == Choice.Rock */\n      0x03\n      dup2\n      gt\n      iszero\n      tag_96\n      jumpi\n      tag_97\n      tag_38\n      jump\t// in\n    tag_97:\n    tag_96:\n        /* \"contracts/RockPaperScissors.sol\":2366:2371  first */\n      dup3\n        /* \"contracts/RockPaperScissors.sol\":2366:2386  first == Choice.Rock */\n      0x03\n      dup2\n      gt\n      iszero\n      tag_98\n      jumpi\n      tag_99\n      tag_38\n      jump\t// in\n    tag_99:\n    tag_98:\n      eq\n        /* \"contracts/RockPaperScissors.sol\":2366:2412  first == Choice.Rock && second == Choice.Paper */\n      dup1\n      iszero\n      tag_100\n      jumpi\n      pop\n        /* \"contracts/RockPaperScissors.sol\":2400:2412  Choice.Paper */\n      0x02\n        /* \"contracts/RockPaperScissors.sol\":2390:2412  second == Choice.Paper */\n      0x03\n      dup2\n      gt\n      iszero\n      tag_101\n      jumpi\n      tag_102\n      tag_38\n      jump\t// in\n    tag_102:\n    tag_101:\n        /* \"contracts/RockPaperScissors.sol\":2390:2396  second */\n      dup2\n        /* \"contracts/RockPaperScissors.sol\":2390:2412  second == Choice.Paper */\n      0x03\n      dup2\n      gt\n      iszero\n      tag_103\n      jumpi\n      tag_104\n      tag_38\n      jump\t// in\n    tag_104:\n    tag_103:\n      eq\n        /* \"contracts/RockPaperScissors.sol\":2366:2412  first == Choice.Rock && second == Choice.Paper */\n    tag_100:\n        /* \"contracts/RockPaperScissors.sol\":2365:2469  (first == Choice.Rock && second == Choice.Paper) || (first == Choice.Paper && second == Choice.Scissors) */\n      dup1\n      tag_105\n      jumpi\n      pop\n        /* \"contracts/RockPaperScissors.sol\":2427:2439  Choice.Paper */\n      0x02\n        /* \"contracts/RockPaperScissors.sol\":2418:2439  first == Choice.Paper */\n      0x03\n      dup2\n      gt\n      iszero\n      tag_106\n      jumpi\n      tag_107\n      tag_38\n      jump\t// in\n    tag_107:\n    tag_106:\n        /* \"contracts/RockPaperScissors.sol\":2418:2423  first */\n      dup3\n        /* \"contracts/RockPaperScissors.sol\":2418:2439  first == Choice.Paper */\n      0x03\n      dup2\n      gt\n      iszero\n      tag_108\n      jumpi\n      tag_109\n      tag_38\n      jump\t// in\n    tag_109:\n    tag_108:\n      eq\n        /* \"contracts/RockPaperScissors.sol\":2418:2468  first == Choice.Paper && second == Choice.Scissors */\n      dup1\n      iszero\n      tag_110\n      jumpi\n      pop\n        /* \"contracts/RockPaperScissors.sol\":2453:2468  Choice.Scissors */\n      0x03\n        /* \"contracts/RockPaperScissors.sol\":2443:2468  second == Choice.Scissors */\n      dup1\n      dup2\n      gt\n      iszero\n      tag_111\n      jumpi\n      tag_112\n      tag_38\n      jump\t// in\n    tag_112:\n    tag_111:\n        /* \"contracts/RockPaperScissors.sol\":2443:2449  second */\n      dup2\n        /* \"contracts/RockPaperScissors.sol\":2443:2468  second == Choice.Scissors */\n      0x03\n      dup2\n      gt\n      iszero\n      tag_113\n      jumpi\n      tag_114\n      tag_38\n      jump\t// in\n    tag_114:\n    tag_113:\n      eq\n        /* \"contracts/RockPaperScissors.sol\":2418:2468  first == Choice.Paper && second == Choice.Scissors */\n    tag_110:\n        /* \"contracts/RockPaperScissors.sol\":2365:2469  (first == Choice.Rock && second == Choice.Paper) || (first == Choice.Paper && second == Choice.Scissors) */\n    tag_105:\n        /* \"contracts/RockPaperScissors.sol\":2365:2524  (first == Choice.Rock && second == Choice.Paper) || (first == Choice.Paper && second == Choice.Scissors) || (first == Choice.Scissors && second == Choice.Rock) */\n      dup1\n      tag_115\n      jumpi\n      pop\n        /* \"contracts/RockPaperScissors.sol\":2483:2498  Choice.Scissors */\n      0x03\n        /* \"contracts/RockPaperScissors.sol\":2474:2498  first == Choice.Scissors */\n      dup1\n      dup2\n      gt\n      iszero\n      tag_116\n      jumpi\n      tag_117\n      tag_38\n      jump\t// in\n    tag_117:\n    tag_116:\n        /* \"contracts/RockPaperScissors.sol\":2474:2479  first */\n      dup3\n        /* \"contracts/RockPaperScissors.sol\":2474:2498  first == Choice.Scissors */\n      0x03\n      dup2\n      gt\n      iszero\n      tag_118\n      jumpi\n      tag_119\n      tag_38\n      jump\t// in\n    tag_119:\n    tag_118:\n      eq\n        /* \"contracts/RockPaperScissors.sol\":2474:2523  first == Choice.Scissors && second == Choice.Rock */\n      dup1\n      iszero\n      tag_120\n      jumpi\n      pop\n        /* \"contracts/RockPaperScissors.sol\":2512:2523  Choice.Rock */\n      0x01\n        /* \"contracts/RockPaperScissors.sol\":2502:2523  second == Choice.Rock */\n      0x03\n      dup2\n      gt\n      iszero\n      tag_121\n      jumpi\n      tag_122\n      tag_38\n      jump\t// in\n    tag_122:\n    tag_121:\n        /* \"contracts/RockPaperScissors.sol\":2502:2508  second */\n      dup2\n        /* \"contracts/RockPaperScissors.sol\":2502:2523  second == Choice.Rock */\n      0x03\n      dup2\n      gt\n      iszero\n      tag_123\n      jumpi\n      tag_124\n      tag_38\n      jump\t// in\n    tag_124:\n    tag_123:\n      eq\n        /* \"contracts/RockPaperScissors.sol\":2474:2523  first == Choice.Scissors && second == Choice.Rock */\n    tag_120:\n        /* \"contracts/RockPaperScissors.sol\":2365:2524  (first == Choice.Rock && second == Choice.Paper) || (first == Choice.Paper && second == Choice.Scissors) || (first == Choice.Scissors && second == Choice.Rock) */\n    tag_115:\n        /* \"contracts/RockPaperScissors.sol\":2361:2646  if ((first == Choice.Rock && second == Choice.Paper) || (first == Choice.Paper && second == Choice.Scissors) || (first == Choice.Scissors && second == Choice.Rock)) {\r... */\n      iszero\n      tag_125\n      jumpi\n        /* \"contracts/RockPaperScissors.sol\":2554:2564  playerKeys */\n      0x00\n        /* \"contracts/RockPaperScissors.sol\":2565:2566  1 */\n      0x01\n        /* \"contracts/RockPaperScissors.sol\":2554:2567  playerKeys[1] */\n      dup2\n      sload\n      dup2\n      lt\n      tag_126\n      jumpi\n      tag_127\n      tag_86\n      jump\t// in\n    tag_127:\n    tag_126:\n      swap1\n      0x00\n      mstore\n      keccak256(0x00, 0x20)\n      add\n      0x00\n      swap1\n      sload\n      swap1\n      0x0100\n      exp\n      swap1\n      div\n      0xffffffffffffffffffffffffffffffffffffffff\n      and\n        /* \"contracts/RockPaperScissors.sol\":2545:2551  winner */\n      0x01\n      0x00\n        /* \"contracts/RockPaperScissors.sol\":2545:2567  winner = playerKeys[1] */\n      0x0100\n      exp\n      dup2\n      sload\n      dup2\n      0xffffffffffffffffffffffffffffffffffffffff\n      mul\n      not\n      and\n      swap1\n      dup4\n      0xffffffffffffffffffffffffffffffffffffffff\n      and\n      mul\n      or\n      swap1\n      sstore\n      pop\n        /* \"contracts/RockPaperScissors.sol\":2361:2646  if ((first == Choice.Rock && second == Choice.Paper) || (first == Choice.Paper && second == Choice.Scissors) || (first == Choice.Scissors && second == Choice.Rock)) {\r... */\n      jump(tag_129)\n    tag_125:\n        /* \"contracts/RockPaperScissors.sol\":2617:2627  playerKeys */\n      0x00\n        /* \"contracts/RockPaperScissors.sol\":2628:2629  0 */\n      dup1\n        /* \"contracts/RockPaperScissors.sol\":2617:2630  playerKeys[0] */\n      dup2\n      sload\n      dup2\n      lt\n      tag_130\n      jumpi\n      tag_131\n      tag_86\n      jump\t// in\n    tag_131:\n    tag_130:\n      swap1\n      0x00\n      mstore\n      keccak256(0x00, 0x20)\n      add\n      0x00\n      swap1\n      sload\n      swap1\n      0x0100\n      exp\n      swap1\n      div\n      0xffffffffffffffffffffffffffffffffffffffff\n      and\n        /* \"contracts/RockPaperScissors.sol\":2608:2614  winner */\n      0x01\n      0x00\n        /* \"contracts/RockPaperScissors.sol\":2608:2630  winner = playerKeys[0] */\n      0x0100\n      exp\n      dup2\n      sload\n      dup2\n      0xffffffffffffffffffffffffffffffffffffffff\n      mul\n      not\n      and\n      swap1\n      dup4\n      0xffffffffffffffffffffffffffffffffffffffff\n      and\n      mul\n      or\n      swap1\n      sstore\n      pop\n        /* \"contracts/RockPaperScissors.sol\":2361:2646  if ((first == Choice.Rock && second == Choice.Paper) || (first == Choice.Paper && second == Choice.Scissors) || (first == Choice.Scissors && second == Choice.Rock)) {\r... */\n    tag_129:\n        /* \"contracts/RockPaperScissors.sol\":2325:2657  if (first != second) {\r... */\n    tag_95:\n        /* \"contracts/RockPaperScissors.sol\":2201:2664  {\r... */\n      pop\n      pop\n        /* \"contracts/RockPaperScissors.sol\":2169:2664  function defineWinner() private {\r... */\n      jump\t// out\n        /* \"#utility.yul\":7:146   */\n    tag_134:\n        /* \"#utility.yul\":53:58   */\n      0x00\n        /* \"#utility.yul\":91:97   */\n      dup2\n        /* \"#utility.yul\":78:98   */\n      calldataload\n        /* \"#utility.yul\":69:98   */\n      swap1\n      pop\n        /* \"#utility.yul\":107:140   */\n      tag_136\n        /* \"#utility.yul\":134:139   */\n      dup2\n        /* \"#utility.yul\":107:140   */\n      tag_137\n      jump\t// in\n    tag_136:\n        /* \"#utility.yul\":7:146   */\n      swap3\n      swap2\n      pop\n      pop\n      jump\t// out\n        /* \"#utility.yul\":152:291   */\n    tag_138:\n        /* \"#utility.yul\":198:203   */\n      0x00\n        /* \"#utility.yul\":236:242   */\n      dup2\n        /* \"#utility.yul\":223:243   */\n      calldataload\n        /* \"#utility.yul\":214:243   */\n      swap1\n      pop\n        /* \"#utility.yul\":252:285   */\n      tag_140\n        /* \"#utility.yul\":279:284   */\n      dup2\n        /* \"#utility.yul\":252:285   */\n      tag_141\n      jump\t// in\n    tag_140:\n        /* \"#utility.yul\":152:291   */\n      swap3\n      swap2\n      pop\n      pop\n      jump\t// out\n        /* \"#utility.yul\":297:436   */\n    tag_142:\n        /* \"#utility.yul\":343:348   */\n      0x00\n        /* \"#utility.yul\":381:387   */\n      dup2\n        /* \"#utility.yul\":368:388   */\n      calldataload\n        /* \"#utility.yul\":359:388   */\n      swap1\n      pop\n        /* \"#utility.yul\":397:430   */\n      tag_144\n        /* \"#utility.yul\":424:429   */\n      dup2\n        /* \"#utility.yul\":397:430   */\n      tag_145\n      jump\t// in\n    tag_144:\n        /* \"#utility.yul\":297:436   */\n      swap3\n      swap2\n      pop\n      pop\n      jump\t// out\n        /* \"#utility.yul\":442:771   */\n    tag_10:\n        /* \"#utility.yul\":501:507   */\n      0x00\n        /* \"#utility.yul\":550:552   */\n      0x20\n        /* \"#utility.yul\":538:547   */\n      dup3\n        /* \"#utility.yul\":529:536   */\n      dup5\n        /* \"#utility.yul\":525:548   */\n      sub\n        /* \"#utility.yul\":521:553   */\n      slt\n        /* \"#utility.yul\":518:637   */\n      iszero\n      tag_147\n      jumpi\n        /* \"#utility.yul\":556:635   */\n      tag_148\n      tag_149\n      jump\t// in\n    tag_148:\n        /* \"#utility.yul\":518:637   */\n    tag_147:\n        /* \"#utility.yul\":676:677   */\n      0x00\n        /* \"#utility.yul\":701:754   */\n      tag_150\n        /* \"#utility.yul\":746:753   */\n      dup5\n        /* \"#utility.yul\":737:743   */\n      dup3\n        /* \"#utility.yul\":726:735   */\n      dup6\n        /* \"#utility.yul\":722:744   */\n      add\n        /* \"#utility.yul\":701:754   */\n      tag_134\n      jump\t// in\n    tag_150:\n        /* \"#utility.yul\":691:754   */\n      swap2\n      pop\n        /* \"#utility.yul\":647:764   */\n      pop\n        /* \"#utility.yul\":442:771   */\n      swap3\n      swap2\n      pop\n      pop\n      jump\t// out\n        /* \"#utility.yul\":777:1106   */\n    tag_29:\n        /* \"#utility.yul\":836:842   */\n      0x00\n        /* \"#utility.yul\":885:887   */\n      0x20\n        /* \"#utility.yul\":873:882   */\n      dup3\n        /* \"#utility.yul\":864:871   */\n      dup5\n        /* \"#utility.yul\":860:883   */\n      sub\n        /* \"#utility.yul\":856:888   */\n      slt\n        /* \"#utility.yul\":853:972   */\n      iszero\n      tag_152\n      jumpi\n        /* \"#utility.yul\":891:970   */\n      tag_153\n      tag_149\n      jump\t// in\n    tag_153:\n        /* \"#utility.yul\":853:972   */\n    tag_152:\n        /* \"#utility.yul\":1011:1012   */\n      0x00\n        /* \"#utility.yul\":1036:1089   */\n      tag_154\n        /* \"#utility.yul\":1081:1088   */\n      dup5\n        /* \"#utility.yul\":1072:1078   */\n      dup3\n        /* \"#utility.yul\":1061:1070   */\n      dup6\n        /* \"#utility.yul\":1057:1079   */\n      add\n        /* \"#utility.yul\":1036:1089   */\n      tag_138\n      jump\t// in\n    tag_154:\n        /* \"#utility.yul\":1026:1089   */\n      swap2\n      pop\n        /* \"#utility.yul\":982:1099   */\n      pop\n        /* \"#utility.yul\":777:1106   */\n      swap3\n      swap2\n      pop\n      pop\n      jump\t// out\n        /* \"#utility.yul\":1112:1586   */\n    tag_25:\n        /* \"#utility.yul\":1180:1186   */\n      0x00\n        /* \"#utility.yul\":1188:1194   */\n      dup1\n        /* \"#utility.yul\":1237:1239   */\n      0x40\n        /* \"#utility.yul\":1225:1234   */\n      dup4\n        /* \"#utility.yul\":1216:1223   */\n      dup6\n        /* \"#utility.yul\":1212:1235   */\n      sub\n        /* \"#utility.yul\":1208:1240   */\n      slt\n        /* \"#utility.yul\":1205:1324   */\n      iszero\n      tag_156\n      jumpi\n        /* \"#utility.yul\":1243:1322   */\n      tag_157\n      tag_149\n      jump\t// in\n    tag_157:\n        /* \"#utility.yul\":1205:1324   */\n    tag_156:\n        /* \"#utility.yul\":1363:1364   */\n      0x00\n        /* \"#utility.yul\":1388:1441   */\n      tag_158\n        /* \"#utility.yul\":1433:1440   */\n      dup6\n        /* \"#utility.yul\":1424:1430   */\n      dup3\n        /* \"#utility.yul\":1413:1422   */\n      dup7\n        /* \"#utility.yul\":1409:1431   */\n      add\n        /* \"#utility.yul\":1388:1441   */\n      tag_142\n      jump\t// in\n    tag_158:\n        /* \"#utility.yul\":1378:1441   */\n      swap3\n      pop\n        /* \"#utility.yul\":1334:1451   */\n      pop\n        /* \"#utility.yul\":1490:1492   */\n      0x20\n        /* \"#utility.yul\":1516:1569   */\n      tag_159\n        /* \"#utility.yul\":1561:1568   */\n      dup6\n        /* \"#utility.yul\":1552:1558   */\n      dup3\n        /* \"#utility.yul\":1541:1550   */\n      dup7\n        /* \"#utility.yul\":1537:1559   */\n      add\n        /* \"#utility.yul\":1516:1569   */\n      tag_138\n      jump\t// in\n    tag_159:\n        /* \"#utility.yul\":1506:1569   */\n      swap2\n      pop\n        /* \"#utility.yul\":1461:1579   */\n      pop\n        /* \"#utility.yul\":1112:1586   */\n      swap3\n      pop\n      swap3\n      swap1\n      pop\n      jump\t// out\n        /* \"#utility.yul\":1592:1710   */\n    tag_160:\n        /* \"#utility.yul\":1679:1703   */\n      tag_162\n        /* \"#utility.yul\":1697:1702   */\n      dup2\n        /* \"#utility.yul\":1679:1703   */\n      tag_163\n      jump\t// in\n    tag_162:\n        /* \"#utility.yul\":1674:1677   */\n      dup3\n        /* \"#utility.yul\":1667:1704   */\n      mstore\n        /* \"#utility.yul\":1592:1710   */\n      pop\n      pop\n      jump\t// out\n        /* \"#utility.yul\":1716:1873   */\n    tag_164:\n        /* \"#utility.yul\":1821:1866   */\n      tag_166\n        /* \"#utility.yul\":1841:1865   */\n      tag_167\n        /* \"#utility.yul\":1859:1864   */\n      dup3\n        /* \"#utility.yul\":1841:1865   */\n      tag_163\n      jump\t// in\n    tag_167:\n        /* \"#utility.yul\":1821:1866   */\n      tag_168\n      jump\t// in\n    tag_166:\n        /* \"#utility.yul\":1816:1819   */\n      dup3\n        /* \"#utility.yul\":1809:1867   */\n      mstore\n        /* \"#utility.yul\":1716:1873   */\n      pop\n      pop\n      jump\t// out\n        /* \"#utility.yul\":1879:1988   */\n    tag_169:\n        /* \"#utility.yul\":1960:1981   */\n      tag_171\n        /* \"#utility.yul\":1975:1980   */\n      dup2\n        /* \"#utility.yul\":1960:1981   */\n      tag_172\n      jump\t// in\n    tag_171:\n        /* \"#utility.yul\":1955:1958   */\n      dup3\n        /* \"#utility.yul\":1948:1982   */\n      mstore\n        /* \"#utility.yul\":1879:1988   */\n      pop\n      pop\n      jump\t// out\n        /* \"#utility.yul\":1994:2112   */\n    tag_173:\n        /* \"#utility.yul\":2081:2105   */\n      tag_175\n        /* \"#utility.yul\":2099:2104   */\n      dup2\n        /* \"#utility.yul\":2081:2105   */\n      tag_176\n      jump\t// in\n    tag_175:\n        /* \"#utility.yul\":2076:2079   */\n      dup3\n        /* \"#utility.yul\":2069:2106   */\n      mstore\n        /* \"#utility.yul\":1994:2112   */\n      pop\n      pop\n      jump\t// out\n        /* \"#utility.yul\":2118:2275   */\n    tag_177:\n        /* \"#utility.yul\":2223:2268   */\n      tag_179\n        /* \"#utility.yul\":2243:2267   */\n      tag_180\n        /* \"#utility.yul\":2261:2266   */\n      dup3\n        /* \"#utility.yul\":2243:2267   */\n      tag_176\n      jump\t// in\n    tag_180:\n        /* \"#utility.yul\":2223:2268   */\n      tag_181\n      jump\t// in\n    tag_179:\n        /* \"#utility.yul\":2218:2221   */\n      dup3\n        /* \"#utility.yul\":2211:2269   */\n      mstore\n        /* \"#utility.yul\":2118:2275   */\n      pop\n      pop\n      jump\t// out\n        /* \"#utility.yul\":2281:2424   */\n    tag_182:\n        /* \"#utility.yul\":2374:2417   */\n      tag_184\n        /* \"#utility.yul\":2411:2416   */\n      dup2\n        /* \"#utility.yul\":2374:2417   */\n      tag_185\n      jump\t// in\n    tag_184:\n        /* \"#utility.yul\":2369:2372   */\n      dup3\n        /* \"#utility.yul\":2362:2418   */\n      mstore\n        /* \"#utility.yul\":2281:2424   */\n      pop\n      pop\n      jump\t// out\n        /* \"#utility.yul\":2430:2796   */\n    tag_186:\n        /* \"#utility.yul\":2572:2575   */\n      0x00\n        /* \"#utility.yul\":2593:2660   */\n      tag_188\n        /* \"#utility.yul\":2657:2659   */\n      0x1e\n        /* \"#utility.yul\":2652:2655   */\n      dup4\n        /* \"#utility.yul\":2593:2660   */\n      tag_189\n      jump\t// in\n    tag_188:\n        /* \"#utility.yul\":2586:2660   */\n      swap2\n      pop\n        /* \"#utility.yul\":2669:2762   */\n      tag_190\n        /* \"#utility.yul\":2758:2761   */\n      dup3\n        /* \"#utility.yul\":2669:2762   */\n      tag_191\n      jump\t// in\n    tag_190:\n        /* \"#utility.yul\":2787:2789   */\n      0x20\n        /* \"#utility.yul\":2782:2785   */\n      dup3\n        /* \"#utility.yul\":2778:2790   */\n      add\n        /* \"#utility.yul\":2771:2790   */\n      swap1\n      pop\n        /* \"#utility.yul\":2430:2796   */\n      swap2\n      swap1\n      pop\n      jump\t// out\n        /* \"#utility.yul\":2802:3168   */\n    tag_192:\n        /* \"#utility.yul\":2944:2947   */\n      0x00\n        /* \"#utility.yul\":2965:3032   */\n      tag_194\n        /* \"#utility.yul\":3029:3031   */\n      0x1a\n        /* \"#utility.yul\":3024:3027   */\n      dup4\n        /* \"#utility.yul\":2965:3032   */\n      tag_189\n      jump\t// in\n    tag_194:\n        /* \"#utility.yul\":2958:3032   */\n      swap2\n      pop\n        /* \"#utility.yul\":3041:3134   */\n      tag_195\n        /* \"#utility.yul\":3130:3133   */\n      dup3\n        /* \"#utility.yul\":3041:3134   */\n      tag_196\n      jump\t// in\n    tag_195:\n        /* \"#utility.yul\":3159:3161   */\n      0x20\n        /* \"#utility.yul\":3154:3157   */\n      dup3\n        /* \"#utility.yul\":3150:3162   */\n      add\n        /* \"#utility.yul\":3143:3162   */\n      swap1\n      pop\n        /* \"#utility.yul\":2802:3168   */\n      swap2\n      swap1\n      pop\n      jump\t// out\n        /* \"#utility.yul\":3174:3540   */\n    tag_197:\n        /* \"#utility.yul\":3316:3319   */\n      0x00\n        /* \"#utility.yul\":3337:3404   */\n      tag_199\n        /* \"#utility.yul\":3401:3403   */\n      0x22\n        /* \"#utility.yul\":3396:3399   */\n      dup4\n        /* \"#utility.yul\":3337:3404   */\n      tag_189\n      jump\t// in\n    tag_199:\n        /* \"#utility.yul\":3330:3404   */\n      swap2\n      pop\n        /* \"#utility.yul\":3413:3506   */\n      tag_200\n        /* \"#utility.yul\":3502:3505   */\n      dup3\n        /* \"#utility.yul\":3413:3506   */\n      tag_201\n      jump\t// in\n    tag_200:\n        /* \"#utility.yul\":3531:3533   */\n      0x40\n        /* \"#utility.yul\":3526:3529   */\n      dup3\n        /* \"#utility.yul\":3522:3534   */\n      add\n        /* \"#utility.yul\":3515:3534   */\n      swap1\n      pop\n        /* \"#utility.yul\":3174:3540   */\n      swap2\n      swap1\n      pop\n      jump\t// out\n        /* \"#utility.yul\":3546:3912   */\n    tag_202:\n        /* \"#utility.yul\":3688:3691   */\n      0x00\n        /* \"#utility.yul\":3709:3776   */\n      tag_204\n        /* \"#utility.yul\":3773:3775   */\n      0x28\n        /* \"#utility.yul\":3768:3771   */\n      dup4\n        /* \"#utility.yul\":3709:3776   */\n      tag_189\n      jump\t// in\n    tag_204:\n        /* \"#utility.yul\":3702:3776   */\n      swap2\n      pop\n        /* \"#utility.yul\":3785:3878   */\n      tag_205\n        /* \"#utility.yul\":3874:3877   */\n      dup3\n        /* \"#utility.yul\":3785:3878   */\n      tag_206\n      jump\t// in\n    tag_205:\n        /* \"#utility.yul\":3903:3905   */\n      0x40\n        /* \"#utility.yul\":3898:3901   */\n      dup3\n        /* \"#utility.yul\":3894:3906   */\n      add\n        /* \"#utility.yul\":3887:3906   */\n      swap1\n      pop\n        /* \"#utility.yul\":3546:3912   */\n      swap2\n      swap1\n      pop\n      jump\t// out\n        /* \"#utility.yul\":3918:4284   */\n    tag_207:\n        /* \"#utility.yul\":4060:4063   */\n      0x00\n        /* \"#utility.yul\":4081:4148   */\n      tag_209\n        /* \"#utility.yul\":4145:4147   */\n      0x21\n        /* \"#utility.yul\":4140:4143   */\n      dup4\n        /* \"#utility.yul\":4081:4148   */\n      tag_189\n      jump\t// in\n    tag_209:\n        /* \"#utility.yul\":4074:4148   */\n      swap2\n      pop\n        /* \"#utility.yul\":4157:4250   */\n      tag_210\n        /* \"#utility.yul\":4246:4249   */\n      dup3\n        /* \"#utility.yul\":4157:4250   */\n      tag_211\n      jump\t// in\n    tag_210:\n        /* \"#utility.yul\":4275:4277   */\n      0x40\n        /* \"#utility.yul\":4270:4273   */\n      dup3\n        /* \"#utility.yul\":4266:4278   */\n      add\n        /* \"#utility.yul\":4259:4278   */\n      swap1\n      pop\n        /* \"#utility.yul\":3918:4284   */\n      swap2\n      swap1\n      pop\n      jump\t// out\n        /* \"#utility.yul\":4290:4656   */\n    tag_212:\n        /* \"#utility.yul\":4432:4435   */\n      0x00\n        /* \"#utility.yul\":4453:4520   */\n      tag_214\n        /* \"#utility.yul\":4517:4519   */\n      0x18\n        /* \"#utility.yul\":4512:4515   */\n      dup4\n        /* \"#utility.yul\":4453:4520   */\n      tag_189\n      jump\t// in\n    tag_214:\n        /* \"#utility.yul\":4446:4520   */\n      swap2\n      pop\n        /* \"#utility.yul\":4529:4622   */\n      tag_215\n        /* \"#utility.yul\":4618:4621   */\n      dup3\n        /* \"#utility.yul\":4529:4622   */\n      tag_216\n      jump\t// in\n    tag_215:\n        /* \"#utility.yul\":4647:4649   */\n      0x20\n        /* \"#utility.yul\":4642:4645   */\n      dup3\n        /* \"#utility.yul\":4638:4650   */\n      add\n        /* \"#utility.yul\":4631:4650   */\n      swap1\n      pop\n        /* \"#utility.yul\":4290:4656   */\n      swap2\n      swap1\n      pop\n      jump\t// out\n        /* \"#utility.yul\":4662:4819   */\n    tag_217:\n        /* \"#utility.yul\":4767:4812   */\n      tag_219\n        /* \"#utility.yul\":4787:4811   */\n      tag_220\n        /* \"#utility.yul\":4805:4810   */\n      dup3\n        /* \"#utility.yul\":4787:4811   */\n      tag_221\n      jump\t// in\n    tag_220:\n        /* \"#utility.yul\":4767:4812   */\n      tag_222\n      jump\t// in\n    tag_219:\n        /* \"#utility.yul\":4762:4765   */\n      dup3\n        /* \"#utility.yul\":4755:4813   */\n      mstore\n        /* \"#utility.yul\":4662:4819   */\n      pop\n      pop\n      jump\t// out\n        /* \"#utility.yul\":4825:5363   */\n    tag_45:\n        /* \"#utility.yul\":4993:4996   */\n      0x00\n        /* \"#utility.yul\":5008:5083   */\n      tag_224\n        /* \"#utility.yul\":5079:5082   */\n      dup3\n        /* \"#utility.yul\":5070:5076   */\n      dup7\n        /* \"#utility.yul\":5008:5083   */\n      tag_217\n      jump\t// in\n    tag_224:\n        /* \"#utility.yul\":5108:5110   */\n      0x20\n        /* \"#utility.yul\":5103:5106   */\n      dup3\n        /* \"#utility.yul\":5099:5111   */\n      add\n        /* \"#utility.yul\":5092:5111   */\n      swap2\n      pop\n        /* \"#utility.yul\":5121:5196   */\n      tag_225\n        /* \"#utility.yul\":5192:5195   */\n      dup3\n        /* \"#utility.yul\":5183:5189   */\n      dup6\n        /* \"#utility.yul\":5121:5196   */\n      tag_177\n      jump\t// in\n    tag_225:\n        /* \"#utility.yul\":5221:5223   */\n      0x20\n        /* \"#utility.yul\":5216:5219   */\n      dup3\n        /* \"#utility.yul\":5212:5224   */\n      add\n        /* \"#utility.yul\":5205:5224   */\n      swap2\n      pop\n        /* \"#utility.yul\":5234:5309   */\n      tag_226\n        /* \"#utility.yul\":5305:5308   */\n      dup3\n        /* \"#utility.yul\":5296:5302   */\n      dup5\n        /* \"#utility.yul\":5234:5309   */\n      tag_164\n      jump\t// in\n    tag_226:\n        /* \"#utility.yul\":5334:5336   */\n      0x14\n        /* \"#utility.yul\":5329:5332   */\n      dup3\n        /* \"#utility.yul\":5325:5337   */\n      add\n        /* \"#utility.yul\":5318:5337   */\n      swap2\n      pop\n        /* \"#utility.yul\":5354:5357   */\n      dup2\n        /* \"#utility.yul\":5347:5357   */\n      swap1\n      pop\n        /* \"#utility.yul\":4825:5363   */\n      swap5\n      swap4\n      pop\n      pop\n      pop\n      pop\n      jump\t// out\n        /* \"#utility.yul\":5369:5591   */\n    tag_62:\n        /* \"#utility.yul\":5462:5466   */\n      0x00\n        /* \"#utility.yul\":5500:5502   */\n      0x20\n        /* \"#utility.yul\":5489:5498   */\n      dup3\n        /* \"#utility.yul\":5485:5503   */\n      add\n        /* \"#utility.yul\":5477:5503   */\n      swap1\n      pop\n        /* \"#utility.yul\":5513:5584   */\n      tag_228\n        /* \"#utility.yul\":5581:5582   */\n      0x00\n        /* \"#utility.yul\":5570:5579   */\n      dup4\n        /* \"#utility.yul\":5566:5583   */\n      add\n        /* \"#utility.yul\":5557:5563   */\n      dup5\n        /* \"#utility.yul\":5513:5584   */\n      tag_160\n      jump\t// in\n    tag_228:\n        /* \"#utility.yul\":5369:5591   */\n      swap3\n      swap2\n      pop\n      pop\n      jump\t// out\n        /* \"#utility.yul\":5597:5929   */\n    tag_73:\n        /* \"#utility.yul\":5718:5722   */\n      0x00\n        /* \"#utility.yul\":5756:5758   */\n      0x40\n        /* \"#utility.yul\":5745:5754   */\n      dup3\n        /* \"#utility.yul\":5741:5759   */\n      add\n        /* \"#utility.yul\":5733:5759   */\n      swap1\n      pop\n        /* \"#utility.yul\":5769:5840   */\n      tag_230\n        /* \"#utility.yul\":5837:5838   */\n      0x00\n        /* \"#utility.yul\":5826:5835   */\n      dup4\n        /* \"#utility.yul\":5822:5839   */\n      add\n        /* \"#utility.yul\":5813:5819   */\n      dup6\n        /* \"#utility.yul\":5769:5840   */\n      tag_160\n      jump\t// in\n    tag_230:\n        /* \"#utility.yul\":5850:5922   */\n      tag_231\n        /* \"#utility.yul\":5918:5920   */\n      0x20\n        /* \"#utility.yul\":5907:5916   */\n      dup4\n        /* \"#utility.yul\":5903:5921   */\n      add\n        /* \"#utility.yul\":5894:5900   */\n      dup5\n        /* \"#utility.yul\":5850:5922   */\n      tag_173\n      jump\t// in\n    tag_231:\n        /* \"#utility.yul\":5597:5929   */\n      swap4\n      swap3\n      pop\n      pop\n      pop\n      jump\t// out\n        /* \"#utility.yul\":5935:6279   */\n    tag_55:\n        /* \"#utility.yul\":6062:6066   */\n      0x00\n        /* \"#utility.yul\":6100:6102   */\n      0x40\n        /* \"#utility.yul\":6089:6098   */\n      dup3\n        /* \"#utility.yul\":6085:6103   */\n      add\n        /* \"#utility.yul\":6077:6103   */\n      swap1\n      pop\n        /* \"#utility.yul\":6113:6184   */\n      tag_233\n        /* \"#utility.yul\":6181:6182   */\n      0x00\n        /* \"#utility.yul\":6170:6179   */\n      dup4\n        /* \"#utility.yul\":6166:6183   */\n      add\n        /* \"#utility.yul\":6157:6163   */\n      dup6\n        /* \"#utility.yul\":6113:6184   */\n      tag_160\n      jump\t// in\n    tag_233:\n        /* \"#utility.yul\":6194:6272   */\n      tag_234\n        /* \"#utility.yul\":6268:6270   */\n      0x20\n        /* \"#utility.yul\":6257:6266   */\n      dup4\n        /* \"#utility.yul\":6253:6271   */\n      add\n        /* \"#utility.yul\":6244:6250   */\n      dup5\n        /* \"#utility.yul\":6194:6272   */\n      tag_182\n      jump\t// in\n    tag_234:\n        /* \"#utility.yul\":5935:6279   */\n      swap4\n      swap3\n      pop\n      pop\n      pop\n      jump\t// out\n        /* \"#utility.yul\":6285:6495   */\n    tag_22:\n        /* \"#utility.yul\":6372:6376   */\n      0x00\n        /* \"#utility.yul\":6410:6412   */\n      0x20\n        /* \"#utility.yul\":6399:6408   */\n      dup3\n        /* \"#utility.yul\":6395:6413   */\n      add\n        /* \"#utility.yul\":6387:6413   */\n      swap1\n      pop\n        /* \"#utility.yul\":6423:6488   */\n      tag_236\n        /* \"#utility.yul\":6485:6486   */\n      0x00\n        /* \"#utility.yul\":6474:6483   */\n      dup4\n        /* \"#utility.yul\":6470:6487   */\n      add\n        /* \"#utility.yul\":6461:6467   */\n      dup5\n        /* \"#utility.yul\":6423:6488   */\n      tag_169\n      jump\t// in\n    tag_236:\n        /* \"#utility.yul\":6285:6495   */\n      swap3\n      swap2\n      pop\n      pop\n      jump\t// out\n        /* \"#utility.yul\":6501:6723   */\n    tag_13:\n        /* \"#utility.yul\":6594:6598   */\n      0x00\n        /* \"#utility.yul\":6632:6634   */\n      0x20\n        /* \"#utility.yul\":6621:6630   */\n      dup3\n        /* \"#utility.yul\":6617:6635   */\n      add\n        /* \"#utility.yul\":6609:6635   */\n      swap1\n      pop\n        /* \"#utility.yul\":6645:6716   */\n      tag_238\n        /* \"#utility.yul\":6713:6714   */\n      0x00\n        /* \"#utility.yul\":6702:6711   */\n      dup4\n        /* \"#utility.yul\":6698:6715   */\n      add\n        /* \"#utility.yul\":6689:6695   */\n      dup5\n        /* \"#utility.yul\":6645:6716   */\n      tag_173\n      jump\t// in\n    tag_238:\n        /* \"#utility.yul\":6501:6723   */\n      swap3\n      swap2\n      pop\n      pop\n      jump\t// out\n        /* \"#utility.yul\":6729:6963   */\n    tag_18:\n        /* \"#utility.yul\":6828:6832   */\n      0x00\n        /* \"#utility.yul\":6866:6868   */\n      0x20\n        /* \"#utility.yul\":6855:6864   */\n      dup3\n        /* \"#utility.yul\":6851:6869   */\n      add\n        /* \"#utility.yul\":6843:6869   */\n      swap1\n      pop\n        /* \"#utility.yul\":6879:6956   */\n      tag_240\n        /* \"#utility.yul\":6953:6954   */\n      0x00\n        /* \"#utility.yul\":6942:6951   */\n      dup4\n        /* \"#utility.yul\":6938:6955   */\n      add\n        /* \"#utility.yul\":6929:6935   */\n      dup5\n        /* \"#utility.yul\":6879:6956   */\n      tag_182\n      jump\t// in\n    tag_240:\n        /* \"#utility.yul\":6729:6963   */\n      swap3\n      swap2\n      pop\n      pop\n      jump\t// out\n        /* \"#utility.yul\":6969:7388   */\n    tag_66:\n        /* \"#utility.yul\":7135:7139   */\n      0x00\n        /* \"#utility.yul\":7173:7175   */\n      0x20\n        /* \"#utility.yul\":7162:7171   */\n      dup3\n        /* \"#utility.yul\":7158:7176   */\n      add\n        /* \"#utility.yul\":7150:7176   */\n      swap1\n      pop\n        /* \"#utility.yul\":7222:7231   */\n      dup2\n        /* \"#utility.yul\":7216:7220   */\n      dup2\n        /* \"#utility.yul\":7212:7232   */\n      sub\n        /* \"#utility.yul\":7208:7209   */\n      0x00\n        /* \"#utility.yul\":7197:7206   */\n      dup4\n        /* \"#utility.yul\":7193:7210   */\n      add\n        /* \"#utility.yul\":7186:7233   */\n      mstore\n        /* \"#utility.yul\":7250:7381   */\n      tag_242\n        /* \"#utility.yul\":7376:7380   */\n      dup2\n        /* \"#utility.yul\":7250:7381   */\n      tag_186\n      jump\t// in\n    tag_242:\n        /* \"#utility.yul\":7242:7381   */\n      swap1\n      pop\n        /* \"#utility.yul\":6969:7388   */\n      swap2\n      swap1\n      pop\n      jump\t// out\n        /* \"#utility.yul\":7394:7813   */\n    tag_70:\n        /* \"#utility.yul\":7560:7564   */\n      0x00\n        /* \"#utility.yul\":7598:7600   */\n      0x20\n        /* \"#utility.yul\":7587:7596   */\n      dup3\n        /* \"#utility.yul\":7583:7601   */\n      add\n        /* \"#utility.yul\":7575:7601   */\n      swap1\n      pop\n        /* \"#utility.yul\":7647:7656   */\n      dup2\n        /* \"#utility.yul\":7641:7645   */\n      dup2\n        /* \"#utility.yul\":7637:7657   */\n      sub\n        /* \"#utility.yul\":7633:7634   */\n      0x00\n        /* \"#utility.yul\":7622:7631   */\n      dup4\n        /* \"#utility.yul\":7618:7635   */\n      add\n        /* \"#utility.yul\":7611:7658   */\n      mstore\n        /* \"#utility.yul\":7675:7806   */\n      tag_244\n        /* \"#utility.yul\":7801:7805   */\n      dup2\n        /* \"#utility.yul\":7675:7806   */\n      tag_192\n      jump\t// in\n    tag_244:\n        /* \"#utility.yul\":7667:7806   */\n      swap1\n      pop\n        /* \"#utility.yul\":7394:7813   */\n      swap2\n      swap1\n      pop\n      jump\t// out\n        /* \"#utility.yul\":7819:8238   */\n    tag_34:\n        /* \"#utility.yul\":7985:7989   */\n      0x00\n        /* \"#utility.yul\":8023:8025   */\n      0x20\n        /* \"#utility.yul\":8012:8021   */\n      dup3\n        /* \"#utility.yul\":8008:8026   */\n      add\n        /* \"#utility.yul\":8000:8026   */\n      swap1\n      pop\n        /* \"#utility.yul\":8072:8081   */\n      dup2\n        /* \"#utility.yul\":8066:8070   */\n      dup2\n        /* \"#utility.yul\":8062:8082   */\n      sub\n        /* \"#utility.yul\":8058:8059   */\n      0x00\n        /* \"#utility.yul\":8047:8056   */\n      dup4\n        /* \"#utility.yul\":8043:8060   */\n      add\n        /* \"#utility.yul\":8036:8083   */\n      mstore\n        /* \"#utility.yul\":8100:8231   */\n      tag_246\n        /* \"#utility.yul\":8226:8230   */\n      dup2\n        /* \"#utility.yul\":8100:8231   */\n      tag_197\n      jump\t// in\n    tag_246:\n        /* \"#utility.yul\":8092:8231   */\n      swap1\n      pop\n        /* \"#utility.yul\":7819:8238   */\n      swap2\n      swap1\n      pop\n      jump\t// out\n        /* \"#utility.yul\":8244:8663   */\n    tag_48:\n        /* \"#utility.yul\":8410:8414   */\n      0x00\n        /* \"#utility.yul\":8448:8450   */\n      0x20\n        /* \"#utility.yul\":8437:8446   */\n      dup3\n        /* \"#utility.yul\":8433:8451   */\n      add\n        /* \"#utility.yul\":8425:8451   */\n      swap1\n      pop\n        /* \"#utility.yul\":8497:8506   */\n      dup2\n        /* \"#utility.yul\":8491:8495   */\n      dup2\n        /* \"#utility.yul\":8487:8507   */\n      sub\n        /* \"#utility.yul\":8483:8484   */\n      0x00\n        /* \"#utility.yul\":8472:8481   */\n      dup4\n        /* \"#utility.yul\":8468:8485   */\n      add\n        /* \"#utility.yul\":8461:8508   */\n      mstore\n        /* \"#utility.yul\":8525:8656   */\n      tag_248\n        /* \"#utility.yul\":8651:8655   */\n      dup2\n        /* \"#utility.yul\":8525:8656   */\n      tag_202\n      jump\t// in\n    tag_248:\n        /* \"#utility.yul\":8517:8656   */\n      swap1\n      pop\n        /* \"#utility.yul\":8244:8663   */\n      swap2\n      swap1\n      pop\n      jump\t// out\n        /* \"#utility.yul\":8669:9088   */\n    tag_43:\n        /* \"#utility.yul\":8835:8839   */\n      0x00\n        /* \"#utility.yul\":8873:8875   */\n      0x20\n        /* \"#utility.yul\":8862:8871   */\n      dup3\n        /* \"#utility.yul\":8858:8876   */\n      add\n        /* \"#utility.yul\":8850:8876   */\n      swap1\n      pop\n        /* \"#utility.yul\":8922:8931   */\n      dup2\n        /* \"#utility.yul\":8916:8920   */\n      dup2\n        /* \"#utility.yul\":8912:8932   */\n      sub\n        /* \"#utility.yul\":8908:8909   */\n      0x00\n        /* \"#utility.yul\":8897:8906   */\n      dup4\n        /* \"#utility.yul\":8893:8910   */\n      add\n        /* \"#utility.yul\":8886:8933   */\n      mstore\n        /* \"#utility.yul\":8950:9081   */\n      tag_250\n        /* \"#utility.yul\":9076:9080   */\n      dup2\n        /* \"#utility.yul\":8950:9081   */\n      tag_207\n      jump\t// in\n    tag_250:\n        /* \"#utility.yul\":8942:9081   */\n      swap1\n      pop\n        /* \"#utility.yul\":8669:9088   */\n      swap2\n      swap1\n      pop\n      jump\t// out\n        /* \"#utility.yul\":9094:9513   */\n    tag_82:\n        /* \"#utility.yul\":9260:9264   */\n      0x00\n        /* \"#utility.yul\":9298:9300   */\n      0x20\n        /* \"#utility.yul\":9287:9296   */\n      dup3\n        /* \"#utility.yul\":9283:9301   */\n      add\n        /* \"#utility.yul\":9275:9301   */\n      swap1\n      pop\n        /* \"#utility.yul\":9347:9356   */\n      dup2\n        /* \"#utility.yul\":9341:9345   */\n      dup2\n        /* \"#utility.yul\":9337:9357   */\n      sub\n        /* \"#utility.yul\":9333:9334   */\n      0x00\n        /* \"#utility.yul\":9322:9331   */\n      dup4\n        /* \"#utility.yul\":9318:9335   */\n      add\n        /* \"#utility.yul\":9311:9358   */\n      mstore\n        /* \"#utility.yul\":9375:9506   */\n      tag_252\n        /* \"#utility.yul\":9501:9505   */\n      dup2\n        /* \"#utility.yul\":9375:9506   */\n      tag_212\n      jump\t// in\n    tag_252:\n        /* \"#utility.yul\":9367:9506   */\n      swap1\n      pop\n        /* \"#utility.yul\":9094:9513   */\n      swap2\n      swap1\n      pop\n      jump\t// out\n        /* \"#utility.yul\":9600:9769   */\n    tag_189:\n        /* \"#utility.yul\":9684:9695   */\n      0x00\n        /* \"#utility.yul\":9718:9724   */\n      dup3\n        /* \"#utility.yul\":9713:9716   */\n      dup3\n        /* \"#utility.yul\":9706:9725   */\n      mstore\n        /* \"#utility.yul\":9758:9762   */\n      0x20\n        /* \"#utility.yul\":9753:9756   */\n      dup3\n        /* \"#utility.yul\":9749:9763   */\n      add\n        /* \"#utility.yul\":9734:9763   */\n      swap1\n      pop\n        /* \"#utility.yul\":9600:9769   */\n      swap3\n      swap2\n      pop\n      pop\n      jump\t// out\n        /* \"#utility.yul\":9775:9871   */\n    tag_163:\n        /* \"#utility.yul\":9812:9819   */\n      0x00\n        /* \"#utility.yul\":9841:9865   */\n      tag_257\n        /* \"#utility.yul\":9859:9864   */\n      dup3\n        /* \"#utility.yul\":9841:9865   */\n      tag_258\n      jump\t// in\n    tag_257:\n        /* \"#utility.yul\":9830:9865   */\n      swap1\n      pop\n        /* \"#utility.yul\":9775:9871   */\n      swap2\n      swap1\n      pop\n      jump\t// out\n        /* \"#utility.yul\":9877:9967   */\n    tag_172:\n        /* \"#utility.yul\":9911:9918   */\n      0x00\n        /* \"#utility.yul\":9954:9959   */\n      dup2\n        /* \"#utility.yul\":9947:9960   */\n      iszero\n        /* \"#utility.yul\":9940:9961   */\n      iszero\n        /* \"#utility.yul\":9929:9961   */\n      swap1\n      pop\n        /* \"#utility.yul\":9877:9967   */\n      swap2\n      swap1\n      pop\n      jump\t// out\n        /* \"#utility.yul\":9973:10050   */\n    tag_176:\n        /* \"#utility.yul\":10010:10017   */\n      0x00\n        /* \"#utility.yul\":10039:10044   */\n      dup2\n        /* \"#utility.yul\":10028:10044   */\n      swap1\n      pop\n        /* \"#utility.yul\":9973:10050   */\n      swap2\n      swap1\n      pop\n      jump\t// out\n        /* \"#utility.yul\":10056:10183   */\n    tag_261:\n        /* \"#utility.yul\":10101:10108   */\n      0x00\n        /* \"#utility.yul\":10130:10135   */\n      dup2\n        /* \"#utility.yul\":10119:10135   */\n      swap1\n      pop\n        /* \"#utility.yul\":10136:10177   */\n      tag_263\n        /* \"#utility.yul\":10171:10176   */\n      dup3\n        /* \"#utility.yul\":10136:10177   */\n      tag_264\n      jump\t// in\n    tag_263:\n        /* \"#utility.yul\":10056:10183   */\n      swap2\n      swap1\n      pop\n      jump\t// out\n        /* \"#utility.yul\":10189:10315   */\n    tag_258:\n        /* \"#utility.yul\":10226:10233   */\n      0x00\n        /* \"#utility.yul\":10266:10308   */\n      0xffffffffffffffffffffffffffffffffffffffff\n        /* \"#utility.yul\":10259:10264   */\n      dup3\n        /* \"#utility.yul\":10255:10309   */\n      and\n        /* \"#utility.yul\":10244:10309   */\n      swap1\n      pop\n        /* \"#utility.yul\":10189:10315   */\n      swap2\n      swap1\n      pop\n      jump\t// out\n        /* \"#utility.yul\":10321:10398   */\n    tag_221:\n        /* \"#utility.yul\":10358:10365   */\n      0x00\n        /* \"#utility.yul\":10387:10392   */\n      dup2\n        /* \"#utility.yul\":10376:10392   */\n      swap1\n      pop\n        /* \"#utility.yul\":10321:10398   */\n      swap2\n      swap1\n      pop\n      jump\t// out\n        /* \"#utility.yul\":10404:10531   */\n    tag_185:\n        /* \"#utility.yul\":10460:10469   */\n      0x00\n        /* \"#utility.yul\":10493:10525   */\n      tag_268\n        /* \"#utility.yul\":10519:10524   */\n      dup3\n        /* \"#utility.yul\":10493:10525   */\n      tag_261\n      jump\t// in\n    tag_268:\n        /* \"#utility.yul\":10480:10525   */\n      swap1\n      pop\n        /* \"#utility.yul\":10404:10531   */\n      swap2\n      swap1\n      pop\n      jump\t// out\n        /* \"#utility.yul\":10537:10770   */\n    tag_57:\n        /* \"#utility.yul\":10576:10579   */\n      0x00\n        /* \"#utility.yul\":10599:10623   */\n      tag_270\n        /* \"#utility.yul\":10617:10622   */\n      dup3\n        /* \"#utility.yul\":10599:10623   */\n      tag_221\n      jump\t// in\n    tag_270:\n        /* \"#utility.yul\":10590:10623   */\n      swap2\n      pop\n        /* \"#utility.yul\":10645:10711   */\n      0xffffffffffffffffffffffffffffffffffffffffffffffffffffffffffffffff\n        /* \"#utility.yul\":10638:10643   */\n      dup3\n        /* \"#utility.yul\":10635:10712   */\n      eq\n        /* \"#utility.yul\":10632:10735   */\n      iszero\n      tag_271\n      jumpi\n        /* \"#utility.yul\":10715:10733   */\n      tag_272\n      tag_273\n      jump\t// in\n    tag_272:\n        /* \"#utility.yul\":10632:10735   */\n    tag_271:\n        /* \"#utility.yul\":10762:10763   */\n      0x01\n        /* \"#utility.yul\":10755:10760   */\n      dup3\n        /* \"#utility.yul\":10751:10764   */\n      add\n        /* \"#utility.yul\":10744:10764   */\n      swap1\n      pop\n        /* \"#utility.yul\":10537:10770   */\n      swap2\n      swap1\n      pop\n      jump\t// out\n        /* \"#utility.yul\":10776:10876   */\n    tag_168:\n        /* \"#utility.yul\":10815:10822   */\n      0x00\n        /* \"#utility.yul\":10844:10870   */\n      tag_275\n        /* \"#utility.yul\":10864:10869   */\n      dup3\n        /* \"#utility.yul\":10844:10870   */\n      tag_276\n      jump\t// in\n    tag_275:\n        /* \"#utility.yul\":10833:10870   */\n      swap1\n      pop\n        /* \"#utility.yul\":10776:10876   */\n      swap2\n      swap1\n      pop\n      jump\t// out\n        /* \"#utility.yul\":10882:10961   */\n    tag_181:\n        /* \"#utility.yul\":10921:10928   */\n      0x00\n        /* \"#utility.yul\":10950:10955   */\n      dup2\n        /* \"#utility.yul\":10939:10955   */\n      swap1\n      pop\n        /* \"#utility.yul\":10882:10961   */\n      swap2\n      swap1\n      pop\n      jump\t// out\n        /* \"#utility.yul\":10967:11061   */\n    tag_276:\n        /* \"#utility.yul\":11006:11013   */\n      0x00\n        /* \"#utility.yul\":11035:11055   */\n      tag_279\n        /* \"#utility.yul\":11049:11054   */\n      dup3\n        /* \"#utility.yul\":11035:11055   */\n      tag_280\n      jump\t// in\n    tag_279:\n        /* \"#utility.yul\":11024:11055   */\n      swap1\n      pop\n        /* \"#utility.yul\":10967:11061   */\n      swap2\n      swap1\n      pop\n      jump\t// out\n        /* \"#utility.yul\":11067:11146   */\n    tag_222:\n        /* \"#utility.yul\":11106:11113   */\n      0x00\n        /* \"#utility.yul\":11135:11140   */\n      dup2\n        /* \"#utility.yul\":11124:11140   */\n      swap1\n      pop\n        /* \"#utility.yul\":11067:11146   */\n      swap2\n      swap1\n      pop\n      jump\t// out\n        /* \"#utility.yul\":11152:11332   */\n    tag_273:\n        /* \"#utility.yul\":11200:11277   */\n      0x4e487b7100000000000000000000000000000000000000000000000000000000\n        /* \"#utility.yul\":11197:11198   */\n      0x00\n        /* \"#utility.yul\":11190:11278   */\n      mstore\n        /* \"#utility.yul\":11297:11301   */\n      0x11\n        /* \"#utility.yul\":11294:11295   */\n      0x04\n        /* \"#utility.yul\":11287:11302   */\n      mstore\n        /* \"#utility.yul\":11321:11325   */\n      0x24\n        /* \"#utility.yul\":11318:11319   */\n      0x00\n        /* \"#utility.yul\":11311:11326   */\n      revert\n        /* \"#utility.yul\":11338:11518   */\n    tag_38:\n        /* \"#utility.yul\":11386:11463   */\n      0x4e487b7100000000000000000000000000000000000000000000000000000000\n        /* \"#utility.yul\":11383:11384   */\n      0x00\n        /* \"#utility.yul\":11376:11464   */\n      mstore\n        /* \"#utility.yul\":11483:11487   */\n      0x21\n        /* \"#utility.yul\":11480:11481   */\n      0x04\n        /* \"#utility.yul\":11473:11488   */\n      mstore\n        /* \"#utility.yul\":11507:11511   */\n      0x24\n        /* \"#utility.yul\":11504:11505   */\n      0x00\n        /* \"#utility.yul\":11497:11512   */\n      revert\n        /* \"#utility.yul\":11524:11704   */\n    tag_86:\n        /* \"#utility.yul\":11572:11649   */\n      0x4e487b7100000000000000000000000000000000000000000000000000000000\n        /* \"#utility.yul\":11569:11570   */\n      0x00\n        /* \"#utility.yul\":11562:11650   */\n      mstore\n        /* \"#utility.yul\":11669:11673   */\n      0x32\n        /* \"#utility.yul\":11666:11667   */\n      0x04\n        /* \"#utility.yul\":11659:11674   */\n      mstore\n        /* \"#utility.yul\":11693:11697   */\n      0x24\n        /* \"#utility.yul\":11690:11691   */\n      0x00\n        /* \"#utility.yul\":11683:11698   */\n      revert\n        /* \"#utility.yul\":11833:11950   */\n    tag_149:\n        /* \"#utility.yul\":11942:11943   */\n      0x00\n        /* \"#utility.yul\":11939:11940   */\n      dup1\n        /* \"#utility.yul\":11932:11944   */\n      revert\n        /* \"#utility.yul\":11956:12050   */\n    tag_280:\n        /* \"#utility.yul\":11989:11997   */\n      0x00\n        /* \"#utility.yul\":12037:12042   */\n      dup2\n        /* \"#utility.yul\":12033:12035   */\n      0x60\n        /* \"#utility.yul\":12029:12043   */\n      shl\n        /* \"#utility.yul\":12008:12043   */\n      swap1\n      pop\n        /* \"#utility.yul\":11956:12050   */\n      swap2\n      swap1\n      pop\n      jump\t// out\n        /* \"#utility.yul\":12056:12236   */\n    tag_191:\n        /* \"#utility.yul\":12196:12228   */\n      0x43686f6f736520737461676520616c72656164792066696e6973686564210000\n        /* \"#utility.yul\":12192:12193   */\n      0x00\n        /* \"#utility.yul\":12184:12190   */\n      dup3\n        /* \"#utility.yul\":12180:12194   */\n      add\n        /* \"#utility.yul\":12173:12229   */\n      mstore\n        /* \"#utility.yul\":12056:12236   */\n      pop\n      jump\t// out\n        /* \"#utility.yul\":12242:12418   */\n    tag_196:\n        /* \"#utility.yul\":12382:12410   */\n      0x596f7520616c7265616479206d61646520612063686f69636521000000000000\n        /* \"#utility.yul\":12378:12379   */\n      0x00\n        /* \"#utility.yul\":12370:12376   */\n      dup3\n        /* \"#utility.yul\":12366:12380   */\n      add\n        /* \"#utility.yul\":12359:12411   */\n      mstore\n        /* \"#utility.yul\":12242:12418   */\n      pop\n      jump\t// out\n        /* \"#utility.yul\":12424:12645   */\n    tag_201:\n        /* \"#utility.yul\":12564:12598   */\n      0x43686f6f736520737461676520686176656e27742066696e6973686564207965\n        /* \"#utility.yul\":12560:12561   */\n      0x00\n        /* \"#utility.yul\":12552:12558   */\n      dup3\n        /* \"#utility.yul\":12548:12562   */\n      add\n        /* \"#utility.yul\":12541:12599   */\n      mstore\n        /* \"#utility.yul\":12633:12637   */\n      0x7421000000000000000000000000000000000000000000000000000000000000\n        /* \"#utility.yul\":12628:12630   */\n      0x20\n        /* \"#utility.yul\":12620:12626   */\n      dup3\n        /* \"#utility.yul\":12616:12631   */\n      add\n        /* \"#utility.yul\":12609:12638   */\n      mstore\n        /* \"#utility.yul\":12424:12645   */\n      pop\n      jump\t// out\n        /* \"#utility.yul\":12651:12878   */\n    tag_206:\n        /* \"#utility.yul\":12791:12825   */\n      0x43686f69636520697320646566666572732066726f6d207768617420796f7520\n        /* \"#utility.yul\":12787:12788   */\n      0x00\n        /* \"#utility.yul\":12779:12785   */\n      dup3\n        /* \"#utility.yul\":12775:12789   */\n      add\n        /* \"#utility.yul\":12768:12826   */\n      mstore\n        /* \"#utility.yul\":12860:12870   */\n      0x63686f6f73656421000000000000000000000000000000000000000000000000\n        /* \"#utility.yul\":12855:12857   */\n      0x20\n        /* \"#utility.yul\":12847:12853   */\n      dup3\n        /* \"#utility.yul\":12843:12858   */\n      add\n        /* \"#utility.yul\":12836:12871   */\n      mstore\n        /* \"#utility.yul\":12651:12878   */\n      pop\n      jump\t// out\n        /* \"#utility.yul\":12884:13104   */\n    tag_211:\n        /* \"#utility.yul\":13024:13058   */\n      0x596f7520616c72656164792072657665616c656420796f75722063686f696365\n        /* \"#utility.yul\":13020:13021   */\n      0x00\n        /* \"#utility.yul\":13012:13018   */\n      dup3\n        /* \"#utility.yul\":13008:13022   */\n      add\n        /* \"#utility.yul\":13001:13059   */\n      mstore\n        /* \"#utility.yul\":13093:13096   */\n      0x2100000000000000000000000000000000000000000000000000000000000000\n        /* \"#utility.yul\":13088:13090   */\n      0x20\n        /* \"#utility.yul\":13080:13086   */\n      dup3\n        /* \"#utility.yul\":13076:13091   */\n      add\n        /* \"#utility.yul\":13069:13097   */\n      mstore\n        /* \"#utility.yul\":12884:13104   */\n      pop\n      jump\t// out\n        /* \"#utility.yul\":13110:13284   */\n    tag_216:\n        /* \"#utility.yul\":13250:13276   */\n      0x496e636f72726563742063686f696365206e756d626572210000000000000000\n        /* \"#utility.yul\":13246:13247   */\n      0x00\n        /* \"#utility.yul\":13238:13244   */\n      dup3\n        /* \"#utility.yul\":13234:13248   */\n      add\n        /* \"#utility.yul\":13227:13277   */\n      mstore\n        /* \"#utility.yul\":13110:13284   */\n      pop\n      jump\t// out\n        /* \"#utility.yul\":13290:13403   */\n    tag_264:\n        /* \"#utility.yul\":13371:13372   */\n      0x04\n        /* \"#utility.yul\":13364:13369   */\n      dup2\n        /* \"#utility.yul\":13361:13373   */\n      lt\n        /* \"#utility.yul\":13351:13397   */\n      tag_296\n      jumpi\n        /* \"#utility.yul\":13377:13395   */\n      tag_297\n      tag_38\n      jump\t// in\n    tag_297:\n        /* \"#utility.yul\":13351:13397   */\n    tag_296:\n        /* \"#utility.yul\":13290:13403   */\n      pop\n      jump\t// out\n        /* \"#utility.yul\":13409:13531   */\n    tag_137:\n        /* \"#utility.yul\":13482:13506   */\n      tag_299\n        /* \"#utility.yul\":13500:13505   */\n      dup2\n        /* \"#utility.yul\":13482:13506   */\n      tag_163\n      jump\t// in\n    tag_299:\n        /* \"#utility.yul\":13475:13480   */\n      dup2\n        /* \"#utility.yul\":13472:13507   */\n      eq\n        /* \"#utility.yul\":13462:13525   */\n      tag_300\n      jumpi\n        /* \"#utility.yul\":13521:13522   */\n      0x00\n        /* \"#utility.yul\":13518:13519   */\n      dup1\n        /* \"#utility.yul\":13511:13523   */\n      revert\n        /* \"#utility.yul\":13462:13525   */\n    tag_300:\n        /* \"#utility.yul\":13409:13531   */\n      pop\n      jump\t// out\n        /* \"#utility.yul\":13537:13659   */\n    tag_141:\n        /* \"#utility.yul\":13610:13634   */\n      tag_302\n        /* \"#utility.yul\":13628:13633   */\n      dup2\n        /* \"#utility.yul\":13610:13634   */\n      tag_176\n      jump\t// in\n    tag_302:\n        /* \"#utility.yul\":13603:13608   */\n      dup2\n        /* \"#utility.yul\":13600:13635   */\n      eq\n        /* \"#utility.yul\":13590:13653   */\n      tag_303\n      jumpi\n        /* \"#utility.yul\":13649:13650   */\n      0x00\n        /* \"#utility.yul\":13646:13647   */\n      dup1\n        /* \"#utility.yul\":13639:13651   */\n      revert\n        /* \"#utility.yul\":13590:13653   */\n    tag_303:\n        /* \"#utility.yul\":13537:13659   */\n      pop\n      jump\t// out\n        /* \"#utility.yul\":13665:13787   */\n    tag_145:\n        /* \"#utility.yul\":13738:13762   */\n      tag_305\n        /* \"#utility.yul\":13756:13761   */\n      dup2\n        /* \"#utility.yul\":13738:13762   */\n      tag_221\n      jump\t// in\n    tag_305:\n        /* \"#utility.yul\":13731:13736   */\n      dup2\n        /* \"#utility.yul\":13728:13763   */\n      eq\n        /* \"#utility.yul\":13718:13781   */\n      tag_306\n      jumpi\n        /* \"#utility.yul\":13777:13778   */\n      0x00\n        /* \"#utility.yul\":13774:13775   */\n      dup1\n        /* \"#utility.yul\":13767:13779   */\n      revert\n        /* \"#utility.yul\":13718:13781   */\n    tag_306:\n        /* \"#utility.yul\":13665:13787   */\n      pop\n      jump\t// out\n\n    auxdata: 0xa2646970667358221220077a11b583cedc61e99ed5e3dc9a40eb3469b64123666daeb1f7063799ed50bd64736f6c63430008070033\n}\n",
				"bytecode": {
					"linkReferences": {},
					"object": "608060405234801561001057600080fd5b5060018060146101000a81548160ff02191690831515021790555061118e8061003a6000396000f3fe608060405234801561001057600080fd5b50600436106100575760003560e01c8063410346b31461005c578063a3b990891461008c578063aa00daf1146100bc578063c1d5383c146100da578063fce55812146100f6575b600080fd5b61007660048036038101906100719190610a47565b610112565b6040516100839190610cf9565b60405180910390f35b6100a660048036038101906100a19190610a47565b61012a565b6040516100b39190610d14565b60405180910390f35b6100c461014a565b6040516100d19190610cde565b60405180910390f35b6100f460048036038101906100ef9190610aa1565b61015d565b005b610110600480360381019061010b9190610a74565b610444565b005b60026020528060005260406000206000915090505481565b60046020528060005260406000206000915054906101000a900460ff1681565b600160149054906101000a900460ff1681565b600160149054906101000a900460ff16156101ad576040517f08c379a00000000000000000000000000000000000000000000000000000000081526004016101a490610d6f565b60405180910390fd5b600060038111156101c1576101c0610f27565b5b600460003373ffffffffffffffffffffffffffffffffffffffff1673ffffffffffffffffffffffffffffffffffffffff16815260200190815260200160002060009054906101000a900460ff1660038111156102205761021f610f27565b5b14610260576040517f08c379a000000000000000000000000000000000000000000000000000000000815260040161025790610daf565b60405180910390fd5b600260003373ffffffffffffffffffffffffffffffffffffffff1673ffffffffffffffffffffffffffffffffffffffff168152602001908152602001600020548282336040516020016102b593929190610c34565b604051602081830303815290604052805190602001201461030b576040517f08c379a000000000000000000000000000000000000000000000000000000000815260040161030290610d8f565b60405180910390fd5b61031482610624565b600460003373ffffffffffffffffffffffffffffffffffffffff1673ffffffffffffffffffffffffffffffffffffffff16815260200190815260200160002060006101000a81548160ff0219169083600381111561037557610374610f27565b5b02179055507f5a6f3269421694461ff6bf84b6be1922723cedb23a85496d43a1ab67f7ea67fb336103a584610624565b6040516103b3929190610cb5565b60405180910390a1600360008154809291906103ce90610e77565b919050555060026003541415610440576103e661069c565b7fbfabc6814ae9da8c3d60f2534acc59a54c9ddc4d1ce2c6fc2afef4d447880daf600160009054906101000a900473ffffffffffffffffffffffffffffffffffffffff166040516104379190610c71565b60405180910390a15b5050565b600160149054906101000a900460ff16610493576040517f08c379a000000000000000000000000000000000000000000000000000000000815260040161048a90610d2f565b60405180910390fd5b6000801b600260003373ffffffffffffffffffffffffffffffffffffffff1673ffffffffffffffffffffffffffffffffffffffff1681526020019081526020016000205414610517576040517f08c379a000000000000000000000000000000000000000000000000000000000815260040161050e90610d4f565b60405180910390fd5b6000339080600181540180825580915050600190039060005260206000200160009091909190916101000a81548173ffffffffffffffffffffffffffffffffffffffff021916908373ffffffffffffffffffffffffffffffffffffffff16021790555080600260003373ffffffffffffffffffffffffffffffffffffffff1673ffffffffffffffffffffffffffffffffffffffff168152602001908152602001600020819055507f30f73c991d5cc2b3ba37e592c2cada15a965c615935598e04ac3bc5fc71c331933826040516105ef929190610c8c565b60405180910390a160026000805490501415610621576000600160146101000a81548160ff0219169083151502179055505b50565b600060018214156106385760019050610697565b600282141561064a5760029050610697565b600382141561065c5760039050610697565b6040517f08c379a000000000000000000000000000000000000000000000000000000000815260040161068e90610dcf565b60405180910390fd5b919050565b600060046000806000815481106106b6576106b5610f56565b5b9060005260206000200160009054906101000a900473ffffffffffffffffffffffffffffffffffffffff1673ffffffffffffffffffffffffffffffffffffffff1673ffffffffffffffffffffffffffffffffffffffff16815260200190815260200160002060009054906101000a900460ff1690506000600460008060018154811061074557610744610f56565b5b9060005260206000200160009054906101000a900473ffffffffffffffffffffffffffffffffffffffff1673ffffffffffffffffffffffffffffffffffffffff1673ffffffffffffffffffffffffffffffffffffffff16815260200190815260200160002060009054906101000a900460ff1690508060038111156107cd576107cc610f27565b5b8260038111156107e0576107df610f27565b5b14610a0457600160038111156107f9576107f8610f27565b5b82600381111561080c5761080b610f27565b5b14801561083d57506002600381111561082857610827610f27565b5b81600381111561083b5761083a610f27565b5b145b8061089b57506002600381111561085757610856610f27565b5b82600381111561086a57610869610f27565b5b14801561089a575060038081111561088557610884610f27565b5b81600381111561089857610897610f27565b5b145b5b806108f957506003808111156108b4576108b3610f27565b5b8260038111156108c7576108c6610f27565b5b1480156108f85750600160038111156108e3576108e2610f27565b5b8160038111156108f6576108f5610f27565b5b145b5b1561098357600060018154811061091357610912610f56565b5b9060005260206000200160009054906101000a900473ffffffffffffffffffffffffffffffffffffffff16600160006101000a81548173ffffffffffffffffffffffffffffffffffffffff021916908373ffffffffffffffffffffffffffffffffffffffff160217905550610a03565b6000808154811061099757610996610f56565b5b9060005260206000200160009054906101000a900473ffffffffffffffffffffffffffffffffffffffff16600160006101000a81548173ffffffffffffffffffffffffffffffffffffffff021916908373ffffffffffffffffffffffffffffffffffffffff1602179055505b5b5050565b600081359050610a1781611113565b92915050565b600081359050610a2c8161112a565b92915050565b600081359050610a4181611141565b92915050565b600060208284031215610a5d57610a5c610f85565b5b6000610a6b84828501610a08565b91505092915050565b600060208284031215610a8a57610a89610f85565b5b6000610a9884828501610a1d565b91505092915050565b60008060408385031215610ab857610ab7610f85565b5b6000610ac685828601610a32565b9250506020610ad785828601610a1d565b9150509250929050565b610aea81610e00565b82525050565b610b01610afc82610e00565b610ec0565b82525050565b610b1081610e12565b82525050565b610b1f81610e1e565b82525050565b610b36610b3182610e1e565b610ed2565b82525050565b610b4581610e65565b82525050565b6000610b58601e83610def565b9150610b6382610f97565b602082019050919050565b6000610b7b601a83610def565b9150610b8682610fc0565b602082019050919050565b6000610b9e602283610def565b9150610ba982610fe9565b604082019050919050565b6000610bc1602883610def565b9150610bcc82611038565b604082019050919050565b6000610be4602183610def565b9150610bef82611087565b604082019050919050565b6000610c07601883610def565b9150610c12826110d6565b602082019050919050565b610c2e610c2982610e5b565b610eee565b82525050565b6000610c408286610c1d565b602082019150610c508285610b25565b602082019150610c608284610af0565b601482019150819050949350505050565b6000602082019050610c866000830184610ae1565b92915050565b6000604082019050610ca16000830185610ae1565b610cae6020830184610b16565b9392505050565b6000604082019050610cca6000830185610ae1565b610cd76020830184610b3c565b9392505050565b6000602082019050610cf36000830184610b07565b92915050565b6000602082019050610d0e6000830184610b16565b92915050565b6000602082019050610d296000830184610b3c565b92915050565b60006020820190508181036000830152610d4881610b4b565b9050919050565b60006020820190508181036000830152610d6881610b6e565b9050919050565b60006020820190508181036000830152610d8881610b91565b9050919050565b60006020820190508181036000830152610da881610bb4565b9050919050565b60006020820190508181036000830152610dc881610bd7565b9050919050565b60006020820190508181036000830152610de881610bfa565b9050919050565b600082825260208201905092915050565b6000610e0b82610e3b565b9050919050565b60008115159050919050565b6000819050919050565b6000819050610e36826110ff565b919050565b600073ffffffffffffffffffffffffffffffffffffffff82169050919050565b6000819050919050565b6000610e7082610e28565b9050919050565b6000610e8282610e5b565b91507fffffffffffffffffffffffffffffffffffffffffffffffffffffffffffffffff821415610eb557610eb4610ef8565b5b600182019050919050565b6000610ecb82610edc565b9050919050565b6000819050919050565b6000610ee782610f8a565b9050919050565b6000819050919050565b7f4e487b7100000000000000000000000000000000000000000000000000000000600052601160045260246000fd5b7f4e487b7100000000000000000000000000000000000000000000000000000000600052602160045260246000fd5b7f4e487b7100000000000000000000000000000000000000000000000000000000600052603260045260246000fd5b600080fd5b60008160601b9050919050565b7f43686f6f736520737461676520616c72656164792066696e6973686564210000600082015250565b7f596f7520616c7265616479206d61646520612063686f69636521000000000000600082015250565b7f43686f6f736520737461676520686176656e27742066696e697368656420796560008201527f7421000000000000000000000000000000000000000000000000000000000000602082015250565b7f43686f69636520697320646566666572732066726f6d207768617420796f752060008201527f63686f6f73656421000000000000000000000000000000000000000000000000602082015250565b7f596f7520616c72656164792072657665616c656420796f75722063686f69636560008201527f2100000000000000000000000000000000000000000000000000000000000000602082015250565b7f496e636f72726563742063686f696365206e756d626572210000000000000000600082015250565b600481106111105761110f610f27565b5b50565b61111c81610e00565b811461112757600080fd5b50565b61113381610e1e565b811461113e57600080fd5b50565b61114a81610e5b565b811461115557600080fd5b5056fea2646970667358221220077a11b583cedc61e99ed5e3dc9a40eb3469b64123666daeb1f7063799ed50bd64736f6c63430008070033",
					"opcodes": "PUSH1 0x80 PUSH1 0x40 MSTORE CALLVALUE DUP1 ISZERO PUSH2 0x10 JUMPI PUSH1 0x0 DUP1 REVERT JUMPDEST POP PUSH1 0x1 DUP1 PUSH1 0x14 PUSH2 0x100 EXP DUP2 SLOAD DUP2 PUSH1 0xFF MUL NOT AND SWAP1 DUP4 ISZERO ISZERO MUL OR SWAP1 SSTORE POP PUSH2 0x118E DUP1 PUSH2 0x3A PUSH1 0x0 CODECOPY PUSH1 0x0 RETURN INVALID PUSH1 0x80 PUSH1 0x40 MSTORE CALLVALUE DUP1 ISZERO PUSH2 0x10 JUMPI PUSH1 0x0 DUP1 REVERT JUMPDEST POP PUSH1 0x4 CALLDATASIZE LT PUSH2 0x57 JUMPI PUSH1 0x0 CALLDATALOAD PUSH1 0xE0 SHR DUP1 PUSH4 0x410346B3 EQ PUSH2 0x5C JUMPI DUP1 PUSH4 0xA3B99089 EQ PUSH2 0x8C JUMPI DUP1 PUSH4 0xAA00DAF1 EQ PUSH2 0xBC JUMPI DUP1 PUSH4 0xC1D5383C EQ PUSH2 0xDA JUMPI DUP1 PUSH4 0xFCE55812 EQ PUSH2 0xF6 JUMPI JUMPDEST PUSH1 0x0 DUP1 REVERT JUMPDEST PUSH2 0x76 PUSH1 0x4 DUP1 CALLDATASIZE SUB DUP2 ADD SWAP1 PUSH2 0x71 SWAP2 SWAP1 PUSH2 0xA47 JUMP JUMPDEST PUSH2 0x112 JUMP JUMPDEST PUSH1 0x40 MLOAD PUSH2 0x83 SWAP2 SWAP1 PUSH2 0xCF9 JUMP JUMPDEST PUSH1 0x40 MLOAD DUP1 SWAP2 SUB SWAP1 RETURN JUMPDEST PUSH2 0xA6 PUSH1 0x4 DUP1 CALLDATASIZE SUB DUP2 ADD SWAP1 PUSH2 0xA1 SWAP2 SWAP1 PUSH2 0xA47 JUMP JUMPDEST PUSH2 0x12A JUMP JUMPDEST PUSH1 0x40 MLOAD PUSH2 0xB3 SWAP2 SWAP1 PUSH2 0xD14 JUMP JUMPDEST PUSH1 0x40 MLOAD DUP1 SWAP2 SUB SWAP1 RETURN JUMPDEST PUSH2 0xC4 PUSH2 0x14A JUMP JUMPDEST PUSH1 0x40 MLOAD PUSH2 0xD1 SWAP2 SWAP1 PUSH2 0xCDE JUMP JUMPDEST PUSH1 0x40 MLOAD DUP1 SWAP2 SUB SWAP1 RETURN JUMPDEST PUSH2 0xF4 PUSH1 0x4 DUP1 CALLDATASIZE SUB DUP2 ADD SWAP1 PUSH2 0xEF SWAP2 SWAP1 PUSH2 0xAA1 JUMP JUMPDEST PUSH2 0x15D JUMP JUMPDEST STOP JUMPDEST PUSH2 0x110 PUSH1 0x4 DUP1 CALLDATASIZE SUB DUP2 ADD SWAP1 PUSH2 0x10B SWAP2 SWAP1 PUSH2 0xA74 JUMP JUMPDEST PUSH2 0x444 JUMP JUMPDEST STOP JUMPDEST PUSH1 0x2 PUSH1 0x20 MSTORE DUP1 PUSH1 0x0 MSTORE PUSH1 0x40 PUSH1 0x0 KECCAK256 PUSH1 0x0 SWAP2 POP SWAP1 POP SLOAD DUP2 JUMP JUMPDEST PUSH1 0x4 PUSH1 0x20 MSTORE DUP1 PUSH1 0x0 MSTORE PUSH1 0x40 PUSH1 0x0 KECCAK256 PUSH1 0x0 SWAP2 POP SLOAD SWAP1 PUSH2 0x100 EXP SWAP1 DIV PUSH1 0xFF AND DUP2 JUMP JUMPDEST PUSH1 0x1 PUSH1 0x14 SWAP1 SLOAD SWAP1 PUSH2 0x100 EXP SWAP1 DIV PUSH1 0xFF AND DUP2 JUMP JUMPDEST PUSH1 0x1 PUSH1 0x14 SWAP1 SLOAD SWAP1 PUSH2 0x100 EXP SWAP1 DIV PUSH1 0xFF AND ISZERO PUSH2 0x1AD JUMPI PUSH1 0x40 MLOAD PUSH32 0x8C379A000000000000000000000000000000000000000000000000000000000 DUP2 MSTORE PUSH1 0x4 ADD PUSH2 0x1A4 SWAP1 PUSH2 0xD6F JUMP JUMPDEST PUSH1 0x40 MLOAD DUP1 SWAP2 SUB SWAP1 REVERT JUMPDEST PUSH1 0x0 PUSH1 0x3 DUP2 GT ISZERO PUSH2 0x1C1 JUMPI PUSH2 0x1C0 PUSH2 0xF27 JUMP JUMPDEST JUMPDEST PUSH1 0x4 PUSH1 0x0 CALLER PUSH20 0xFFFFFFFFFFFFFFFFFFFFFFFFFFFFFFFFFFFFFFFF AND PUSH20 0xFFFFFFFFFFFFFFFFFFFFFFFFFFFFFFFFFFFFFFFF AND DUP2 MSTORE PUSH1 0x20 ADD SWAP1 DUP2 MSTORE PUSH1 0x20 ADD PUSH1 0x0 KECCAK256 PUSH1 0x0 SWAP1 SLOAD SWAP1 PUSH2 0x100 EXP SWAP1 DIV PUSH1 0xFF AND PUSH1 0x3 DUP2 GT ISZERO PUSH2 0x220 JUMPI PUSH2 0x21F PUSH2 0xF27 JUMP JUMPDEST JUMPDEST EQ PUSH2 0x260 JUMPI PUSH1 0x40 MLOAD PUSH32 0x8C379A000000000000000000000000000000000000000000000000000000000 DUP2 MSTORE PUSH1 0x4 ADD PUSH2 0x257 SWAP1 PUSH2 0xDAF JUMP JUMPDEST PUSH1 0x40 MLOAD DUP1 SWAP2 SUB SWAP1 REVERT JUMPDEST PUSH1 0x2 PUSH1 0x0 CALLER PUSH20 0xFFFFFFFFFFFFFFFFFFFFFFFFFFFFFFFFFFFFFFFF AND PUSH20 0xFFFFFFFFFFFFFFFFFFFFFFFFFFFFFFFFFFFFFFFF AND DUP2 MSTORE PUSH1 0x20 ADD SWAP1 DUP2 MSTORE PUSH1 0x20 ADD PUSH1 0x0 KECCAK256 SLOAD DUP3 DUP3 CALLER PUSH1 0x40 MLOAD PUSH1 0x20 ADD PUSH2 0x2B5 SWAP4 SWAP3 SWAP2 SWAP1 PUSH2 0xC34 JUMP JUMPDEST PUSH1 0x40 MLOAD PUSH1 0x20 DUP2 DUP4 SUB SUB DUP2 MSTORE SWAP1 PUSH1 0x40 MSTORE DUP1 MLOAD SWAP1 PUSH1 0x20 ADD KECCAK256 EQ PUSH2 0x30B JUMPI PUSH1 0x40 MLOAD PUSH32 0x8C379A000000000000000000000000000000000000000000000000000000000 DUP2 MSTORE PUSH1 0x4 ADD PUSH2 0x302 SWAP1 PUSH2 0xD8F JUMP JUMPDEST PUSH1 0x40 MLOAD DUP1 SWAP2 SUB SWAP1 REVERT JUMPDEST PUSH2 0x314 DUP3 PUSH2 0x624 JUMP JUMPDEST PUSH1 0x4 PUSH1 0x0 CALLER PUSH20 0xFFFFFFFFFFFFFFFFFFFFFFFFFFFFFFFFFFFFFFFF AND PUSH20 0xFFFFFFFFFFFFFFFFFFFFFFFFFFFFFFFFFFFFFFFF AND DUP2 MSTORE PUSH1 0x20 ADD SWAP1 DUP2 MSTORE PUSH1 0x20 ADD PUSH1 0x0 KECCAK256 PUSH1 0x0 PUSH2 0x100 EXP DUP2 SLOAD DUP2 PUSH1 0xFF MUL NOT AND SWAP1 DUP4 PUSH1 0x3 DUP2 GT ISZERO PUSH2 0x375 JUMPI PUSH2 0x374 PUSH2 0xF27 JUMP JUMPDEST JUMPDEST MUL OR SWAP1 SSTORE POP PUSH32 0x5A6F3269421694461FF6BF84B6BE1922723CEDB23A85496D43A1AB67F7EA67FB CALLER PUSH2 0x3A5 DUP5 PUSH2 0x624 JUMP JUMPDEST PUSH1 0x40 MLOAD PUSH2 0x3B3 SWAP3 SWAP2 SWAP1 PUSH2 0xCB5 JUMP JUMPDEST PUSH1 0x40 MLOAD DUP1 SWAP2 SUB SWAP1 LOG1 PUSH1 0x3 PUSH1 0x0 DUP2 SLOAD DUP1 SWAP3 SWAP2 SWAP1 PUSH2 0x3CE SWAP1 PUSH2 0xE77 JUMP JUMPDEST SWAP2 SWAP1 POP SSTORE POP PUSH1 0x2 PUSH1 0x3 SLOAD EQ ISZERO PUSH2 0x440 JUMPI PUSH2 0x3E6 PUSH2 0x69C JUMP JUMPDEST PUSH32 0xBFABC6814AE9DA8C3D60F2534ACC59A54C9DDC4D1CE2C6FC2AFEF4D447880DAF PUSH1 0x1 PUSH1 0x0 SWAP1 SLOAD SWAP1 PUSH2 0x100 EXP SWAP1 DIV PUSH20 0xFFFFFFFFFFFFFFFFFFFFFFFFFFFFFFFFFFFFFFFF AND PUSH1 0x40 MLOAD PUSH2 0x437 SWAP2 SWAP1 PUSH2 0xC71 JUMP JUMPDEST PUSH1 0x40 MLOAD DUP1 SWAP2 SUB SWAP1 LOG1 JUMPDEST POP POP JUMP JUMPDEST PUSH1 0x1 PUSH1 0x14 SWAP1 SLOAD SWAP1 PUSH2 0x100 EXP SWAP1 DIV PUSH1 0xFF AND PUSH2 0x493 JUMPI PUSH1 0x40 MLOAD PUSH32 0x8C379A000000000000000000000000000000000000000000000000000000000 DUP2 MSTORE PUSH1 0x4 ADD PUSH2 0x48A SWAP1 PUSH2 0xD2F JUMP JUMPDEST PUSH1 0x40 MLOAD DUP1 SWAP2 SUB SWAP1 REVERT JUMPDEST PUSH1 0x0 DUP1 SHL PUSH1 0x2 PUSH1 0x0 CALLER PUSH20 0xFFFFFFFFFFFFFFFFFFFFFFFFFFFFFFFFFFFFFFFF AND PUSH20 0xFFFFFFFFFFFFFFFFFFFFFFFFFFFFFFFFFFFFFFFF AND DUP2 MSTORE PUSH1 0x20 ADD SWAP1 DUP2 MSTORE PUSH1 0x20 ADD PUSH1 0x0 KECCAK256 SLOAD EQ PUSH2 0x517 JUMPI PUSH1 0x40 MLOAD PUSH32 0x8C379A000000000000000000000000000000000000000000000000000000000 DUP2 MSTORE PUSH1 0x4 ADD PUSH2 0x50E SWAP1 PUSH2 0xD4F JUMP JUMPDEST PUSH1 0x40 MLOAD DUP1 SWAP2 SUB SWAP1 REVERT JUMPDEST PUSH1 0x0 CALLER SWAP1 DUP1 PUSH1 0x1 DUP2 SLOAD ADD DUP1 DUP3 SSTORE DUP1 SWAP2 POP POP PUSH1 0x1 SWAP1 SUB SWAP1 PUSH1 0x0 MSTORE PUSH1 0x20 PUSH1 0x0 KECCAK256 ADD PUSH1 0x0 SWAP1 SWAP2 SWAP1 SWAP2 SWAP1 SWAP2 PUSH2 0x100 EXP DUP2 SLOAD DUP2 PUSH20 0xFFFFFFFFFFFFFFFFFFFFFFFFFFFFFFFFFFFFFFFF MUL NOT AND SWAP1 DUP4 PUSH20 0xFFFFFFFFFFFFFFFFFFFFFFFFFFFFFFFFFFFFFFFF AND MUL OR SWAP1 SSTORE POP DUP1 PUSH1 0x2 PUSH1 0x0 CALLER PUSH20 0xFFFFFFFFFFFFFFFFFFFFFFFFFFFFFFFFFFFFFFFF AND PUSH20 0xFFFFFFFFFFFFFFFFFFFFFFFFFFFFFFFFFFFFFFFF AND DUP2 MSTORE PUSH1 0x20 ADD SWAP1 DUP2 MSTORE PUSH1 0x20 ADD PUSH1 0x0 KECCAK256 DUP2 SWAP1 SSTORE POP PUSH32 0x30F73C991D5CC2B3BA37E592C2CADA15A965C615935598E04AC3BC5FC71C3319 CALLER DUP3 PUSH1 0x40 MLOAD PUSH2 0x5EF SWAP3 SWAP2 SWAP1 PUSH2 0xC8C JUMP JUMPDEST PUSH1 0x40 MLOAD DUP1 SWAP2 SUB SWAP1 LOG1 PUSH1 0x2 PUSH1 0x0 DUP1 SLOAD SWAP1 POP EQ ISZERO PUSH2 0x621 JUMPI PUSH1 0x0 PUSH1 0x1 PUSH1 0x14 PUSH2 0x100 EXP DUP2 SLOAD DUP2 PUSH1 0xFF MUL NOT AND SWAP1 DUP4 ISZERO ISZERO MUL OR SWAP1 SSTORE POP JUMPDEST POP JUMP JUMPDEST PUSH1 0x0 PUSH1 0x1 DUP3 EQ ISZERO PUSH2 0x638 JUMPI PUSH1 0x1 SWAP1 POP PUSH2 0x697 JUMP JUMPDEST PUSH1 0x2 DUP3 EQ ISZERO PUSH2 0x64A JUMPI PUSH1 0x2 SWAP1 POP PUSH2 0x697 JUMP JUMPDEST PUSH1 0x3 DUP3 EQ ISZERO PUSH2 0x65C JUMPI PUSH1 0x3 SWAP1 POP PUSH2 0x697 JUMP JUMPDEST PUSH1 0x40 MLOAD PUSH32 0x8C379A000000000000000000000000000000000000000000000000000000000 DUP2 MSTORE PUSH1 0x4 ADD PUSH2 0x68E SWAP1 PUSH2 0xDCF JUMP JUMPDEST PUSH1 0x40 MLOAD DUP1 SWAP2 SUB SWAP1 REVERT JUMPDEST SWAP2 SWAP1 POP JUMP JUMPDEST PUSH1 0x0 PUSH1 0x4 PUSH1 0x0 DUP1 PUSH1 0x0 DUP2 SLOAD DUP2 LT PUSH2 0x6B6 JUMPI PUSH2 0x6B5 PUSH2 0xF56 JUMP JUMPDEST JUMPDEST SWAP1 PUSH1 0x0 MSTORE PUSH1 0x20 PUSH1 0x0 KECCAK256 ADD PUSH1 0x0 SWAP1 SLOAD SWAP1 PUSH2 0x100 EXP SWAP1 DIV PUSH20 0xFFFFFFFFFFFFFFFFFFFFFFFFFFFFFFFFFFFFFFFF AND PUSH20 0xFFFFFFFFFFFFFFFFFFFFFFFFFFFFFFFFFFFFFFFF AND PUSH20 0xFFFFFFFFFFFFFFFFFFFFFFFFFFFFFFFFFFFFFFFF AND DUP2 MSTORE PUSH1 0x20 ADD SWAP1 DUP2 MSTORE PUSH1 0x20 ADD PUSH1 0x0 KECCAK256 PUSH1 0x0 SWAP1 SLOAD SWAP1 PUSH2 0x100 EXP SWAP1 DIV PUSH1 0xFF AND SWAP1 POP PUSH1 0x0 PUSH1 0x4 PUSH1 0x0 DUP1 PUSH1 0x1 DUP2 SLOAD DUP2 LT PUSH2 0x745 JUMPI PUSH2 0x744 PUSH2 0xF56 JUMP JUMPDEST JUMPDEST SWAP1 PUSH1 0x0 MSTORE PUSH1 0x20 PUSH1 0x0 KECCAK256 ADD PUSH1 0x0 SWAP1 SLOAD SWAP1 PUSH2 0x100 EXP SWAP1 DIV PUSH20 0xFFFFFFFFFFFFFFFFFFFFFFFFFFFFFFFFFFFFFFFF AND PUSH20 0xFFFFFFFFFFFFFFFFFFFFFFFFFFFFFFFFFFFFFFFF AND PUSH20 0xFFFFFFFFFFFFFFFFFFFFFFFFFFFFFFFFFFFFFFFF AND DUP2 MSTORE PUSH1 0x20 ADD SWAP1 DUP2 MSTORE PUSH1 0x20 ADD PUSH1 0x0 KECCAK256 PUSH1 0x0 SWAP1 SLOAD SWAP1 PUSH2 0x100 EXP SWAP1 DIV PUSH1 0xFF AND SWAP1 POP DUP1 PUSH1 0x3 DUP2 GT ISZERO PUSH2 0x7CD JUMPI PUSH2 0x7CC PUSH2 0xF27 JUMP JUMPDEST JUMPDEST DUP3 PUSH1 0x3 DUP2 GT ISZERO PUSH2 0x7E0 JUMPI PUSH2 0x7DF PUSH2 0xF27 JUMP JUMPDEST JUMPDEST EQ PUSH2 0xA04 JUMPI PUSH1 0x1 PUSH1 0x3 DUP2 GT ISZERO PUSH2 0x7F9 JUMPI PUSH2 0x7F8 PUSH2 0xF27 JUMP JUMPDEST JUMPDEST DUP3 PUSH1 0x3 DUP2 GT ISZERO PUSH2 0x80C JUMPI PUSH2 0x80B PUSH2 0xF27 JUMP JUMPDEST JUMPDEST EQ DUP1 ISZERO PUSH2 0x83D JUMPI POP PUSH1 0x2 PUSH1 0x3 DUP2 GT ISZERO PUSH2 0x828 JUMPI PUSH2 0x827 PUSH2 0xF27 JUMP JUMPDEST JUMPDEST DUP2 PUSH1 0x3 DUP2 GT ISZERO PUSH2 0x83B JUMPI PUSH2 0x83A PUSH2 0xF27 JUMP JUMPDEST JUMPDEST EQ JUMPDEST DUP1 PUSH2 0x89B JUMPI POP PUSH1 0x2 PUSH1 0x3 DUP2 GT ISZERO PUSH2 0x857 JUMPI PUSH2 0x856 PUSH2 0xF27 JUMP JUMPDEST JUMPDEST DUP3 PUSH1 0x3 DUP2 GT ISZERO PUSH2 0x86A JUMPI PUSH2 0x869 PUSH2 0xF27 JUMP JUMPDEST JUMPDEST EQ DUP1 ISZERO PUSH2 0x89A JUMPI POP PUSH1 0x3 DUP1 DUP2 GT ISZERO PUSH2 0x885 JUMPI PUSH2 0x884 PUSH2 0xF27 JUMP JUMPDEST JUMPDEST DUP2 PUSH1 0x3 DUP2 GT ISZERO PUSH2 0x898 JUMPI PUSH2 0x897 PUSH2 0xF27 JUMP JUMPDEST JUMPDEST EQ JUMPDEST JUMPDEST DUP1 PUSH2 0x8F9 JUMPI POP PUSH1 0x3 DUP1 DUP2 GT ISZERO PUSH2 0x8B4 JUMPI PUSH2 0x8B3 PUSH2 0xF27 JUMP JUMPDEST JUMPDEST DUP3 PUSH1 0x3 DUP2 GT ISZERO PUSH2 0x8C7 JUMPI PUSH2 0x8C6 PUSH2 0xF27 JUMP JUMPDEST JUMPDEST EQ DUP1 ISZERO PUSH2 0x8F8 JUMPI POP PUSH1 0x1 PUSH1 0x3 DUP2 GT ISZERO PUSH2 0x8E3 JUMPI PUSH2 0x8E2 PUSH2 0xF27 JUMP JUMPDEST JUMPDEST DUP2 PUSH1 0x3 DUP2 GT ISZERO PUSH2 0x8F6 JUMPI PUSH2 0x8F5 PUSH2 0xF27 JUMP JUMPDEST JUMPDEST EQ JUMPDEST JUMPDEST ISZERO PUSH2 0x983 JUMPI PUSH1 0x0 PUSH1 0x1 DUP2 SLOAD DUP2 LT PUSH2 0x913 JUMPI PUSH2 0x912 PUSH2 0xF56 JUMP JUMPDEST JUMPDEST SWAP1 PUSH1 0x0 MSTORE PUSH1 0x20 PUSH1 0x0 KECCAK256 ADD PUSH1 0x0 SWAP1 SLOAD SWAP1 PUSH2 0x100 EXP SWAP1 DIV PUSH20 0xFFFFFFFFFFFFFFFFFFFFFFFFFFFFFFFFFFFFFFFF AND PUSH1 0x1 PUSH1 0x0 PUSH2 0x100 EXP DUP2 SLOAD DUP2 PUSH20 0xFFFFFFFFFFFFFFFFFFFFFFFFFFFFFFFFFFFFFFFF MUL NOT AND SWAP1 DUP4 PUSH20 0xFFFFFFFFFFFFFFFFFFFFFFFFFFFFFFFFFFFFFFFF AND MUL OR SWAP1 SSTORE POP PUSH2 0xA03 JUMP JUMPDEST PUSH1 0x0 DUP1 DUP2 SLOAD DUP2 LT PUSH2 0x997 JUMPI PUSH2 0x996 PUSH2 0xF56 JUMP JUMPDEST JUMPDEST SWAP1 PUSH1 0x0 MSTORE PUSH1 0x20 PUSH1 0x0 KECCAK256 ADD PUSH1 0x0 SWAP1 SLOAD SWAP1 PUSH2 0x100 EXP SWAP1 DIV PUSH20 0xFFFFFFFFFFFFFFFFFFFFFFFFFFFFFFFFFFFFFFFF AND PUSH1 0x1 PUSH1 0x0 PUSH2 0x100 EXP DUP2 SLOAD DUP2 PUSH20 0xFFFFFFFFFFFFFFFFFFFFFFFFFFFFFFFFFFFFFFFF MUL NOT AND SWAP1 DUP4 PUSH20 0xFFFFFFFFFFFFFFFFFFFFFFFFFFFFFFFFFFFFFFFF AND MUL OR SWAP1 SSTORE POP JUMPDEST JUMPDEST POP POP JUMP JUMPDEST PUSH1 0x0 DUP2 CALLDATALOAD SWAP1 POP PUSH2 0xA17 DUP2 PUSH2 0x1113 JUMP JUMPDEST SWAP3 SWAP2 POP POP JUMP JUMPDEST PUSH1 0x0 DUP2 CALLDATALOAD SWAP1 POP PUSH2 0xA2C DUP2 PUSH2 0x112A JUMP JUMPDEST SWAP3 SWAP2 POP POP JUMP JUMPDEST PUSH1 0x0 DUP2 CALLDATALOAD SWAP1 POP PUSH2 0xA41 DUP2 PUSH2 0x1141 JUMP JUMPDEST SWAP3 SWAP2 POP POP JUMP JUMPDEST PUSH1 0x0 PUSH1 0x20 DUP3 DUP5 SUB SLT ISZERO PUSH2 0xA5D JUMPI PUSH2 0xA5C PUSH2 0xF85 JUMP JUMPDEST JUMPDEST PUSH1 0x0 PUSH2 0xA6B DUP5 DUP3 DUP6 ADD PUSH2 0xA08 JUMP JUMPDEST SWAP2 POP POP SWAP3 SWAP2 POP POP JUMP JUMPDEST PUSH1 0x0 PUSH1 0x20 DUP3 DUP5 SUB SLT ISZERO PUSH2 0xA8A JUMPI PUSH2 0xA89 PUSH2 0xF85 JUMP JUMPDEST JUMPDEST PUSH1 0x0 PUSH2 0xA98 DUP5 DUP3 DUP6 ADD PUSH2 0xA1D JUMP JUMPDEST SWAP2 POP POP SWAP3 SWAP2 POP POP JUMP JUMPDEST PUSH1 0x0 DUP1 PUSH1 0x40 DUP4 DUP6 SUB SLT ISZERO PUSH2 0xAB8 JUMPI PUSH2 0xAB7 PUSH2 0xF85 JUMP JUMPDEST JUMPDEST PUSH1 0x0 PUSH2 0xAC6 DUP6 DUP3 DUP7 ADD PUSH2 0xA32 JUMP JUMPDEST SWAP3 POP POP PUSH1 0x20 PUSH2 0xAD7 DUP6 DUP3 DUP7 ADD PUSH2 0xA1D JUMP JUMPDEST SWAP2 POP POP SWAP3 POP SWAP3 SWAP1 POP JUMP JUMPDEST PUSH2 0xAEA DUP2 PUSH2 0xE00 JUMP JUMPDEST DUP3 MSTORE POP POP JUMP JUMPDEST PUSH2 0xB01 PUSH2 0xAFC DUP3 PUSH2 0xE00 JUMP JUMPDEST PUSH2 0xEC0 JUMP JUMPDEST DUP3 MSTORE POP POP JUMP JUMPDEST PUSH2 0xB10 DUP2 PUSH2 0xE12 JUMP JUMPDEST DUP3 MSTORE POP POP JUMP JUMPDEST PUSH2 0xB1F DUP2 PUSH2 0xE1E JUMP JUMPDEST DUP3 MSTORE POP POP JUMP JUMPDEST PUSH2 0xB36 PUSH2 0xB31 DUP3 PUSH2 0xE1E JUMP JUMPDEST PUSH2 0xED2 JUMP JUMPDEST DUP3 MSTORE POP POP JUMP JUMPDEST PUSH2 0xB45 DUP2 PUSH2 0xE65 JUMP JUMPDEST DUP3 MSTORE POP POP JUMP JUMPDEST PUSH1 0x0 PUSH2 0xB58 PUSH1 0x1E DUP4 PUSH2 0xDEF JUMP JUMPDEST SWAP2 POP PUSH2 0xB63 DUP3 PUSH2 0xF97 JUMP JUMPDEST PUSH1 0x20 DUP3 ADD SWAP1 POP SWAP2 SWAP1 POP JUMP JUMPDEST PUSH1 0x0 PUSH2 0xB7B PUSH1 0x1A DUP4 PUSH2 0xDEF JUMP JUMPDEST SWAP2 POP PUSH2 0xB86 DUP3 PUSH2 0xFC0 JUMP JUMPDEST PUSH1 0x20 DUP3 ADD SWAP1 POP SWAP2 SWAP1 POP JUMP JUMPDEST PUSH1 0x0 PUSH2 0xB9E PUSH1 0x22 DUP4 PUSH2 0xDEF JUMP JUMPDEST SWAP2 POP PUSH2 0xBA9 DUP3 PUSH2 0xFE9 JUMP JUMPDEST PUSH1 0x40 DUP3 ADD SWAP1 POP SWAP2 SWAP1 POP JUMP JUMPDEST PUSH1 0x0 PUSH2 0xBC1 PUSH1 0x28 DUP4 PUSH2 0xDEF JUMP JUMPDEST SWAP2 POP PUSH2 0xBCC DUP3 PUSH2 0x1038 JUMP JUMPDEST PUSH1 0x40 DUP3 ADD SWAP1 POP SWAP2 SWAP1 POP JUMP JUMPDEST PUSH1 0x0 PUSH2 0xBE4 PUSH1 0x21 DUP4 PUSH2 0xDEF JUMP JUMPDEST SWAP2 POP PUSH2 0xBEF DUP3 PUSH2 0x1087 JUMP JUMPDEST PUSH1 0x40 DUP3 ADD SWAP1 POP SWAP2 SWAP1 POP JUMP JUMPDEST PUSH1 0x0 PUSH2 0xC07 PUSH1 0x18 DUP4 PUSH2 0xDEF JUMP JUMPDEST SWAP2 POP PUSH2 0xC12 DUP3 PUSH2 0x10D6 JUMP JUMPDEST PUSH1 0x20 DUP3 ADD SWAP1 POP SWAP2 SWAP1 POP JUMP JUMPDEST PUSH2 0xC2E PUSH2 0xC29 DUP3 PUSH2 0xE5B JUMP JUMPDEST PUSH2 0xEEE JUMP JUMPDEST DUP3 MSTORE POP POP JUMP JUMPDEST PUSH1 0x0 PUSH2 0xC40 DUP3 DUP7 PUSH2 0xC1D JUMP JUMPDEST PUSH1 0x20 DUP3 ADD SWAP2 POP PUSH2 0xC50 DUP3 DUP6 PUSH2 0xB25 JUMP JUMPDEST PUSH1 0x20 DUP3 ADD SWAP2 POP PUSH2 0xC60 DUP3 DUP5 PUSH2 0xAF0 JUMP JUMPDEST PUSH1 0x14 DUP3 ADD SWAP2 POP DUP2 SWAP1 POP SWAP5 SWAP4 POP POP POP POP JUMP JUMPDEST PUSH1 0x0 PUSH1 0x20 DUP3 ADD SWAP1 POP PUSH2 0xC86 PUSH1 0x0 DUP4 ADD DUP5 PUSH2 0xAE1 JUMP JUMPDEST SWAP3 SWAP2 POP POP JUMP JUMPDEST PUSH1 0x0 PUSH1 0x40 DUP3 ADD SWAP1 POP PUSH2 0xCA1 PUSH1 0x0 DUP4 ADD DUP6 PUSH2 0xAE1 JUMP JUMPDEST PUSH2 0xCAE PUSH1 0x20 DUP4 ADD DUP5 PUSH2 0xB16 JUMP JUMPDEST SWAP4 SWAP3 POP POP POP JUMP JUMPDEST PUSH1 0x0 PUSH1 0x40 DUP3 ADD SWAP1 POP PUSH2 0xCCA PUSH1 0x0 DUP4 ADD DUP6 PUSH2 0xAE1 JUMP JUMPDEST PUSH2 0xCD7 PUSH1 0x20 DUP4 ADD DUP5 PUSH2 0xB3C JUMP JUMPDEST SWAP4 SWAP3 POP POP POP JUMP JUMPDEST PUSH1 0x0 PUSH1 0x20 DUP3 ADD SWAP1 POP PUSH2 0xCF3 PUSH1 0x0 DUP4 ADD DUP5 PUSH2 0xB07 JUMP JUMPDEST SWAP3 SWAP2 POP POP JUMP JUMPDEST PUSH1 0x0 PUSH1 0x20 DUP3 ADD SWAP1 POP PUSH2 0xD0E PUSH1 0x0 DUP4 ADD DUP5 PUSH2 0xB16 JUMP JUMPDEST SWAP3 SWAP2 POP POP JUMP JUMPDEST PUSH1 0x0 PUSH1 0x20 DUP3 ADD SWAP1 POP PUSH2 0xD29 PUSH1 0x0 DUP4 ADD DUP5 PUSH2 0xB3C JUMP JUMPDEST SWAP3 SWAP2 POP POP JUMP JUMPDEST PUSH1 0x0 PUSH1 0x20 DUP3 ADD SWAP1 POP DUP2 DUP2 SUB PUSH1 0x0 DUP4 ADD MSTORE PUSH2 0xD48 DUP2 PUSH2 0xB4B JUMP JUMPDEST SWAP1 POP SWAP2 SWAP1 POP JUMP JUMPDEST PUSH1 0x0 PUSH1 0x20 DUP3 ADD SWAP1 POP DUP2 DUP2 SUB PUSH1 0x0 DUP4 ADD MSTORE PUSH2 0xD68 DUP2 PUSH2 0xB6E JUMP JUMPDEST SWAP1 POP SWAP2 SWAP1 POP JUMP JUMPDEST PUSH1 0x0 PUSH1 0x20 DUP3 ADD SWAP1 POP DUP2 DUP2 SUB PUSH1 0x0 DUP4 ADD MSTORE PUSH2 0xD88 DUP2 PUSH2 0xB91 JUMP JUMPDEST SWAP1 POP SWAP2 SWAP1 POP JUMP JUMPDEST PUSH1 0x0 PUSH1 0x20 DUP3 ADD SWAP1 POP DUP2 DUP2 SUB PUSH1 0x0 DUP4 ADD MSTORE PUSH2 0xDA8 DUP2 PUSH2 0xBB4 JUMP JUMPDEST SWAP1 POP SWAP2 SWAP1 POP JUMP JUMPDEST PUSH1 0x0 PUSH1 0x20 DUP3 ADD SWAP1 POP DUP2 DUP2 SUB PUSH1 0x0 DUP4 ADD MSTORE PUSH2 0xDC8 DUP2 PUSH2 0xBD7 JUMP JUMPDEST SWAP1 POP SWAP2 SWAP1 POP JUMP JUMPDEST PUSH1 0x0 PUSH1 0x20 DUP3 ADD SWAP1 POP DUP2 DUP2 SUB PUSH1 0x0 DUP4 ADD MSTORE PUSH2 0xDE8 DUP2 PUSH2 0xBFA JUMP JUMPDEST SWAP1 POP SWAP2 SWAP1 POP JUMP JUMPDEST PUSH1 0x0 DUP3 DUP3 MSTORE PUSH1 0x20 DUP3 ADD SWAP1 POP SWAP3 SWAP2 POP POP JUMP JUMPDEST PUSH1 0x0 PUSH2 0xE0B DUP3 PUSH2 0xE3B JUMP JUMPDEST SWAP1 POP SWAP2 SWAP1 POP JUMP JUMPDEST PUSH1 0x0 DUP2 ISZERO ISZERO SWAP1 POP SWAP2 SWAP1 POP JUMP JUMPDEST PUSH1 0x0 DUP2 SWAP1 POP SWAP2 SWAP1 POP JUMP JUMPDEST PUSH1 0x0 DUP2 SWAP1 POP PUSH2 0xE36 DUP3 PUSH2 0x10FF JUMP JUMPDEST SWAP2 SWAP1 POP JUMP JUMPDEST PUSH1 0x0 PUSH20 0xFFFFFFFFFFFFFFFFFFFFFFFFFFFFFFFFFFFFFFFF DUP3 AND SWAP1 POP SWAP2 SWAP1 POP JUMP JUMPDEST PUSH1 0x0 DUP2 SWAP1 POP SWAP2 SWAP1 POP JUMP JUMPDEST PUSH1 0x0 PUSH2 0xE70 DUP3 PUSH2 0xE28 JUMP JUMPDEST SWAP1 POP SWAP2 SWAP1 POP JUMP JUMPDEST PUSH1 0x0 PUSH2 0xE82 DUP3 PUSH2 0xE5B JUMP JUMPDEST SWAP2 POP PUSH32 0xFFFFFFFFFFFFFFFFFFFFFFFFFFFFFFFFFFFFFFFFFFFFFFFFFFFFFFFFFFFFFFFF DUP3 EQ ISZERO PUSH2 0xEB5 JUMPI PUSH2 0xEB4 PUSH2 0xEF8 JUMP JUMPDEST JUMPDEST PUSH1 0x1 DUP3 ADD SWAP1 POP SWAP2 SWAP1 POP JUMP JUMPDEST PUSH1 0x0 PUSH2 0xECB DUP3 PUSH2 0xEDC JUMP JUMPDEST SWAP1 POP SWAP2 SWAP1 POP JUMP JUMPDEST PUSH1 0x0 DUP2 SWAP1 POP SWAP2 SWAP1 POP JUMP JUMPDEST PUSH1 0x0 PUSH2 0xEE7 DUP3 PUSH2 0xF8A JUMP JUMPDEST SWAP1 POP SWAP2 SWAP1 POP JUMP JUMPDEST PUSH1 0x0 DUP2 SWAP1 POP SWAP2 SWAP1 POP JUMP JUMPDEST PUSH32 0x4E487B7100000000000000000000000000000000000000000000000000000000 PUSH1 0x0 MSTORE PUSH1 0x11 PUSH1 0x4 MSTORE PUSH1 0x24 PUSH1 0x0 REVERT JUMPDEST PUSH32 0x4E487B7100000000000000000000000000000000000000000000000000000000 PUSH1 0x0 MSTORE PUSH1 0x21 PUSH1 0x4 MSTORE PUSH1 0x24 PUSH1 0x0 REVERT JUMPDEST PUSH32 0x4E487B7100000000000000000000000000000000000000000000000000000000 PUSH1 0x0 MSTORE PUSH1 0x32 PUSH1 0x4 MSTORE PUSH1 0x24 PUSH1 0x0 REVERT JUMPDEST PUSH1 0x0 DUP1 REVERT JUMPDEST PUSH1 0x0 DUP2 PUSH1 0x60 SHL SWAP1 POP SWAP2 SWAP1 POP JUMP JUMPDEST PUSH32 0x43686F6F736520737461676520616C72656164792066696E6973686564210000 PUSH1 0x0 DUP3 ADD MSTORE POP JUMP JUMPDEST PUSH32 0x596F7520616C7265616479206D61646520612063686F69636521000000000000 PUSH1 0x0 DUP3 ADD MSTORE POP JUMP JUMPDEST PUSH32 0x43686F6F736520737461676520686176656E27742066696E6973686564207965 PUSH1 0x0 DUP3 ADD MSTORE PUSH32 0x7421000000000000000000000000000000000000000000000000000000000000 PUSH1 0x20 DUP3 ADD MSTORE POP JUMP JUMPDEST PUSH32 0x43686F69636520697320646566666572732066726F6D207768617420796F7520 PUSH1 0x0 DUP3 ADD MSTORE PUSH32 0x63686F6F73656421000000000000000000000000000000000000000000000000 PUSH1 0x20 DUP3 ADD MSTORE POP JUMP JUMPDEST PUSH32 0x596F7520616C72656164792072657665616C656420796F75722063686F696365 PUSH1 0x0 DUP3 ADD MSTORE PUSH32 0x2100000000000000000000000000000000000000000000000000000000000000 PUSH1 0x20 DUP3 ADD MSTORE POP JUMP JUMPDEST PUSH32 0x496E636F72726563742063686F696365206E756D626572210000000000000000 PUSH1 0x0 DUP3 ADD MSTORE POP JUMP JUMPDEST PUSH1 0x4 DUP2 LT PUSH2 0x1110 JUMPI PUSH2 0x110F PUSH2 0xF27 JUMP JUMPDEST JUMPDEST POP JUMP JUMPDEST PUSH2 0x111C DUP2 PUSH2 0xE00 JUMP JUMPDEST DUP2 EQ PUSH2 0x1127 JUMPI PUSH1 0x0 DUP1 REVERT JUMPDEST POP JUMP JUMPDEST PUSH2 0x1133 DUP2 PUSH2 0xE1E JUMP JUMPDEST DUP2 EQ PUSH2 0x113E JUMPI PUSH1 0x0 DUP1 REVERT JUMPDEST POP JUMP JUMPDEST PUSH2 0x114A DUP2 PUSH2 0xE5B JUMP JUMPDEST DUP2 EQ PUSH2 0x1155 JUMPI PUSH1 0x0 DUP1 REVERT JUMPDEST POP JUMP INVALID LOG2 PUSH5 0x6970667358 0x22 SLT KECCAK256 SMOD PUSH27 0x11B583CEDC61E99ED5E3DC9A40EB3469B64123666DAEB1F7063799 0xED POP 0xBD PUSH5 0x736F6C6343 STOP ADDMOD SMOD STOP CALLER "
				},
				"gasEstimates": {
					"creation": {
						"codeDepositCost": "898800",
						"executionCost": "25252",
						"totalCost": "924052"
					},
					"external": {
						"choices(address)": "2792",
						"isChooseStage()": "2543",
						"makeChoice(bytes32)": "infinite",
						"revealChoices(uint256,bytes32)": "infinite",
						"revealedChoice(address)": "2934"
					},
					"internal": {
						"defineWinner()": "42281",
						"getEnumValueByIndex(uint256)": "infinite"
					}
				},
				"methodIdentifiers": {
					"choices(address)": "410346b3",
					"isChooseStage()": "aa00daf1",
					"makeChoice(bytes32)": "fce55812",
					"revealChoices(uint256,bytes32)": "c1d5383c",
					"revealedChoice(address)": "a3b99089"
				}
			},
			"storageLayout": {
				"storage": [
					{
						"astId": 26,
						"contract": "contracts/RockPaperScissors.sol:RockPaperScissors",
						"label": "playerKeys",
						"offset": 0,
						"slot": "0",
						"type": "t_array(t_address)dyn_storage"
					},
					{
						"astId": 28,
						"contract": "contracts/RockPaperScissors.sol:RockPaperScissors",
						"label": "winner",
						"offset": 0,
						"slot": "1",
						"type": "t_address"
					},
					{
						"astId": 30,
						"contract": "contracts/RockPaperScissors.sol:RockPaperScissors",
						"label": "isChooseStage",
						"offset": 20,
						"slot": "1",
						"type": "t_bool"
					},
					{
						"astId": 34,
						"contract": "contracts/RockPaperScissors.sol:RockPaperScissors",
						"label": "choices",
						"offset": 0,
						"slot": "2",
						"type": "t_mapping(t_address,t_bytes32)"
					},
					{
						"astId": 36,
						"contract": "contracts/RockPaperScissors.sol:RockPaperScissors",
						"label": "peopleRevealed",
						"offset": 0,
						"slot": "3",
						"type": "t_uint256"
					},
					{
						"astId": 41,
						"contract": "contracts/RockPaperScissors.sol:RockPaperScissors",
						"label": "revealedChoice",
						"offset": 0,
						"slot": "4",
						"type": "t_mapping(t_address,t_enum(Choice)6)"
					}
				],
				"types": {
					"t_address": {
						"encoding": "inplace",
						"label": "address",
						"numberOfBytes": "20"
					},
					"t_array(t_address)dyn_storage": {
						"base": "t_address",
						"encoding": "dynamic_array",
						"label": "address[]",
						"numberOfBytes": "32"
					},
					"t_bool": {
						"encoding": "inplace",
						"label": "bool",
						"numberOfBytes": "1"
					},
					"t_bytes32": {
						"encoding": "inplace",
						"label": "bytes32",
						"numberOfBytes": "32"
					},
					"t_enum(Choice)6": {
						"encoding": "inplace",
						"label": "enum RockPaperScissors.Choice",
						"numberOfBytes": "1"
					},
					"t_mapping(t_address,t_bytes32)": {
						"encoding": "mapping",
						"key": "t_address",
						"label": "mapping(address => bytes32)",
						"numberOfBytes": "32",
						"value": "t_bytes32"
					},
					"t_mapping(t_address,t_enum(Choice)6)": {
						"encoding": "mapping",
						"key": "t_address",
						"label": "mapping(address => enum RockPaperScissors.Choice)",
						"numberOfBytes": "32",
						"value": "t_enum(Choice)6"
					},
					"t_uint256": {
						"encoding": "inplace",
						"label": "uint256",
						"numberOfBytes": "32"
					}
				}
			},
			"userdoc": {
				"kind": "user",
				"methods": {},
				"version": 1
			}
		}
	}
}