{
	"contracts/RockPaperScissors.sol": {
		"RockPaperScissors": {
			"abi": [
				{
					"inputs": [],
					"stateMutability": "nonpayable",
					"type": "constructor"
				},
				{
					"anonymous": false,
					"inputs": [
						{
							"indexed": false,
							"internalType": "address",
							"name": "_player",
							"type": "address"
						},
						{
							"indexed": false,
							"internalType": "bytes32",
							"name": "_hashedChoice",
							"type": "bytes32"
						}
					],
					"name": "commit",
					"type": "event"
				},
				{
					"anonymous": false,
					"inputs": [
						{
							"indexed": false,
							"internalType": "address",
							"name": "_player",
							"type": "address"
						},
						{
							"indexed": false,
							"internalType": "enum RockPaperScissors.Choice",
							"name": "choice",
							"type": "uint8"
						}
					],
					"name": "reveal",
					"type": "event"
				},
				{
					"anonymous": false,
					"inputs": [
						{
							"indexed": false,
							"internalType": "address",
							"name": "_winner",
							"type": "address"
						}
					],
					"name": "sendWinner",
					"type": "event"
				},
				{
					"inputs": [
						{
							"internalType": "address",
							"name": "",
							"type": "address"
						}
					],
					"name": "choices",
					"outputs": [
						{
							"internalType": "bytes32",
							"name": "",
							"type": "bytes32"
						}
					],
					"stateMutability": "view",
					"type": "function"
				},
				{
					"inputs": [
						{
							"internalType": "bytes32",
							"name": "_hashedChoice",
							"type": "bytes32"
						}
					],
					"name": "makeChoice",
					"outputs": [],
					"stateMutability": "nonpayable",
					"type": "function"
				},
				{
					"inputs": [
						{
							"internalType": "uint256",
							"name": "_choice",
							"type": "uint256"
						},
						{
							"internalType": "bytes32",
							"name": "_secret",
							"type": "bytes32"
						}
					],
					"name": "revealChoices",
					"outputs": [],
					"stateMutability": "nonpayable",
					"type": "function"
				},
				{
					"inputs": [
						{
							"internalType": "address",
							"name": "",
							"type": "address"
						}
					],
					"name": "revealedChoice",
					"outputs": [
						{
							"internalType": "enum RockPaperScissors.Choice",
							"name": "",
							"type": "uint8"
						}
					],
					"stateMutability": "view",
					"type": "function"
				}
			],
			"devdoc": {
				"kind": "dev",
				"methods": {},
				"version": 1
			},
			"evm": {
				"assembly": "    /* \"contracts/RockPaperScissors.sol\":62:2618  contract RockPaperScissors {\r... */\n  mstore(0x40, 0x80)\n    /* \"contracts/RockPaperScissors.sol\":518:534  constructor() {} */\n  callvalue\n  dup1\n  iszero\n  tag_1\n  jumpi\n  0x00\n  dup1\n  revert\ntag_1:\n  pop\n    /* \"contracts/RockPaperScissors.sol\":62:2618  contract RockPaperScissors {\r... */\n  dataSize(sub_0)\n  dup1\n  dataOffset(sub_0)\n  0x00\n  codecopy\n  0x00\n  return\nstop\n\nsub_0: assembly {\n        /* \"contracts/RockPaperScissors.sol\":62:2618  contract RockPaperScissors {\r... */\n      mstore(0x40, 0x80)\n      callvalue\n      dup1\n      iszero\n      tag_1\n      jumpi\n      0x00\n      dup1\n      revert\n    tag_1:\n      pop\n      jumpi(tag_2, lt(calldatasize, 0x04))\n      shr(0xe0, calldataload(0x00))\n      dup1\n      0x410346b3\n      eq\n      tag_3\n      jumpi\n      dup1\n      0xa3b99089\n      eq\n      tag_4\n      jumpi\n      dup1\n      0xc1d5383c\n      eq\n      tag_5\n      jumpi\n      dup1\n      0xfce55812\n      eq\n      tag_6\n      jumpi\n    tag_2:\n      0x00\n      dup1\n      revert\n        /* \"contracts/RockPaperScissors.sol\":386:428  mapping(address => bytes32) public choices */\n    tag_3:\n      tag_7\n      0x04\n      dup1\n      calldatasize\n      sub\n      dup2\n      add\n      swap1\n      tag_8\n      swap2\n      swap1\n      tag_9\n      jump\t// in\n    tag_8:\n      tag_10\n      jump\t// in\n    tag_7:\n      mload(0x40)\n      tag_11\n      swap2\n      swap1\n      tag_12\n      jump\t// in\n    tag_11:\n      mload(0x40)\n      dup1\n      swap2\n      sub\n      swap1\n      return\n        /* \"contracts/RockPaperScissors.sol\":461:509  mapping(address => Choice) public revealedChoice */\n    tag_4:\n      tag_13\n      0x04\n      dup1\n      calldatasize\n      sub\n      dup2\n      add\n      swap1\n      tag_14\n      swap2\n      swap1\n      tag_9\n      jump\t// in\n    tag_14:\n      tag_15\n      jump\t// in\n    tag_13:\n      mload(0x40)\n      tag_16\n      swap2\n      swap1\n      tag_17\n      jump\t// in\n    tag_16:\n      mload(0x40)\n      dup1\n      swap2\n      sub\n      swap1\n      return\n        /* \"contracts/RockPaperScissors.sol\":1653:2112  function revealChoices(uint _choice, bytes32 _secret) external revealStage {\r... */\n    tag_5:\n      tag_18\n      0x04\n      dup1\n      calldatasize\n      sub\n      dup2\n      add\n      swap1\n      tag_19\n      swap2\n      swap1\n      tag_20\n      jump\t// in\n    tag_19:\n      tag_21\n      jump\t// in\n    tag_18:\n      stop\n        /* \"contracts/RockPaperScissors.sol\":1355:1645  function makeChoice(bytes32 _hashedChoice) external chooseStage {\r... */\n    tag_6:\n      tag_22\n      0x04\n      dup1\n      calldatasize\n      sub\n      dup2\n      add\n      swap1\n      tag_23\n      swap2\n      swap1\n      tag_24\n      jump\t// in\n    tag_23:\n      tag_25\n      jump\t// in\n    tag_22:\n      stop\n        /* \"contracts/RockPaperScissors.sol\":386:428  mapping(address => bytes32) public choices */\n    tag_10:\n      mstore(0x20, 0x02)\n      dup1\n      0x00\n      mstore\n      keccak256(0x00, 0x40)\n      0x00\n      swap2\n      pop\n      swap1\n      pop\n      sload\n      dup2\n      jump\t// out\n        /* \"contracts/RockPaperScissors.sol\":461:509  mapping(address => Choice) public revealedChoice */\n    tag_15:\n      mstore(0x20, 0x04)\n      dup1\n      0x00\n      mstore\n      keccak256(0x00, 0x40)\n      0x00\n      swap2\n      pop\n      sload\n      swap1\n      0x0100\n      exp\n      swap1\n      div\n      0xff\n      and\n      dup2\n      jump\t// out\n        /* \"contracts/RockPaperScissors.sol\":1653:2112  function revealChoices(uint _choice, bytes32 _secret) external revealStage {\r... */\n    tag_21:\n        /* \"contracts/RockPaperScissors.sol\":789:802  isChooseStage */\n      0x01\n      0x14\n      swap1\n      sload\n      swap1\n      0x0100\n      exp\n      swap1\n      div\n      0xff\n      and\n        /* \"contracts/RockPaperScissors.sol\":788:802  !isChooseStage */\n      iszero\n        /* \"contracts/RockPaperScissors.sol\":780:841  require(!isChooseStage, \"Choose stage haven't finished yet!\") */\n      tag_27\n      jumpi\n      mload(0x40)\n      0x08c379a000000000000000000000000000000000000000000000000000000000\n      dup2\n      mstore\n      0x04\n      add\n      tag_28\n      swap1\n      tag_29\n      jump\t// in\n    tag_28:\n      mload(0x40)\n      dup1\n      swap2\n      sub\n      swap1\n      revert\n    tag_27:\n        /* \"contracts/RockPaperScissors.sol\":1777:1788  Choice.None */\n      0x00\n        /* \"contracts/RockPaperScissors.sol\":1747:1788  revealedChoice[msg.sender] == Choice.None */\n      0x03\n      dup2\n      gt\n      iszero\n      tag_31\n      jumpi\n      tag_32\n      tag_33\n      jump\t// in\n    tag_32:\n    tag_31:\n        /* \"contracts/RockPaperScissors.sol\":1747:1761  revealedChoice */\n      0x04\n        /* \"contracts/RockPaperScissors.sol\":1747:1773  revealedChoice[msg.sender] */\n      0x00\n        /* \"contracts/RockPaperScissors.sol\":1762:1772  msg.sender */\n      caller\n        /* \"contracts/RockPaperScissors.sol\":1747:1773  revealedChoice[msg.sender] */\n      0xffffffffffffffffffffffffffffffffffffffff\n      and\n      0xffffffffffffffffffffffffffffffffffffffff\n      and\n      dup2\n      mstore\n      0x20\n      add\n      swap1\n      dup2\n      mstore\n      0x20\n      add\n      0x00\n      keccak256\n      0x00\n      swap1\n      sload\n      swap1\n      0x0100\n      exp\n      swap1\n      div\n      0xff\n      and\n        /* \"contracts/RockPaperScissors.sol\":1747:1788  revealedChoice[msg.sender] == Choice.None */\n      0x03\n      dup2\n      gt\n      iszero\n      tag_34\n      jumpi\n      tag_35\n      tag_33\n      jump\t// in\n    tag_35:\n    tag_34:\n      eq\n        /* \"contracts/RockPaperScissors.sol\":1739:1826  require(revealedChoice[msg.sender] == Choice.None, \"You already revealed your choice!\") */\n      tag_36\n      jumpi\n      mload(0x40)\n      0x08c379a000000000000000000000000000000000000000000000000000000000\n      dup2\n      mstore\n      0x04\n      add\n      tag_37\n      swap1\n      tag_38\n      jump\t// in\n    tag_37:\n      mload(0x40)\n      dup1\n      swap2\n      sub\n      swap1\n      revert\n    tag_36:\n        /* \"contracts/RockPaperScissors.sol\":1906:1913  choices */\n      0x02\n        /* \"contracts/RockPaperScissors.sol\":1906:1925  choices[msg.sender] */\n      0x00\n        /* \"contracts/RockPaperScissors.sol\":1914:1924  msg.sender */\n      caller\n        /* \"contracts/RockPaperScissors.sol\":1906:1925  choices[msg.sender] */\n      0xffffffffffffffffffffffffffffffffffffffff\n      and\n      0xffffffffffffffffffffffffffffffffffffffff\n      and\n      dup2\n      mstore\n      0x20\n      add\n      swap1\n      dup2\n      mstore\n      0x20\n      add\n      0x00\n      keccak256\n      sload\n        /* \"contracts/RockPaperScissors.sol\":1872:1879  _choice */\n      dup3\n        /* \"contracts/RockPaperScissors.sol\":1881:1888  _secret */\n      dup3\n        /* \"contracts/RockPaperScissors.sol\":1890:1900  msg.sender */\n      caller\n        /* \"contracts/RockPaperScissors.sol\":1855:1901  abi.encodePacked(_choice, _secret, msg.sender) */\n      add(0x20, mload(0x40))\n      tag_39\n      swap4\n      swap3\n      swap2\n      swap1\n      tag_40\n      jump\t// in\n    tag_39:\n      mload(0x40)\n      0x20\n      dup2\n      dup4\n      sub\n      sub\n      dup2\n      mstore\n      swap1\n      0x40\n      mstore\n        /* \"contracts/RockPaperScissors.sol\":1845:1902  keccak256(abi.encodePacked(_choice, _secret, msg.sender)) */\n      dup1\n      mload\n      swap1\n      0x20\n      add\n      keccak256\n        /* \"contracts/RockPaperScissors.sol\":1845:1925  keccak256(abi.encodePacked(_choice, _secret, msg.sender)) == choices[msg.sender] */\n      eq\n        /* \"contracts/RockPaperScissors.sol\":1837:1970  require(keccak256(abi.encodePacked(_choice, _secret, msg.sender)) == choices[msg.sender], \"Choice is deffers from what you choosed!\") */\n      tag_41\n      jumpi\n      mload(0x40)\n      0x08c379a000000000000000000000000000000000000000000000000000000000\n      dup2\n      mstore\n      0x04\n      add\n      tag_42\n      swap1\n      tag_43\n      jump\t// in\n    tag_42:\n      mload(0x40)\n      dup1\n      swap2\n      sub\n      swap1\n      revert\n    tag_41:\n        /* \"contracts/RockPaperScissors.sol\":2012:2040  getEnumValueByIndex(_choice) */\n      tag_44\n        /* \"contracts/RockPaperScissors.sol\":2032:2039  _choice */\n      dup3\n        /* \"contracts/RockPaperScissors.sol\":2012:2031  getEnumValueByIndex */\n      tag_45\n        /* \"contracts/RockPaperScissors.sol\":2012:2040  getEnumValueByIndex(_choice) */\n      jump\t// in\n    tag_44:\n        /* \"contracts/RockPaperScissors.sol\":1983:1997  revealedChoice */\n      0x04\n        /* \"contracts/RockPaperScissors.sol\":1983:2009  revealedChoice[msg.sender] */\n      0x00\n        /* \"contracts/RockPaperScissors.sol\":1998:2008  msg.sender */\n      caller\n        /* \"contracts/RockPaperScissors.sol\":1983:2009  revealedChoice[msg.sender] */\n      0xffffffffffffffffffffffffffffffffffffffff\n      and\n      0xffffffffffffffffffffffffffffffffffffffff\n      and\n      dup2\n      mstore\n      0x20\n      add\n      swap1\n      dup2\n      mstore\n      0x20\n      add\n      0x00\n      keccak256\n      0x00\n        /* \"contracts/RockPaperScissors.sol\":1983:2040  revealedChoice[msg.sender] = getEnumValueByIndex(_choice) */\n      0x0100\n      exp\n      dup2\n      sload\n      dup2\n      0xff\n      mul\n      not\n      and\n      swap1\n      dup4\n      0x03\n      dup2\n      gt\n      iszero\n      tag_46\n      jumpi\n      tag_47\n      tag_33\n      jump\t// in\n    tag_47:\n    tag_46:\n      mul\n      or\n      swap1\n      sstore\n      pop\n        /* \"contracts/RockPaperScissors.sol\":2056:2104  reveal(msg.sender, getEnumValueByIndex(_choice)) */\n      0x5a6f3269421694461ff6bf84b6be1922723cedb23a85496d43a1ab67f7ea67fb\n        /* \"contracts/RockPaperScissors.sol\":2063:2073  msg.sender */\n      caller\n        /* \"contracts/RockPaperScissors.sol\":2075:2103  getEnumValueByIndex(_choice) */\n      tag_48\n        /* \"contracts/RockPaperScissors.sol\":2095:2102  _choice */\n      dup5\n        /* \"contracts/RockPaperScissors.sol\":2075:2094  getEnumValueByIndex */\n      tag_45\n        /* \"contracts/RockPaperScissors.sol\":2075:2103  getEnumValueByIndex(_choice) */\n      jump\t// in\n    tag_48:\n        /* \"contracts/RockPaperScissors.sol\":2056:2104  reveal(msg.sender, getEnumValueByIndex(_choice)) */\n      mload(0x40)\n      tag_49\n      swap3\n      swap2\n      swap1\n      tag_50\n      jump\t// in\n    tag_49:\n      mload(0x40)\n      dup1\n      swap2\n      sub\n      swap1\n      log1\n        /* \"contracts/RockPaperScissors.sol\":864:878  peopleRevealed */\n      0x03\n      0x00\n        /* \"contracts/RockPaperScissors.sol\":864:880  peopleRevealed++ */\n      dup2\n      sload\n      dup1\n      swap3\n      swap2\n      swap1\n      tag_51\n      swap1\n      tag_52\n      jump\t// in\n    tag_51:\n      swap2\n      swap1\n      pop\n      sstore\n      pop\n        /* \"contracts/RockPaperScissors.sol\":913:914  2 */\n      0x02\n        /* \"contracts/RockPaperScissors.sol\":895:909  peopleRevealed */\n      sload(0x03)\n        /* \"contracts/RockPaperScissors.sol\":895:914  peopleRevealed == 2 */\n      eq\n        /* \"contracts/RockPaperScissors.sol\":891:995  if (peopleRevealed == 2) {\r... */\n      iszero\n      tag_53\n      jumpi\n        /* \"contracts/RockPaperScissors.sol\":931:945  defineWinner() */\n      tag_54\n        /* \"contracts/RockPaperScissors.sol\":931:943  defineWinner */\n      tag_55\n        /* \"contracts/RockPaperScissors.sol\":931:945  defineWinner() */\n      jump\t// in\n    tag_54:\n        /* \"contracts/RockPaperScissors.sol\":965:983  sendWinner(winner) */\n      0xbfabc6814ae9da8c3d60f2534acc59a54c9ddc4d1ce2c6fc2afef4d447880daf\n        /* \"contracts/RockPaperScissors.sol\":976:982  winner */\n      0x01\n      0x00\n      swap1\n      sload\n      swap1\n      0x0100\n      exp\n      swap1\n      div\n      0xffffffffffffffffffffffffffffffffffffffff\n      and\n        /* \"contracts/RockPaperScissors.sol\":965:983  sendWinner(winner) */\n      mload(0x40)\n      tag_56\n      swap2\n      swap1\n      tag_57\n      jump\t// in\n    tag_56:\n      mload(0x40)\n      dup1\n      swap2\n      sub\n      swap1\n      log1\n        /* \"contracts/RockPaperScissors.sol\":891:995  if (peopleRevealed == 2) {\r... */\n    tag_53:\n        /* \"contracts/RockPaperScissors.sol\":1653:2112  function revealChoices(uint _choice, bytes32 _secret) external revealStage {\r... */\n      pop\n      pop\n      jump\t// out\n        /* \"contracts/RockPaperScissors.sol\":1355:1645  function makeChoice(bytes32 _hashedChoice) external chooseStage {\r... */\n    tag_25:\n        /* \"contracts/RockPaperScissors.sol\":584:597  isChooseStage */\n      0x01\n      0x14\n      swap1\n      sload\n      swap1\n      0x0100\n      exp\n      swap1\n      div\n      0xff\n      and\n        /* \"contracts/RockPaperScissors.sol\":576:632  require(isChooseStage, \"Choose stage already finished!\") */\n      tag_59\n      jumpi\n      mload(0x40)\n      0x08c379a000000000000000000000000000000000000000000000000000000000\n      dup2\n      mstore\n      0x04\n      add\n      tag_60\n      swap1\n      tag_61\n      jump\t// in\n    tag_60:\n      mload(0x40)\n      dup1\n      swap2\n      sub\n      swap1\n      revert\n    tag_59:\n        /* \"contracts/RockPaperScissors.sol\":1469:1470  0 */\n      0x00\n        /* \"contracts/RockPaperScissors.sol\":1461:1471  bytes32(0) */\n      dup1\n      shl\n        /* \"contracts/RockPaperScissors.sol\":1438:1445  choices */\n      0x02\n        /* \"contracts/RockPaperScissors.sol\":1438:1457  choices[msg.sender] */\n      0x00\n        /* \"contracts/RockPaperScissors.sol\":1446:1456  msg.sender */\n      caller\n        /* \"contracts/RockPaperScissors.sol\":1438:1457  choices[msg.sender] */\n      0xffffffffffffffffffffffffffffffffffffffff\n      and\n      0xffffffffffffffffffffffffffffffffffffffff\n      and\n      dup2\n      mstore\n      0x20\n      add\n      swap1\n      dup2\n      mstore\n      0x20\n      add\n      0x00\n      keccak256\n      sload\n        /* \"contracts/RockPaperScissors.sol\":1438:1471  choices[msg.sender] == bytes32(0) */\n      eq\n        /* \"contracts/RockPaperScissors.sol\":1430:1502  require(choices[msg.sender] == bytes32(0), \"You already made a choice!\") */\n      tag_63\n      jumpi\n      mload(0x40)\n      0x08c379a000000000000000000000000000000000000000000000000000000000\n      dup2\n      mstore\n      0x04\n      add\n      tag_64\n      swap1\n      tag_65\n      jump\t// in\n    tag_64:\n      mload(0x40)\n      dup1\n      swap2\n      sub\n      swap1\n      revert\n    tag_63:\n        /* \"contracts/RockPaperScissors.sol\":1515:1525  playerKeys */\n      0x00\n        /* \"contracts/RockPaperScissors.sol\":1531:1541  msg.sender */\n      caller\n        /* \"contracts/RockPaperScissors.sol\":1515:1542  playerKeys.push(msg.sender) */\n      swap1\n      dup1\n      0x01\n      dup2\n      sload\n      add\n      dup1\n      dup3\n      sstore\n      dup1\n      swap2\n      pop\n      pop\n      0x01\n      swap1\n      sub\n      swap1\n      0x00\n      mstore\n      keccak256(0x00, 0x20)\n      add\n      0x00\n      swap1\n      swap2\n      swap1\n      swap2\n      swap1\n      swap2\n      0x0100\n      exp\n      dup2\n      sload\n      dup2\n      0xffffffffffffffffffffffffffffffffffffffff\n      mul\n      not\n      and\n      swap1\n      dup4\n      0xffffffffffffffffffffffffffffffffffffffff\n      and\n      mul\n      or\n      swap1\n      sstore\n      pop\n        /* \"contracts/RockPaperScissors.sol\":1575:1588  _hashedChoice */\n      dup1\n        /* \"contracts/RockPaperScissors.sol\":1553:1560  choices */\n      0x02\n        /* \"contracts/RockPaperScissors.sol\":1553:1572  choices[msg.sender] */\n      0x00\n        /* \"contracts/RockPaperScissors.sol\":1561:1571  msg.sender */\n      caller\n        /* \"contracts/RockPaperScissors.sol\":1553:1572  choices[msg.sender] */\n      0xffffffffffffffffffffffffffffffffffffffff\n      and\n      0xffffffffffffffffffffffffffffffffffffffff\n      and\n      dup2\n      mstore\n      0x20\n      add\n      swap1\n      dup2\n      mstore\n      0x20\n      add\n      0x00\n      keccak256\n        /* \"contracts/RockPaperScissors.sol\":1553:1588  choices[msg.sender] = _hashedChoice */\n      dup2\n      swap1\n      sstore\n      pop\n        /* \"contracts/RockPaperScissors.sol\":1604:1637  commit(msg.sender, _hashedChoice) */\n      0x30f73c991d5cc2b3ba37e592c2cada15a965c615935598e04ac3bc5fc71c3319\n        /* \"contracts/RockPaperScissors.sol\":1611:1621  msg.sender */\n      caller\n        /* \"contracts/RockPaperScissors.sol\":1623:1636  _hashedChoice */\n      dup3\n        /* \"contracts/RockPaperScissors.sol\":1604:1637  commit(msg.sender, _hashedChoice) */\n      mload(0x40)\n      tag_67\n      swap3\n      swap2\n      swap1\n      tag_68\n      jump\t// in\n    tag_67:\n      mload(0x40)\n      dup1\n      swap2\n      sub\n      swap1\n      log1\n        /* \"contracts/RockPaperScissors.sol\":680:681  2 */\n      0x02\n        /* \"contracts/RockPaperScissors.sol\":659:669  playerKeys */\n      0x00\n        /* \"contracts/RockPaperScissors.sol\":659:676  playerKeys.length */\n      dup1\n      sload\n      swap1\n      pop\n        /* \"contracts/RockPaperScissors.sol\":659:681  playerKeys.length == 2 */\n      eq\n        /* \"contracts/RockPaperScissors.sol\":655:731  if (playerKeys.length == 2) {\r... */\n      iszero\n      tag_69\n      jumpi\n        /* \"contracts/RockPaperScissors.sol\":714:719  false */\n      0x00\n        /* \"contracts/RockPaperScissors.sol\":698:711  isChooseStage */\n      0x01\n      0x14\n        /* \"contracts/RockPaperScissors.sol\":698:719  isChooseStage = false */\n      0x0100\n      exp\n      dup2\n      sload\n      dup2\n      0xff\n      mul\n      not\n      and\n      swap1\n      dup4\n      iszero\n      iszero\n      mul\n      or\n      swap1\n      sstore\n      pop\n        /* \"contracts/RockPaperScissors.sol\":655:731  if (playerKeys.length == 2) {\r... */\n    tag_69:\n        /* \"contracts/RockPaperScissors.sol\":1355:1645  function makeChoice(bytes32 _hashedChoice) external chooseStage {\r... */\n      pop\n      jump\t// out\n        /* \"contracts/RockPaperScissors.sol\":1010:1347  function getEnumValueByIndex(uint _choice) private returns (Choice) {\r... */\n    tag_45:\n        /* \"contracts/RockPaperScissors.sol\":1070:1076  Choice */\n      0x00\n        /* \"contracts/RockPaperScissors.sol\":1104:1105  1 */\n      0x01\n        /* \"contracts/RockPaperScissors.sol\":1093:1100  _choice */\n      dup3\n        /* \"contracts/RockPaperScissors.sol\":1093:1105  _choice == 1 */\n      eq\n        /* \"contracts/RockPaperScissors.sol\":1089:1295  if (_choice == 1) {\r... */\n      iszero\n      tag_71\n      jumpi\n        /* \"contracts/RockPaperScissors.sol\":1129:1140  Choice.Rock */\n      0x01\n        /* \"contracts/RockPaperScissors.sol\":1122:1140  return Choice.Rock */\n      swap1\n      pop\n      jump(tag_70)\n        /* \"contracts/RockPaperScissors.sol\":1089:1295  if (_choice == 1) {\r... */\n    tag_71:\n        /* \"contracts/RockPaperScissors.sol\":1173:1174  2 */\n      0x02\n        /* \"contracts/RockPaperScissors.sol\":1162:1169  _choice */\n      dup3\n        /* \"contracts/RockPaperScissors.sol\":1162:1174  _choice == 2 */\n      eq\n        /* \"contracts/RockPaperScissors.sol\":1158:1295  if (_choice == 2) {\r... */\n      iszero\n      tag_73\n      jumpi\n        /* \"contracts/RockPaperScissors.sol\":1198:1210  Choice.Paper */\n      0x02\n        /* \"contracts/RockPaperScissors.sol\":1191:1210  return Choice.Paper */\n      swap1\n      pop\n      jump(tag_70)\n        /* \"contracts/RockPaperScissors.sol\":1158:1295  if (_choice == 2) {\r... */\n    tag_73:\n        /* \"contracts/RockPaperScissors.sol\":1243:1244  3 */\n      0x03\n        /* \"contracts/RockPaperScissors.sol\":1232:1239  _choice */\n      dup3\n        /* \"contracts/RockPaperScissors.sol\":1232:1244  _choice == 3 */\n      eq\n        /* \"contracts/RockPaperScissors.sol\":1228:1295  if (_choice == 3) {\r... */\n      iszero\n      tag_75\n      jumpi\n        /* \"contracts/RockPaperScissors.sol\":1268:1283  Choice.Scissors */\n      0x03\n        /* \"contracts/RockPaperScissors.sol\":1261:1283  return Choice.Scissors */\n      swap1\n      pop\n      jump(tag_70)\n        /* \"contracts/RockPaperScissors.sol\":1228:1295  if (_choice == 3) {\r... */\n    tag_75:\n        /* \"contracts/RockPaperScissors.sol\":1305:1339  revert(\"Incorrect choice number!\") */\n      mload(0x40)\n      0x08c379a000000000000000000000000000000000000000000000000000000000\n      dup2\n      mstore\n      0x04\n      add\n      tag_76\n      swap1\n      tag_77\n      jump\t// in\n    tag_76:\n      mload(0x40)\n      dup1\n      swap2\n      sub\n      swap1\n      revert\n        /* \"contracts/RockPaperScissors.sol\":1010:1347  function getEnumValueByIndex(uint _choice) private returns (Choice) {\r... */\n    tag_70:\n      swap2\n      swap1\n      pop\n      jump\t// out\n        /* \"contracts/RockPaperScissors.sol\":2120:2615  function defineWinner() private {\r... */\n    tag_55:\n        /* \"contracts/RockPaperScissors.sol\":2163:2175  Choice first */\n      0x00\n        /* \"contracts/RockPaperScissors.sol\":2178:2192  revealedChoice */\n      0x04\n        /* \"contracts/RockPaperScissors.sol\":2178:2207  revealedChoice[playerKeys[0]] */\n      0x00\n        /* \"contracts/RockPaperScissors.sol\":2193:2203  playerKeys */\n      dup1\n        /* \"contracts/RockPaperScissors.sol\":2204:2205  0 */\n      0x00\n        /* \"contracts/RockPaperScissors.sol\":2193:2206  playerKeys[0] */\n      dup2\n      sload\n      dup2\n      lt\n      tag_79\n      jumpi\n      tag_80\n      tag_81\n      jump\t// in\n    tag_80:\n    tag_79:\n      swap1\n      0x00\n      mstore\n      keccak256(0x00, 0x20)\n      add\n      0x00\n      swap1\n      sload\n      swap1\n      0x0100\n      exp\n      swap1\n      div\n      0xffffffffffffffffffffffffffffffffffffffff\n      and\n        /* \"contracts/RockPaperScissors.sol\":2178:2207  revealedChoice[playerKeys[0]] */\n      0xffffffffffffffffffffffffffffffffffffffff\n      and\n      0xffffffffffffffffffffffffffffffffffffffff\n      and\n      dup2\n      mstore\n      0x20\n      add\n      swap1\n      dup2\n      mstore\n      0x20\n      add\n      0x00\n      keccak256\n      0x00\n      swap1\n      sload\n      swap1\n      0x0100\n      exp\n      swap1\n      div\n      0xff\n      and\n        /* \"contracts/RockPaperScissors.sol\":2163:2207  Choice first = revealedChoice[playerKeys[0]] */\n      swap1\n      pop\n        /* \"contracts/RockPaperScissors.sol\":2218:2231  Choice second */\n      0x00\n        /* \"contracts/RockPaperScissors.sol\":2234:2248  revealedChoice */\n      0x04\n        /* \"contracts/RockPaperScissors.sol\":2234:2263  revealedChoice[playerKeys[1]] */\n      0x00\n        /* \"contracts/RockPaperScissors.sol\":2249:2259  playerKeys */\n      dup1\n        /* \"contracts/RockPaperScissors.sol\":2260:2261  1 */\n      0x01\n        /* \"contracts/RockPaperScissors.sol\":2249:2262  playerKeys[1] */\n      dup2\n      sload\n      dup2\n      lt\n      tag_83\n      jumpi\n      tag_84\n      tag_81\n      jump\t// in\n    tag_84:\n    tag_83:\n      swap1\n      0x00\n      mstore\n      keccak256(0x00, 0x20)\n      add\n      0x00\n      swap1\n      sload\n      swap1\n      0x0100\n      exp\n      swap1\n      div\n      0xffffffffffffffffffffffffffffffffffffffff\n      and\n        /* \"contracts/RockPaperScissors.sol\":2234:2263  revealedChoice[playerKeys[1]] */\n      0xffffffffffffffffffffffffffffffffffffffff\n      and\n      0xffffffffffffffffffffffffffffffffffffffff\n      and\n      dup2\n      mstore\n      0x20\n      add\n      swap1\n      dup2\n      mstore\n      0x20\n      add\n      0x00\n      keccak256\n      0x00\n      swap1\n      sload\n      swap1\n      0x0100\n      exp\n      swap1\n      div\n      0xff\n      and\n        /* \"contracts/RockPaperScissors.sol\":2218:2263  Choice second = revealedChoice[playerKeys[1]] */\n      swap1\n      pop\n        /* \"contracts/RockPaperScissors.sol\":2289:2295  second */\n      dup1\n        /* \"contracts/RockPaperScissors.sol\":2280:2295  first != second */\n      0x03\n      dup2\n      gt\n      iszero\n      tag_86\n      jumpi\n      tag_87\n      tag_33\n      jump\t// in\n    tag_87:\n    tag_86:\n        /* \"contracts/RockPaperScissors.sol\":2280:2285  first */\n      dup3\n        /* \"contracts/RockPaperScissors.sol\":2280:2295  first != second */\n      0x03\n      dup2\n      gt\n      iszero\n      tag_88\n      jumpi\n      tag_89\n      tag_33\n      jump\t// in\n    tag_89:\n    tag_88:\n      eq\n        /* \"contracts/RockPaperScissors.sol\":2276:2608  if (first != second) {\r... */\n      tag_90\n      jumpi\n        /* \"contracts/RockPaperScissors.sol\":2326:2337  Choice.Rock */\n      0x01\n        /* \"contracts/RockPaperScissors.sol\":2317:2337  first == Choice.Rock */\n      0x03\n      dup2\n      gt\n      iszero\n      tag_91\n      jumpi\n      tag_92\n      tag_33\n      jump\t// in\n    tag_92:\n    tag_91:\n        /* \"contracts/RockPaperScissors.sol\":2317:2322  first */\n      dup3\n        /* \"contracts/RockPaperScissors.sol\":2317:2337  first == Choice.Rock */\n      0x03\n      dup2\n      gt\n      iszero\n      tag_93\n      jumpi\n      tag_94\n      tag_33\n      jump\t// in\n    tag_94:\n    tag_93:\n      eq\n        /* \"contracts/RockPaperScissors.sol\":2317:2363  first == Choice.Rock && second == Choice.Paper */\n      dup1\n      iszero\n      tag_95\n      jumpi\n      pop\n        /* \"contracts/RockPaperScissors.sol\":2351:2363  Choice.Paper */\n      0x02\n        /* \"contracts/RockPaperScissors.sol\":2341:2363  second == Choice.Paper */\n      0x03\n      dup2\n      gt\n      iszero\n      tag_96\n      jumpi\n      tag_97\n      tag_33\n      jump\t// in\n    tag_97:\n    tag_96:\n        /* \"contracts/RockPaperScissors.sol\":2341:2347  second */\n      dup2\n        /* \"contracts/RockPaperScissors.sol\":2341:2363  second == Choice.Paper */\n      0x03\n      dup2\n      gt\n      iszero\n      tag_98\n      jumpi\n      tag_99\n      tag_33\n      jump\t// in\n    tag_99:\n    tag_98:\n      eq\n        /* \"contracts/RockPaperScissors.sol\":2317:2363  first == Choice.Rock && second == Choice.Paper */\n    tag_95:\n        /* \"contracts/RockPaperScissors.sol\":2316:2420  (first == Choice.Rock && second == Choice.Paper) || (first == Choice.Paper && second == Choice.Scissors) */\n      dup1\n      tag_100\n      jumpi\n      pop\n        /* \"contracts/RockPaperScissors.sol\":2378:2390  Choice.Paper */\n      0x02\n        /* \"contracts/RockPaperScissors.sol\":2369:2390  first == Choice.Paper */\n      0x03\n      dup2\n      gt\n      iszero\n      tag_101\n      jumpi\n      tag_102\n      tag_33\n      jump\t// in\n    tag_102:\n    tag_101:\n        /* \"contracts/RockPaperScissors.sol\":2369:2374  first */\n      dup3\n        /* \"contracts/RockPaperScissors.sol\":2369:2390  first == Choice.Paper */\n      0x03\n      dup2\n      gt\n      iszero\n      tag_103\n      jumpi\n      tag_104\n      tag_33\n      jump\t// in\n    tag_104:\n    tag_103:\n      eq\n        /* \"contracts/RockPaperScissors.sol\":2369:2419  first == Choice.Paper && second == Choice.Scissors */\n      dup1\n      iszero\n      tag_105\n      jumpi\n      pop\n        /* \"contracts/RockPaperScissors.sol\":2404:2419  Choice.Scissors */\n      0x03\n        /* \"contracts/RockPaperScissors.sol\":2394:2419  second == Choice.Scissors */\n      dup1\n      dup2\n      gt\n      iszero\n      tag_106\n      jumpi\n      tag_107\n      tag_33\n      jump\t// in\n    tag_107:\n    tag_106:\n        /* \"contracts/RockPaperScissors.sol\":2394:2400  second */\n      dup2\n        /* \"contracts/RockPaperScissors.sol\":2394:2419  second == Choice.Scissors */\n      0x03\n      dup2\n      gt\n      iszero\n      tag_108\n      jumpi\n      tag_109\n      tag_33\n      jump\t// in\n    tag_109:\n    tag_108:\n      eq\n        /* \"contracts/RockPaperScissors.sol\":2369:2419  first == Choice.Paper && second == Choice.Scissors */\n    tag_105:\n        /* \"contracts/RockPaperScissors.sol\":2316:2420  (first == Choice.Rock && second == Choice.Paper) || (first == Choice.Paper && second == Choice.Scissors) */\n    tag_100:\n        /* \"contracts/RockPaperScissors.sol\":2316:2475  (first == Choice.Rock && second == Choice.Paper) || (first == Choice.Paper && second == Choice.Scissors) || (first == Choice.Scissors && second == Choice.Rock) */\n      dup1\n      tag_110\n      jumpi\n      pop\n        /* \"contracts/RockPaperScissors.sol\":2434:2449  Choice.Scissors */\n      0x03\n        /* \"contracts/RockPaperScissors.sol\":2425:2449  first == Choice.Scissors */\n      dup1\n      dup2\n      gt\n      iszero\n      tag_111\n      jumpi\n      tag_112\n      tag_33\n      jump\t// in\n    tag_112:\n    tag_111:\n        /* \"contracts/RockPaperScissors.sol\":2425:2430  first */\n      dup3\n        /* \"contracts/RockPaperScissors.sol\":2425:2449  first == Choice.Scissors */\n      0x03\n      dup2\n      gt\n      iszero\n      tag_113\n      jumpi\n      tag_114\n      tag_33\n      jump\t// in\n    tag_114:\n    tag_113:\n      eq\n        /* \"contracts/RockPaperScissors.sol\":2425:2474  first == Choice.Scissors && second == Choice.Rock */\n      dup1\n      iszero\n      tag_115\n      jumpi\n      pop\n        /* \"contracts/RockPaperScissors.sol\":2463:2474  Choice.Rock */\n      0x01\n        /* \"contracts/RockPaperScissors.sol\":2453:2474  second == Choice.Rock */\n      0x03\n      dup2\n      gt\n      iszero\n      tag_116\n      jumpi\n      tag_117\n      tag_33\n      jump\t// in\n    tag_117:\n    tag_116:\n        /* \"contracts/RockPaperScissors.sol\":2453:2459  second */\n      dup2\n        /* \"contracts/RockPaperScissors.sol\":2453:2474  second == Choice.Rock */\n      0x03\n      dup2\n      gt\n      iszero\n      tag_118\n      jumpi\n      tag_119\n      tag_33\n      jump\t// in\n    tag_119:\n    tag_118:\n      eq\n        /* \"contracts/RockPaperScissors.sol\":2425:2474  first == Choice.Scissors && second == Choice.Rock */\n    tag_115:\n        /* \"contracts/RockPaperScissors.sol\":2316:2475  (first == Choice.Rock && second == Choice.Paper) || (first == Choice.Paper && second == Choice.Scissors) || (first == Choice.Scissors && second == Choice.Rock) */\n    tag_110:\n        /* \"contracts/RockPaperScissors.sol\":2312:2597  if ((first == Choice.Rock && second == Choice.Paper) || (first == Choice.Paper && second == Choice.Scissors) || (first == Choice.Scissors && second == Choice.Rock)) {\r... */\n      iszero\n      tag_120\n      jumpi\n        /* \"contracts/RockPaperScissors.sol\":2505:2515  playerKeys */\n      0x00\n        /* \"contracts/RockPaperScissors.sol\":2516:2517  1 */\n      0x01\n        /* \"contracts/RockPaperScissors.sol\":2505:2518  playerKeys[1] */\n      dup2\n      sload\n      dup2\n      lt\n      tag_121\n      jumpi\n      tag_122\n      tag_81\n      jump\t// in\n    tag_122:\n    tag_121:\n      swap1\n      0x00\n      mstore\n      keccak256(0x00, 0x20)\n      add\n      0x00\n      swap1\n      sload\n      swap1\n      0x0100\n      exp\n      swap1\n      div\n      0xffffffffffffffffffffffffffffffffffffffff\n      and\n        /* \"contracts/RockPaperScissors.sol\":2496:2502  winner */\n      0x01\n      0x00\n        /* \"contracts/RockPaperScissors.sol\":2496:2518  winner = playerKeys[1] */\n      0x0100\n      exp\n      dup2\n      sload\n      dup2\n      0xffffffffffffffffffffffffffffffffffffffff\n      mul\n      not\n      and\n      swap1\n      dup4\n      0xffffffffffffffffffffffffffffffffffffffff\n      and\n      mul\n      or\n      swap1\n      sstore\n      pop\n        /* \"contracts/RockPaperScissors.sol\":2312:2597  if ((first == Choice.Rock && second == Choice.Paper) || (first == Choice.Paper && second == Choice.Scissors) || (first == Choice.Scissors && second == Choice.Rock)) {\r... */\n      jump(tag_124)\n    tag_120:\n        /* \"contracts/RockPaperScissors.sol\":2568:2578  playerKeys */\n      0x00\n        /* \"contracts/RockPaperScissors.sol\":2579:2580  0 */\n      dup1\n        /* \"contracts/RockPaperScissors.sol\":2568:2581  playerKeys[0] */\n      dup2\n      sload\n      dup2\n      lt\n      tag_125\n      jumpi\n      tag_126\n      tag_81\n      jump\t// in\n    tag_126:\n    tag_125:\n      swap1\n      0x00\n      mstore\n      keccak256(0x00, 0x20)\n      add\n      0x00\n      swap1\n      sload\n      swap1\n      0x0100\n      exp\n      swap1\n      div\n      0xffffffffffffffffffffffffffffffffffffffff\n      and\n        /* \"contracts/RockPaperScissors.sol\":2559:2565  winner */\n      0x01\n      0x00\n        /* \"contracts/RockPaperScissors.sol\":2559:2581  winner = playerKeys[0] */\n      0x0100\n      exp\n      dup2\n      sload\n      dup2\n      0xffffffffffffffffffffffffffffffffffffffff\n      mul\n      not\n      and\n      swap1\n      dup4\n      0xffffffffffffffffffffffffffffffffffffffff\n      and\n      mul\n      or\n      swap1\n      sstore\n      pop\n        /* \"contracts/RockPaperScissors.sol\":2312:2597  if ((first == Choice.Rock && second == Choice.Paper) || (first == Choice.Paper && second == Choice.Scissors) || (first == Choice.Scissors && second == Choice.Rock)) {\r... */\n    tag_124:\n        /* \"contracts/RockPaperScissors.sol\":2276:2608  if (first != second) {\r... */\n    tag_90:\n        /* \"contracts/RockPaperScissors.sol\":2152:2615  {\r... */\n      pop\n      pop\n        /* \"contracts/RockPaperScissors.sol\":2120:2615  function defineWinner() private {\r... */\n      jump\t// out\n        /* \"#utility.yul\":7:146   */\n    tag_129:\n        /* \"#utility.yul\":53:58   */\n      0x00\n        /* \"#utility.yul\":91:97   */\n      dup2\n        /* \"#utility.yul\":78:98   */\n      calldataload\n        /* \"#utility.yul\":69:98   */\n      swap1\n      pop\n        /* \"#utility.yul\":107:140   */\n      tag_131\n        /* \"#utility.yul\":134:139   */\n      dup2\n        /* \"#utility.yul\":107:140   */\n      tag_132\n      jump\t// in\n    tag_131:\n        /* \"#utility.yul\":7:146   */\n      swap3\n      swap2\n      pop\n      pop\n      jump\t// out\n        /* \"#utility.yul\":152:291   */\n    tag_133:\n        /* \"#utility.yul\":198:203   */\n      0x00\n        /* \"#utility.yul\":236:242   */\n      dup2\n        /* \"#utility.yul\":223:243   */\n      calldataload\n        /* \"#utility.yul\":214:243   */\n      swap1\n      pop\n        /* \"#utility.yul\":252:285   */\n      tag_135\n        /* \"#utility.yul\":279:284   */\n      dup2\n        /* \"#utility.yul\":252:285   */\n      tag_136\n      jump\t// in\n    tag_135:\n        /* \"#utility.yul\":152:291   */\n      swap3\n      swap2\n      pop\n      pop\n      jump\t// out\n        /* \"#utility.yul\":297:436   */\n    tag_137:\n        /* \"#utility.yul\":343:348   */\n      0x00\n        /* \"#utility.yul\":381:387   */\n      dup2\n        /* \"#utility.yul\":368:388   */\n      calldataload\n        /* \"#utility.yul\":359:388   */\n      swap1\n      pop\n        /* \"#utility.yul\":397:430   */\n      tag_139\n        /* \"#utility.yul\":424:429   */\n      dup2\n        /* \"#utility.yul\":397:430   */\n      tag_140\n      jump\t// in\n    tag_139:\n        /* \"#utility.yul\":297:436   */\n      swap3\n      swap2\n      pop\n      pop\n      jump\t// out\n        /* \"#utility.yul\":442:771   */\n    tag_9:\n        /* \"#utility.yul\":501:507   */\n      0x00\n        /* \"#utility.yul\":550:552   */\n      0x20\n        /* \"#utility.yul\":538:547   */\n      dup3\n        /* \"#utility.yul\":529:536   */\n      dup5\n        /* \"#utility.yul\":525:548   */\n      sub\n        /* \"#utility.yul\":521:553   */\n      slt\n        /* \"#utility.yul\":518:637   */\n      iszero\n      tag_142\n      jumpi\n        /* \"#utility.yul\":556:635   */\n      tag_143\n      tag_144\n      jump\t// in\n    tag_143:\n        /* \"#utility.yul\":518:637   */\n    tag_142:\n        /* \"#utility.yul\":676:677   */\n      0x00\n        /* \"#utility.yul\":701:754   */\n      tag_145\n        /* \"#utility.yul\":746:753   */\n      dup5\n        /* \"#utility.yul\":737:743   */\n      dup3\n        /* \"#utility.yul\":726:735   */\n      dup6\n        /* \"#utility.yul\":722:744   */\n      add\n        /* \"#utility.yul\":701:754   */\n      tag_129\n      jump\t// in\n    tag_145:\n        /* \"#utility.yul\":691:754   */\n      swap2\n      pop\n        /* \"#utility.yul\":647:764   */\n      pop\n        /* \"#utility.yul\":442:771   */\n      swap3\n      swap2\n      pop\n      pop\n      jump\t// out\n        /* \"#utility.yul\":777:1106   */\n    tag_24:\n        /* \"#utility.yul\":836:842   */\n      0x00\n        /* \"#utility.yul\":885:887   */\n      0x20\n        /* \"#utility.yul\":873:882   */\n      dup3\n        /* \"#utility.yul\":864:871   */\n      dup5\n        /* \"#utility.yul\":860:883   */\n      sub\n        /* \"#utility.yul\":856:888   */\n      slt\n        /* \"#utility.yul\":853:972   */\n      iszero\n      tag_147\n      jumpi\n        /* \"#utility.yul\":891:970   */\n      tag_148\n      tag_144\n      jump\t// in\n    tag_148:\n        /* \"#utility.yul\":853:972   */\n    tag_147:\n        /* \"#utility.yul\":1011:1012   */\n      0x00\n        /* \"#utility.yul\":1036:1089   */\n      tag_149\n        /* \"#utility.yul\":1081:1088   */\n      dup5\n        /* \"#utility.yul\":1072:1078   */\n      dup3\n        /* \"#utility.yul\":1061:1070   */\n      dup6\n        /* \"#utility.yul\":1057:1079   */\n      add\n        /* \"#utility.yul\":1036:1089   */\n      tag_133\n      jump\t// in\n    tag_149:\n        /* \"#utility.yul\":1026:1089   */\n      swap2\n      pop\n        /* \"#utility.yul\":982:1099   */\n      pop\n        /* \"#utility.yul\":777:1106   */\n      swap3\n      swap2\n      pop\n      pop\n      jump\t// out\n        /* \"#utility.yul\":1112:1586   */\n    tag_20:\n        /* \"#utility.yul\":1180:1186   */\n      0x00\n        /* \"#utility.yul\":1188:1194   */\n      dup1\n        /* \"#utility.yul\":1237:1239   */\n      0x40\n        /* \"#utility.yul\":1225:1234   */\n      dup4\n        /* \"#utility.yul\":1216:1223   */\n      dup6\n        /* \"#utility.yul\":1212:1235   */\n      sub\n        /* \"#utility.yul\":1208:1240   */\n      slt\n        /* \"#utility.yul\":1205:1324   */\n      iszero\n      tag_151\n      jumpi\n        /* \"#utility.yul\":1243:1322   */\n      tag_152\n      tag_144\n      jump\t// in\n    tag_152:\n        /* \"#utility.yul\":1205:1324   */\n    tag_151:\n        /* \"#utility.yul\":1363:1364   */\n      0x00\n        /* \"#utility.yul\":1388:1441   */\n      tag_153\n        /* \"#utility.yul\":1433:1440   */\n      dup6\n        /* \"#utility.yul\":1424:1430   */\n      dup3\n        /* \"#utility.yul\":1413:1422   */\n      dup7\n        /* \"#utility.yul\":1409:1431   */\n      add\n        /* \"#utility.yul\":1388:1441   */\n      tag_137\n      jump\t// in\n    tag_153:\n        /* \"#utility.yul\":1378:1441   */\n      swap3\n      pop\n        /* \"#utility.yul\":1334:1451   */\n      pop\n        /* \"#utility.yul\":1490:1492   */\n      0x20\n        /* \"#utility.yul\":1516:1569   */\n      tag_154\n        /* \"#utility.yul\":1561:1568   */\n      dup6\n        /* \"#utility.yul\":1552:1558   */\n      dup3\n        /* \"#utility.yul\":1541:1550   */\n      dup7\n        /* \"#utility.yul\":1537:1559   */\n      add\n        /* \"#utility.yul\":1516:1569   */\n      tag_133\n      jump\t// in\n    tag_154:\n        /* \"#utility.yul\":1506:1569   */\n      swap2\n      pop\n        /* \"#utility.yul\":1461:1579   */\n      pop\n        /* \"#utility.yul\":1112:1586   */\n      swap3\n      pop\n      swap3\n      swap1\n      pop\n      jump\t// out\n        /* \"#utility.yul\":1592:1710   */\n    tag_155:\n        /* \"#utility.yul\":1679:1703   */\n      tag_157\n        /* \"#utility.yul\":1697:1702   */\n      dup2\n        /* \"#utility.yul\":1679:1703   */\n      tag_158\n      jump\t// in\n    tag_157:\n        /* \"#utility.yul\":1674:1677   */\n      dup3\n        /* \"#utility.yul\":1667:1704   */\n      mstore\n        /* \"#utility.yul\":1592:1710   */\n      pop\n      pop\n      jump\t// out\n        /* \"#utility.yul\":1716:1873   */\n    tag_159:\n        /* \"#utility.yul\":1821:1866   */\n      tag_161\n        /* \"#utility.yul\":1841:1865   */\n      tag_162\n        /* \"#utility.yul\":1859:1864   */\n      dup3\n        /* \"#utility.yul\":1841:1865   */\n      tag_158\n      jump\t// in\n    tag_162:\n        /* \"#utility.yul\":1821:1866   */\n      tag_163\n      jump\t// in\n    tag_161:\n        /* \"#utility.yul\":1816:1819   */\n      dup3\n        /* \"#utility.yul\":1809:1867   */\n      mstore\n        /* \"#utility.yul\":1716:1873   */\n      pop\n      pop\n      jump\t// out\n        /* \"#utility.yul\":1879:1997   */\n    tag_164:\n        /* \"#utility.yul\":1966:1990   */\n      tag_166\n        /* \"#utility.yul\":1984:1989   */\n      dup2\n        /* \"#utility.yul\":1966:1990   */\n      tag_167\n      jump\t// in\n    tag_166:\n        /* \"#utility.yul\":1961:1964   */\n      dup3\n        /* \"#utility.yul\":1954:1991   */\n      mstore\n        /* \"#utility.yul\":1879:1997   */\n      pop\n      pop\n      jump\t// out\n        /* \"#utility.yul\":2003:2160   */\n    tag_168:\n        /* \"#utility.yul\":2108:2153   */\n      tag_170\n        /* \"#utility.yul\":2128:2152   */\n      tag_171\n        /* \"#utility.yul\":2146:2151   */\n      dup3\n        /* \"#utility.yul\":2128:2152   */\n      tag_167\n      jump\t// in\n    tag_171:\n        /* \"#utility.yul\":2108:2153   */\n      tag_172\n      jump\t// in\n    tag_170:\n        /* \"#utility.yul\":2103:2106   */\n      dup3\n        /* \"#utility.yul\":2096:2154   */\n      mstore\n        /* \"#utility.yul\":2003:2160   */\n      pop\n      pop\n      jump\t// out\n        /* \"#utility.yul\":2166:2309   */\n    tag_173:\n        /* \"#utility.yul\":2259:2302   */\n      tag_175\n        /* \"#utility.yul\":2296:2301   */\n      dup2\n        /* \"#utility.yul\":2259:2302   */\n      tag_176\n      jump\t// in\n    tag_175:\n        /* \"#utility.yul\":2254:2257   */\n      dup3\n        /* \"#utility.yul\":2247:2303   */\n      mstore\n        /* \"#utility.yul\":2166:2309   */\n      pop\n      pop\n      jump\t// out\n        /* \"#utility.yul\":2315:2681   */\n    tag_177:\n        /* \"#utility.yul\":2457:2460   */\n      0x00\n        /* \"#utility.yul\":2478:2545   */\n      tag_179\n        /* \"#utility.yul\":2542:2544   */\n      0x1e\n        /* \"#utility.yul\":2537:2540   */\n      dup4\n        /* \"#utility.yul\":2478:2545   */\n      tag_180\n      jump\t// in\n    tag_179:\n        /* \"#utility.yul\":2471:2545   */\n      swap2\n      pop\n        /* \"#utility.yul\":2554:2647   */\n      tag_181\n        /* \"#utility.yul\":2643:2646   */\n      dup3\n        /* \"#utility.yul\":2554:2647   */\n      tag_182\n      jump\t// in\n    tag_181:\n        /* \"#utility.yul\":2672:2674   */\n      0x20\n        /* \"#utility.yul\":2667:2670   */\n      dup3\n        /* \"#utility.yul\":2663:2675   */\n      add\n        /* \"#utility.yul\":2656:2675   */\n      swap1\n      pop\n        /* \"#utility.yul\":2315:2681   */\n      swap2\n      swap1\n      pop\n      jump\t// out\n        /* \"#utility.yul\":2687:3053   */\n    tag_183:\n        /* \"#utility.yul\":2829:2832   */\n      0x00\n        /* \"#utility.yul\":2850:2917   */\n      tag_185\n        /* \"#utility.yul\":2914:2916   */\n      0x1a\n        /* \"#utility.yul\":2909:2912   */\n      dup4\n        /* \"#utility.yul\":2850:2917   */\n      tag_180\n      jump\t// in\n    tag_185:\n        /* \"#utility.yul\":2843:2917   */\n      swap2\n      pop\n        /* \"#utility.yul\":2926:3019   */\n      tag_186\n        /* \"#utility.yul\":3015:3018   */\n      dup3\n        /* \"#utility.yul\":2926:3019   */\n      tag_187\n      jump\t// in\n    tag_186:\n        /* \"#utility.yul\":3044:3046   */\n      0x20\n        /* \"#utility.yul\":3039:3042   */\n      dup3\n        /* \"#utility.yul\":3035:3047   */\n      add\n        /* \"#utility.yul\":3028:3047   */\n      swap1\n      pop\n        /* \"#utility.yul\":2687:3053   */\n      swap2\n      swap1\n      pop\n      jump\t// out\n        /* \"#utility.yul\":3059:3425   */\n    tag_188:\n        /* \"#utility.yul\":3201:3204   */\n      0x00\n        /* \"#utility.yul\":3222:3289   */\n      tag_190\n        /* \"#utility.yul\":3286:3288   */\n      0x22\n        /* \"#utility.yul\":3281:3284   */\n      dup4\n        /* \"#utility.yul\":3222:3289   */\n      tag_180\n      jump\t// in\n    tag_190:\n        /* \"#utility.yul\":3215:3289   */\n      swap2\n      pop\n        /* \"#utility.yul\":3298:3391   */\n      tag_191\n        /* \"#utility.yul\":3387:3390   */\n      dup3\n        /* \"#utility.yul\":3298:3391   */\n      tag_192\n      jump\t// in\n    tag_191:\n        /* \"#utility.yul\":3416:3418   */\n      0x40\n        /* \"#utility.yul\":3411:3414   */\n      dup3\n        /* \"#utility.yul\":3407:3419   */\n      add\n        /* \"#utility.yul\":3400:3419   */\n      swap1\n      pop\n        /* \"#utility.yul\":3059:3425   */\n      swap2\n      swap1\n      pop\n      jump\t// out\n        /* \"#utility.yul\":3431:3797   */\n    tag_193:\n        /* \"#utility.yul\":3573:3576   */\n      0x00\n        /* \"#utility.yul\":3594:3661   */\n      tag_195\n        /* \"#utility.yul\":3658:3660   */\n      0x28\n        /* \"#utility.yul\":3653:3656   */\n      dup4\n        /* \"#utility.yul\":3594:3661   */\n      tag_180\n      jump\t// in\n    tag_195:\n        /* \"#utility.yul\":3587:3661   */\n      swap2\n      pop\n        /* \"#utility.yul\":3670:3763   */\n      tag_196\n        /* \"#utility.yul\":3759:3762   */\n      dup3\n        /* \"#utility.yul\":3670:3763   */\n      tag_197\n      jump\t// in\n    tag_196:\n        /* \"#utility.yul\":3788:3790   */\n      0x40\n        /* \"#utility.yul\":3783:3786   */\n      dup3\n        /* \"#utility.yul\":3779:3791   */\n      add\n        /* \"#utility.yul\":3772:3791   */\n      swap1\n      pop\n        /* \"#utility.yul\":3431:3797   */\n      swap2\n      swap1\n      pop\n      jump\t// out\n        /* \"#utility.yul\":3803:4169   */\n    tag_198:\n        /* \"#utility.yul\":3945:3948   */\n      0x00\n        /* \"#utility.yul\":3966:4033   */\n      tag_200\n        /* \"#utility.yul\":4030:4032   */\n      0x21\n        /* \"#utility.yul\":4025:4028   */\n      dup4\n        /* \"#utility.yul\":3966:4033   */\n      tag_180\n      jump\t// in\n    tag_200:\n        /* \"#utility.yul\":3959:4033   */\n      swap2\n      pop\n        /* \"#utility.yul\":4042:4135   */\n      tag_201\n        /* \"#utility.yul\":4131:4134   */\n      dup3\n        /* \"#utility.yul\":4042:4135   */\n      tag_202\n      jump\t// in\n    tag_201:\n        /* \"#utility.yul\":4160:4162   */\n      0x40\n        /* \"#utility.yul\":4155:4158   */\n      dup3\n        /* \"#utility.yul\":4151:4163   */\n      add\n        /* \"#utility.yul\":4144:4163   */\n      swap1\n      pop\n        /* \"#utility.yul\":3803:4169   */\n      swap2\n      swap1\n      pop\n      jump\t// out\n        /* \"#utility.yul\":4175:4541   */\n    tag_203:\n        /* \"#utility.yul\":4317:4320   */\n      0x00\n        /* \"#utility.yul\":4338:4405   */\n      tag_205\n        /* \"#utility.yul\":4402:4404   */\n      0x18\n        /* \"#utility.yul\":4397:4400   */\n      dup4\n        /* \"#utility.yul\":4338:4405   */\n      tag_180\n      jump\t// in\n    tag_205:\n        /* \"#utility.yul\":4331:4405   */\n      swap2\n      pop\n        /* \"#utility.yul\":4414:4507   */\n      tag_206\n        /* \"#utility.yul\":4503:4506   */\n      dup3\n        /* \"#utility.yul\":4414:4507   */\n      tag_207\n      jump\t// in\n    tag_206:\n        /* \"#utility.yul\":4532:4534   */\n      0x20\n        /* \"#utility.yul\":4527:4530   */\n      dup3\n        /* \"#utility.yul\":4523:4535   */\n      add\n        /* \"#utility.yul\":4516:4535   */\n      swap1\n      pop\n        /* \"#utility.yul\":4175:4541   */\n      swap2\n      swap1\n      pop\n      jump\t// out\n        /* \"#utility.yul\":4547:4704   */\n    tag_208:\n        /* \"#utility.yul\":4652:4697   */\n      tag_210\n        /* \"#utility.yul\":4672:4696   */\n      tag_211\n        /* \"#utility.yul\":4690:4695   */\n      dup3\n        /* \"#utility.yul\":4672:4696   */\n      tag_212\n      jump\t// in\n    tag_211:\n        /* \"#utility.yul\":4652:4697   */\n      tag_213\n      jump\t// in\n    tag_210:\n        /* \"#utility.yul\":4647:4650   */\n      dup3\n        /* \"#utility.yul\":4640:4698   */\n      mstore\n        /* \"#utility.yul\":4547:4704   */\n      pop\n      pop\n      jump\t// out\n        /* \"#utility.yul\":4710:5248   */\n    tag_40:\n        /* \"#utility.yul\":4878:4881   */\n      0x00\n        /* \"#utility.yul\":4893:4968   */\n      tag_215\n        /* \"#utility.yul\":4964:4967   */\n      dup3\n        /* \"#utility.yul\":4955:4961   */\n      dup7\n        /* \"#utility.yul\":4893:4968   */\n      tag_208\n      jump\t// in\n    tag_215:\n        /* \"#utility.yul\":4993:4995   */\n      0x20\n        /* \"#utility.yul\":4988:4991   */\n      dup3\n        /* \"#utility.yul\":4984:4996   */\n      add\n        /* \"#utility.yul\":4977:4996   */\n      swap2\n      pop\n        /* \"#utility.yul\":5006:5081   */\n      tag_216\n        /* \"#utility.yul\":5077:5080   */\n      dup3\n        /* \"#utility.yul\":5068:5074   */\n      dup6\n        /* \"#utility.yul\":5006:5081   */\n      tag_168\n      jump\t// in\n    tag_216:\n        /* \"#utility.yul\":5106:5108   */\n      0x20\n        /* \"#utility.yul\":5101:5104   */\n      dup3\n        /* \"#utility.yul\":5097:5109   */\n      add\n        /* \"#utility.yul\":5090:5109   */\n      swap2\n      pop\n        /* \"#utility.yul\":5119:5194   */\n      tag_217\n        /* \"#utility.yul\":5190:5193   */\n      dup3\n        /* \"#utility.yul\":5181:5187   */\n      dup5\n        /* \"#utility.yul\":5119:5194   */\n      tag_159\n      jump\t// in\n    tag_217:\n        /* \"#utility.yul\":5219:5221   */\n      0x14\n        /* \"#utility.yul\":5214:5217   */\n      dup3\n        /* \"#utility.yul\":5210:5222   */\n      add\n        /* \"#utility.yul\":5203:5222   */\n      swap2\n      pop\n        /* \"#utility.yul\":5239:5242   */\n      dup2\n        /* \"#utility.yul\":5232:5242   */\n      swap1\n      pop\n        /* \"#utility.yul\":4710:5248   */\n      swap5\n      swap4\n      pop\n      pop\n      pop\n      pop\n      jump\t// out\n        /* \"#utility.yul\":5254:5476   */\n    tag_57:\n        /* \"#utility.yul\":5347:5351   */\n      0x00\n        /* \"#utility.yul\":5385:5387   */\n      0x20\n        /* \"#utility.yul\":5374:5383   */\n      dup3\n        /* \"#utility.yul\":5370:5388   */\n      add\n        /* \"#utility.yul\":5362:5388   */\n      swap1\n      pop\n        /* \"#utility.yul\":5398:5469   */\n      tag_219\n        /* \"#utility.yul\":5466:5467   */\n      0x00\n        /* \"#utility.yul\":5455:5464   */\n      dup4\n        /* \"#utility.yul\":5451:5468   */\n      add\n        /* \"#utility.yul\":5442:5448   */\n      dup5\n        /* \"#utility.yul\":5398:5469   */\n      tag_155\n      jump\t// in\n    tag_219:\n        /* \"#utility.yul\":5254:5476   */\n      swap3\n      swap2\n      pop\n      pop\n      jump\t// out\n        /* \"#utility.yul\":5482:5814   */\n    tag_68:\n        /* \"#utility.yul\":5603:5607   */\n      0x00\n        /* \"#utility.yul\":5641:5643   */\n      0x40\n        /* \"#utility.yul\":5630:5639   */\n      dup3\n        /* \"#utility.yul\":5626:5644   */\n      add\n        /* \"#utility.yul\":5618:5644   */\n      swap1\n      pop\n        /* \"#utility.yul\":5654:5725   */\n      tag_221\n        /* \"#utility.yul\":5722:5723   */\n      0x00\n        /* \"#utility.yul\":5711:5720   */\n      dup4\n        /* \"#utility.yul\":5707:5724   */\n      add\n        /* \"#utility.yul\":5698:5704   */\n      dup6\n        /* \"#utility.yul\":5654:5725   */\n      tag_155\n      jump\t// in\n    tag_221:\n        /* \"#utility.yul\":5735:5807   */\n      tag_222\n        /* \"#utility.yul\":5803:5805   */\n      0x20\n        /* \"#utility.yul\":5792:5801   */\n      dup4\n        /* \"#utility.yul\":5788:5806   */\n      add\n        /* \"#utility.yul\":5779:5785   */\n      dup5\n        /* \"#utility.yul\":5735:5807   */\n      tag_164\n      jump\t// in\n    tag_222:\n        /* \"#utility.yul\":5482:5814   */\n      swap4\n      swap3\n      pop\n      pop\n      pop\n      jump\t// out\n        /* \"#utility.yul\":5820:6164   */\n    tag_50:\n        /* \"#utility.yul\":5947:5951   */\n      0x00\n        /* \"#utility.yul\":5985:5987   */\n      0x40\n        /* \"#utility.yul\":5974:5983   */\n      dup3\n        /* \"#utility.yul\":5970:5988   */\n      add\n        /* \"#utility.yul\":5962:5988   */\n      swap1\n      pop\n        /* \"#utility.yul\":5998:6069   */\n      tag_224\n        /* \"#utility.yul\":6066:6067   */\n      0x00\n        /* \"#utility.yul\":6055:6064   */\n      dup4\n        /* \"#utility.yul\":6051:6068   */\n      add\n        /* \"#utility.yul\":6042:6048   */\n      dup6\n        /* \"#utility.yul\":5998:6069   */\n      tag_155\n      jump\t// in\n    tag_224:\n        /* \"#utility.yul\":6079:6157   */\n      tag_225\n        /* \"#utility.yul\":6153:6155   */\n      0x20\n        /* \"#utility.yul\":6142:6151   */\n      dup4\n        /* \"#utility.yul\":6138:6156   */\n      add\n        /* \"#utility.yul\":6129:6135   */\n      dup5\n        /* \"#utility.yul\":6079:6157   */\n      tag_173\n      jump\t// in\n    tag_225:\n        /* \"#utility.yul\":5820:6164   */\n      swap4\n      swap3\n      pop\n      pop\n      pop\n      jump\t// out\n        /* \"#utility.yul\":6170:6392   */\n    tag_12:\n        /* \"#utility.yul\":6263:6267   */\n      0x00\n        /* \"#utility.yul\":6301:6303   */\n      0x20\n        /* \"#utility.yul\":6290:6299   */\n      dup3\n        /* \"#utility.yul\":6286:6304   */\n      add\n        /* \"#utility.yul\":6278:6304   */\n      swap1\n      pop\n        /* \"#utility.yul\":6314:6385   */\n      tag_227\n        /* \"#utility.yul\":6382:6383   */\n      0x00\n        /* \"#utility.yul\":6371:6380   */\n      dup4\n        /* \"#utility.yul\":6367:6384   */\n      add\n        /* \"#utility.yul\":6358:6364   */\n      dup5\n        /* \"#utility.yul\":6314:6385   */\n      tag_164\n      jump\t// in\n    tag_227:\n        /* \"#utility.yul\":6170:6392   */\n      swap3\n      swap2\n      pop\n      pop\n      jump\t// out\n        /* \"#utility.yul\":6398:6632   */\n    tag_17:\n        /* \"#utility.yul\":6497:6501   */\n      0x00\n        /* \"#utility.yul\":6535:6537   */\n      0x20\n        /* \"#utility.yul\":6524:6533   */\n      dup3\n        /* \"#utility.yul\":6520:6538   */\n      add\n        /* \"#utility.yul\":6512:6538   */\n      swap1\n      pop\n        /* \"#utility.yul\":6548:6625   */\n      tag_229\n        /* \"#utility.yul\":6622:6623   */\n      0x00\n        /* \"#utility.yul\":6611:6620   */\n      dup4\n        /* \"#utility.yul\":6607:6624   */\n      add\n        /* \"#utility.yul\":6598:6604   */\n      dup5\n        /* \"#utility.yul\":6548:6625   */\n      tag_173\n      jump\t// in\n    tag_229:\n        /* \"#utility.yul\":6398:6632   */\n      swap3\n      swap2\n      pop\n      pop\n      jump\t// out\n        /* \"#utility.yul\":6638:7057   */\n    tag_61:\n        /* \"#utility.yul\":6804:6808   */\n      0x00\n        /* \"#utility.yul\":6842:6844   */\n      0x20\n        /* \"#utility.yul\":6831:6840   */\n      dup3\n        /* \"#utility.yul\":6827:6845   */\n      add\n        /* \"#utility.yul\":6819:6845   */\n      swap1\n      pop\n        /* \"#utility.yul\":6891:6900   */\n      dup2\n        /* \"#utility.yul\":6885:6889   */\n      dup2\n        /* \"#utility.yul\":6881:6901   */\n      sub\n        /* \"#utility.yul\":6877:6878   */\n      0x00\n        /* \"#utility.yul\":6866:6875   */\n      dup4\n        /* \"#utility.yul\":6862:6879   */\n      add\n        /* \"#utility.yul\":6855:6902   */\n      mstore\n        /* \"#utility.yul\":6919:7050   */\n      tag_231\n        /* \"#utility.yul\":7045:7049   */\n      dup2\n        /* \"#utility.yul\":6919:7050   */\n      tag_177\n      jump\t// in\n    tag_231:\n        /* \"#utility.yul\":6911:7050   */\n      swap1\n      pop\n        /* \"#utility.yul\":6638:7057   */\n      swap2\n      swap1\n      pop\n      jump\t// out\n        /* \"#utility.yul\":7063:7482   */\n    tag_65:\n        /* \"#utility.yul\":7229:7233   */\n      0x00\n        /* \"#utility.yul\":7267:7269   */\n      0x20\n        /* \"#utility.yul\":7256:7265   */\n      dup3\n        /* \"#utility.yul\":7252:7270   */\n      add\n        /* \"#utility.yul\":7244:7270   */\n      swap1\n      pop\n        /* \"#utility.yul\":7316:7325   */\n      dup2\n        /* \"#utility.yul\":7310:7314   */\n      dup2\n        /* \"#utility.yul\":7306:7326   */\n      sub\n        /* \"#utility.yul\":7302:7303   */\n      0x00\n        /* \"#utility.yul\":7291:7300   */\n      dup4\n        /* \"#utility.yul\":7287:7304   */\n      add\n        /* \"#utility.yul\":7280:7327   */\n      mstore\n        /* \"#utility.yul\":7344:7475   */\n      tag_233\n        /* \"#utility.yul\":7470:7474   */\n      dup2\n        /* \"#utility.yul\":7344:7475   */\n      tag_183\n      jump\t// in\n    tag_233:\n        /* \"#utility.yul\":7336:7475   */\n      swap1\n      pop\n        /* \"#utility.yul\":7063:7482   */\n      swap2\n      swap1\n      pop\n      jump\t// out\n        /* \"#utility.yul\":7488:7907   */\n    tag_29:\n        /* \"#utility.yul\":7654:7658   */\n      0x00\n        /* \"#utility.yul\":7692:7694   */\n      0x20\n        /* \"#utility.yul\":7681:7690   */\n      dup3\n        /* \"#utility.yul\":7677:7695   */\n      add\n        /* \"#utility.yul\":7669:7695   */\n      swap1\n      pop\n        /* \"#utility.yul\":7741:7750   */\n      dup2\n        /* \"#utility.yul\":7735:7739   */\n      dup2\n        /* \"#utility.yul\":7731:7751   */\n      sub\n        /* \"#utility.yul\":7727:7728   */\n      0x00\n        /* \"#utility.yul\":7716:7725   */\n      dup4\n        /* \"#utility.yul\":7712:7729   */\n      add\n        /* \"#utility.yul\":7705:7752   */\n      mstore\n        /* \"#utility.yul\":7769:7900   */\n      tag_235\n        /* \"#utility.yul\":7895:7899   */\n      dup2\n        /* \"#utility.yul\":7769:7900   */\n      tag_188\n      jump\t// in\n    tag_235:\n        /* \"#utility.yul\":7761:7900   */\n      swap1\n      pop\n        /* \"#utility.yul\":7488:7907   */\n      swap2\n      swap1\n      pop\n      jump\t// out\n        /* \"#utility.yul\":7913:8332   */\n    tag_43:\n        /* \"#utility.yul\":8079:8083   */\n      0x00\n        /* \"#utility.yul\":8117:8119   */\n      0x20\n        /* \"#utility.yul\":8106:8115   */\n      dup3\n        /* \"#utility.yul\":8102:8120   */\n      add\n        /* \"#utility.yul\":8094:8120   */\n      swap1\n      pop\n        /* \"#utility.yul\":8166:8175   */\n      dup2\n        /* \"#utility.yul\":8160:8164   */\n      dup2\n        /* \"#utility.yul\":8156:8176   */\n      sub\n        /* \"#utility.yul\":8152:8153   */\n      0x00\n        /* \"#utility.yul\":8141:8150   */\n      dup4\n        /* \"#utility.yul\":8137:8154   */\n      add\n        /* \"#utility.yul\":8130:8177   */\n      mstore\n        /* \"#utility.yul\":8194:8325   */\n      tag_237\n        /* \"#utility.yul\":8320:8324   */\n      dup2\n        /* \"#utility.yul\":8194:8325   */\n      tag_193\n      jump\t// in\n    tag_237:\n        /* \"#utility.yul\":8186:8325   */\n      swap1\n      pop\n        /* \"#utility.yul\":7913:8332   */\n      swap2\n      swap1\n      pop\n      jump\t// out\n        /* \"#utility.yul\":8338:8757   */\n    tag_38:\n        /* \"#utility.yul\":8504:8508   */\n      0x00\n        /* \"#utility.yul\":8542:8544   */\n      0x20\n        /* \"#utility.yul\":8531:8540   */\n      dup3\n        /* \"#utility.yul\":8527:8545   */\n      add\n        /* \"#utility.yul\":8519:8545   */\n      swap1\n      pop\n        /* \"#utility.yul\":8591:8600   */\n      dup2\n        /* \"#utility.yul\":8585:8589   */\n      dup2\n        /* \"#utility.yul\":8581:8601   */\n      sub\n        /* \"#utility.yul\":8577:8578   */\n      0x00\n        /* \"#utility.yul\":8566:8575   */\n      dup4\n        /* \"#utility.yul\":8562:8579   */\n      add\n        /* \"#utility.yul\":8555:8602   */\n      mstore\n        /* \"#utility.yul\":8619:8750   */\n      tag_239\n        /* \"#utility.yul\":8745:8749   */\n      dup2\n        /* \"#utility.yul\":8619:8750   */\n      tag_198\n      jump\t// in\n    tag_239:\n        /* \"#utility.yul\":8611:8750   */\n      swap1\n      pop\n        /* \"#utility.yul\":8338:8757   */\n      swap2\n      swap1\n      pop\n      jump\t// out\n        /* \"#utility.yul\":8763:9182   */\n    tag_77:\n        /* \"#utility.yul\":8929:8933   */\n      0x00\n        /* \"#utility.yul\":8967:8969   */\n      0x20\n        /* \"#utility.yul\":8956:8965   */\n      dup3\n        /* \"#utility.yul\":8952:8970   */\n      add\n        /* \"#utility.yul\":8944:8970   */\n      swap1\n      pop\n        /* \"#utility.yul\":9016:9025   */\n      dup2\n        /* \"#utility.yul\":9010:9014   */\n      dup2\n        /* \"#utility.yul\":9006:9026   */\n      sub\n        /* \"#utility.yul\":9002:9003   */\n      0x00\n        /* \"#utility.yul\":8991:9000   */\n      dup4\n        /* \"#utility.yul\":8987:9004   */\n      add\n        /* \"#utility.yul\":8980:9027   */\n      mstore\n        /* \"#utility.yul\":9044:9175   */\n      tag_241\n        /* \"#utility.yul\":9170:9174   */\n      dup2\n        /* \"#utility.yul\":9044:9175   */\n      tag_203\n      jump\t// in\n    tag_241:\n        /* \"#utility.yul\":9036:9175   */\n      swap1\n      pop\n        /* \"#utility.yul\":8763:9182   */\n      swap2\n      swap1\n      pop\n      jump\t// out\n        /* \"#utility.yul\":9269:9438   */\n    tag_180:\n        /* \"#utility.yul\":9353:9364   */\n      0x00\n        /* \"#utility.yul\":9387:9393   */\n      dup3\n        /* \"#utility.yul\":9382:9385   */\n      dup3\n        /* \"#utility.yul\":9375:9394   */\n      mstore\n        /* \"#utility.yul\":9427:9431   */\n      0x20\n        /* \"#utility.yul\":9422:9425   */\n      dup3\n        /* \"#utility.yul\":9418:9432   */\n      add\n        /* \"#utility.yul\":9403:9432   */\n      swap1\n      pop\n        /* \"#utility.yul\":9269:9438   */\n      swap3\n      swap2\n      pop\n      pop\n      jump\t// out\n        /* \"#utility.yul\":9444:9540   */\n    tag_158:\n        /* \"#utility.yul\":9481:9488   */\n      0x00\n        /* \"#utility.yul\":9510:9534   */\n      tag_246\n        /* \"#utility.yul\":9528:9533   */\n      dup3\n        /* \"#utility.yul\":9510:9534   */\n      tag_247\n      jump\t// in\n    tag_246:\n        /* \"#utility.yul\":9499:9534   */\n      swap1\n      pop\n        /* \"#utility.yul\":9444:9540   */\n      swap2\n      swap1\n      pop\n      jump\t// out\n        /* \"#utility.yul\":9546:9623   */\n    tag_167:\n        /* \"#utility.yul\":9583:9590   */\n      0x00\n        /* \"#utility.yul\":9612:9617   */\n      dup2\n        /* \"#utility.yul\":9601:9617   */\n      swap1\n      pop\n        /* \"#utility.yul\":9546:9623   */\n      swap2\n      swap1\n      pop\n      jump\t// out\n        /* \"#utility.yul\":9629:9756   */\n    tag_249:\n        /* \"#utility.yul\":9674:9681   */\n      0x00\n        /* \"#utility.yul\":9703:9708   */\n      dup2\n        /* \"#utility.yul\":9692:9708   */\n      swap1\n      pop\n        /* \"#utility.yul\":9709:9750   */\n      tag_251\n        /* \"#utility.yul\":9744:9749   */\n      dup3\n        /* \"#utility.yul\":9709:9750   */\n      tag_252\n      jump\t// in\n    tag_251:\n        /* \"#utility.yul\":9629:9756   */\n      swap2\n      swap1\n      pop\n      jump\t// out\n        /* \"#utility.yul\":9762:9888   */\n    tag_247:\n        /* \"#utility.yul\":9799:9806   */\n      0x00\n        /* \"#utility.yul\":9839:9881   */\n      0xffffffffffffffffffffffffffffffffffffffff\n        /* \"#utility.yul\":9832:9837   */\n      dup3\n        /* \"#utility.yul\":9828:9882   */\n      and\n        /* \"#utility.yul\":9817:9882   */\n      swap1\n      pop\n        /* \"#utility.yul\":9762:9888   */\n      swap2\n      swap1\n      pop\n      jump\t// out\n        /* \"#utility.yul\":9894:9971   */\n    tag_212:\n        /* \"#utility.yul\":9931:9938   */\n      0x00\n        /* \"#utility.yul\":9960:9965   */\n      dup2\n        /* \"#utility.yul\":9949:9965   */\n      swap1\n      pop\n        /* \"#utility.yul\":9894:9971   */\n      swap2\n      swap1\n      pop\n      jump\t// out\n        /* \"#utility.yul\":9977:10104   */\n    tag_176:\n        /* \"#utility.yul\":10033:10042   */\n      0x00\n        /* \"#utility.yul\":10066:10098   */\n      tag_256\n        /* \"#utility.yul\":10092:10097   */\n      dup3\n        /* \"#utility.yul\":10066:10098   */\n      tag_249\n      jump\t// in\n    tag_256:\n        /* \"#utility.yul\":10053:10098   */\n      swap1\n      pop\n        /* \"#utility.yul\":9977:10104   */\n      swap2\n      swap1\n      pop\n      jump\t// out\n        /* \"#utility.yul\":10110:10343   */\n    tag_52:\n        /* \"#utility.yul\":10149:10152   */\n      0x00\n        /* \"#utility.yul\":10172:10196   */\n      tag_258\n        /* \"#utility.yul\":10190:10195   */\n      dup3\n        /* \"#utility.yul\":10172:10196   */\n      tag_212\n      jump\t// in\n    tag_258:\n        /* \"#utility.yul\":10163:10196   */\n      swap2\n      pop\n        /* \"#utility.yul\":10218:10284   */\n      0xffffffffffffffffffffffffffffffffffffffffffffffffffffffffffffffff\n        /* \"#utility.yul\":10211:10216   */\n      dup3\n        /* \"#utility.yul\":10208:10285   */\n      eq\n        /* \"#utility.yul\":10205:10308   */\n      iszero\n      tag_259\n      jumpi\n        /* \"#utility.yul\":10288:10306   */\n      tag_260\n      tag_261\n      jump\t// in\n    tag_260:\n        /* \"#utility.yul\":10205:10308   */\n    tag_259:\n        /* \"#utility.yul\":10335:10336   */\n      0x01\n        /* \"#utility.yul\":10328:10333   */\n      dup3\n        /* \"#utility.yul\":10324:10337   */\n      add\n        /* \"#utility.yul\":10317:10337   */\n      swap1\n      pop\n        /* \"#utility.yul\":10110:10343   */\n      swap2\n      swap1\n      pop\n      jump\t// out\n        /* \"#utility.yul\":10349:10449   */\n    tag_163:\n        /* \"#utility.yul\":10388:10395   */\n      0x00\n        /* \"#utility.yul\":10417:10443   */\n      tag_263\n        /* \"#utility.yul\":10437:10442   */\n      dup3\n        /* \"#utility.yul\":10417:10443   */\n      tag_264\n      jump\t// in\n    tag_263:\n        /* \"#utility.yul\":10406:10443   */\n      swap1\n      pop\n        /* \"#utility.yul\":10349:10449   */\n      swap2\n      swap1\n      pop\n      jump\t// out\n        /* \"#utility.yul\":10455:10534   */\n    tag_172:\n        /* \"#utility.yul\":10494:10501   */\n      0x00\n        /* \"#utility.yul\":10523:10528   */\n      dup2\n        /* \"#utility.yul\":10512:10528   */\n      swap1\n      pop\n        /* \"#utility.yul\":10455:10534   */\n      swap2\n      swap1\n      pop\n      jump\t// out\n        /* \"#utility.yul\":10540:10634   */\n    tag_264:\n        /* \"#utility.yul\":10579:10586   */\n      0x00\n        /* \"#utility.yul\":10608:10628   */\n      tag_267\n        /* \"#utility.yul\":10622:10627   */\n      dup3\n        /* \"#utility.yul\":10608:10628   */\n      tag_268\n      jump\t// in\n    tag_267:\n        /* \"#utility.yul\":10597:10628   */\n      swap1\n      pop\n        /* \"#utility.yul\":10540:10634   */\n      swap2\n      swap1\n      pop\n      jump\t// out\n        /* \"#utility.yul\":10640:10719   */\n    tag_213:\n        /* \"#utility.yul\":10679:10686   */\n      0x00\n        /* \"#utility.yul\":10708:10713   */\n      dup2\n        /* \"#utility.yul\":10697:10713   */\n      swap1\n      pop\n        /* \"#utility.yul\":10640:10719   */\n      swap2\n      swap1\n      pop\n      jump\t// out\n        /* \"#utility.yul\":10725:10905   */\n    tag_261:\n        /* \"#utility.yul\":10773:10850   */\n      0x4e487b7100000000000000000000000000000000000000000000000000000000\n        /* \"#utility.yul\":10770:10771   */\n      0x00\n        /* \"#utility.yul\":10763:10851   */\n      mstore\n        /* \"#utility.yul\":10870:10874   */\n      0x11\n        /* \"#utility.yul\":10867:10868   */\n      0x04\n        /* \"#utility.yul\":10860:10875   */\n      mstore\n        /* \"#utility.yul\":10894:10898   */\n      0x24\n        /* \"#utility.yul\":10891:10892   */\n      0x00\n        /* \"#utility.yul\":10884:10899   */\n      revert\n        /* \"#utility.yul\":10911:11091   */\n    tag_33:\n        /* \"#utility.yul\":10959:11036   */\n      0x4e487b7100000000000000000000000000000000000000000000000000000000\n        /* \"#utility.yul\":10956:10957   */\n      0x00\n        /* \"#utility.yul\":10949:11037   */\n      mstore\n        /* \"#utility.yul\":11056:11060   */\n      0x21\n        /* \"#utility.yul\":11053:11054   */\n      0x04\n        /* \"#utility.yul\":11046:11061   */\n      mstore\n        /* \"#utility.yul\":11080:11084   */\n      0x24\n        /* \"#utility.yul\":11077:11078   */\n      0x00\n        /* \"#utility.yul\":11070:11085   */\n      revert\n        /* \"#utility.yul\":11097:11277   */\n    tag_81:\n        /* \"#utility.yul\":11145:11222   */\n      0x4e487b7100000000000000000000000000000000000000000000000000000000\n        /* \"#utility.yul\":11142:11143   */\n      0x00\n        /* \"#utility.yul\":11135:11223   */\n      mstore\n        /* \"#utility.yul\":11242:11246   */\n      0x32\n        /* \"#utility.yul\":11239:11240   */\n      0x04\n        /* \"#utility.yul\":11232:11247   */\n      mstore\n        /* \"#utility.yul\":11266:11270   */\n      0x24\n        /* \"#utility.yul\":11263:11264   */\n      0x00\n        /* \"#utility.yul\":11256:11271   */\n      revert\n        /* \"#utility.yul\":11406:11523   */\n    tag_144:\n        /* \"#utility.yul\":11515:11516   */\n      0x00\n        /* \"#utility.yul\":11512:11513   */\n      dup1\n        /* \"#utility.yul\":11505:11517   */\n      revert\n        /* \"#utility.yul\":11529:11623   */\n    tag_268:\n        /* \"#utility.yul\":11562:11570   */\n      0x00\n        /* \"#utility.yul\":11610:11615   */\n      dup2\n        /* \"#utility.yul\":11606:11608   */\n      0x60\n        /* \"#utility.yul\":11602:11616   */\n      shl\n        /* \"#utility.yul\":11581:11616   */\n      swap1\n      pop\n        /* \"#utility.yul\":11529:11623   */\n      swap2\n      swap1\n      pop\n      jump\t// out\n        /* \"#utility.yul\":11629:11809   */\n    tag_182:\n        /* \"#utility.yul\":11769:11801   */\n      0x43686f6f736520737461676520616c72656164792066696e6973686564210000\n        /* \"#utility.yul\":11765:11766   */\n      0x00\n        /* \"#utility.yul\":11757:11763   */\n      dup3\n        /* \"#utility.yul\":11753:11767   */\n      add\n        /* \"#utility.yul\":11746:11802   */\n      mstore\n        /* \"#utility.yul\":11629:11809   */\n      pop\n      jump\t// out\n        /* \"#utility.yul\":11815:11991   */\n    tag_187:\n        /* \"#utility.yul\":11955:11983   */\n      0x596f7520616c7265616479206d61646520612063686f69636521000000000000\n        /* \"#utility.yul\":11951:11952   */\n      0x00\n        /* \"#utility.yul\":11943:11949   */\n      dup3\n        /* \"#utility.yul\":11939:11953   */\n      add\n        /* \"#utility.yul\":11932:11984   */\n      mstore\n        /* \"#utility.yul\":11815:11991   */\n      pop\n      jump\t// out\n        /* \"#utility.yul\":11997:12218   */\n    tag_192:\n        /* \"#utility.yul\":12137:12171   */\n      0x43686f6f736520737461676520686176656e27742066696e6973686564207965\n        /* \"#utility.yul\":12133:12134   */\n      0x00\n        /* \"#utility.yul\":12125:12131   */\n      dup3\n        /* \"#utility.yul\":12121:12135   */\n      add\n        /* \"#utility.yul\":12114:12172   */\n      mstore\n        /* \"#utility.yul\":12206:12210   */\n      0x7421000000000000000000000000000000000000000000000000000000000000\n        /* \"#utility.yul\":12201:12203   */\n      0x20\n        /* \"#utility.yul\":12193:12199   */\n      dup3\n        /* \"#utility.yul\":12189:12204   */\n      add\n        /* \"#utility.yul\":12182:12211   */\n      mstore\n        /* \"#utility.yul\":11997:12218   */\n      pop\n      jump\t// out\n        /* \"#utility.yul\":12224:12451   */\n    tag_197:\n        /* \"#utility.yul\":12364:12398   */\n      0x43686f69636520697320646566666572732066726f6d207768617420796f7520\n        /* \"#utility.yul\":12360:12361   */\n      0x00\n        /* \"#utility.yul\":12352:12358   */\n      dup3\n        /* \"#utility.yul\":12348:12362   */\n      add\n        /* \"#utility.yul\":12341:12399   */\n      mstore\n        /* \"#utility.yul\":12433:12443   */\n      0x63686f6f73656421000000000000000000000000000000000000000000000000\n        /* \"#utility.yul\":12428:12430   */\n      0x20\n        /* \"#utility.yul\":12420:12426   */\n      dup3\n        /* \"#utility.yul\":12416:12431   */\n      add\n        /* \"#utility.yul\":12409:12444   */\n      mstore\n        /* \"#utility.yul\":12224:12451   */\n      pop\n      jump\t// out\n        /* \"#utility.yul\":12457:12677   */\n    tag_202:\n        /* \"#utility.yul\":12597:12631   */\n      0x596f7520616c72656164792072657665616c656420796f75722063686f696365\n        /* \"#utility.yul\":12593:12594   */\n      0x00\n        /* \"#utility.yul\":12585:12591   */\n      dup3\n        /* \"#utility.yul\":12581:12595   */\n      add\n        /* \"#utility.yul\":12574:12632   */\n      mstore\n        /* \"#utility.yul\":12666:12669   */\n      0x2100000000000000000000000000000000000000000000000000000000000000\n        /* \"#utility.yul\":12661:12663   */\n      0x20\n        /* \"#utility.yul\":12653:12659   */\n      dup3\n        /* \"#utility.yul\":12649:12664   */\n      add\n        /* \"#utility.yul\":12642:12670   */\n      mstore\n        /* \"#utility.yul\":12457:12677   */\n      pop\n      jump\t// out\n        /* \"#utility.yul\":12683:12857   */\n    tag_207:\n        /* \"#utility.yul\":12823:12849   */\n      0x496e636f72726563742063686f696365206e756d626572210000000000000000\n        /* \"#utility.yul\":12819:12820   */\n      0x00\n        /* \"#utility.yul\":12811:12817   */\n      dup3\n        /* \"#utility.yul\":12807:12821   */\n      add\n        /* \"#utility.yul\":12800:12850   */\n      mstore\n        /* \"#utility.yul\":12683:12857   */\n      pop\n      jump\t// out\n        /* \"#utility.yul\":12863:12976   */\n    tag_252:\n        /* \"#utility.yul\":12944:12945   */\n      0x04\n        /* \"#utility.yul\":12937:12942   */\n      dup2\n        /* \"#utility.yul\":12934:12946   */\n      lt\n        /* \"#utility.yul\":12924:12970   */\n      tag_284\n      jumpi\n        /* \"#utility.yul\":12950:12968   */\n      tag_285\n      tag_33\n      jump\t// in\n    tag_285:\n        /* \"#utility.yul\":12924:12970   */\n    tag_284:\n        /* \"#utility.yul\":12863:12976   */\n      pop\n      jump\t// out\n        /* \"#utility.yul\":12982:13104   */\n    tag_132:\n        /* \"#utility.yul\":13055:13079   */\n      tag_287\n        /* \"#utility.yul\":13073:13078   */\n      dup2\n        /* \"#utility.yul\":13055:13079   */\n      tag_158\n      jump\t// in\n    tag_287:\n        /* \"#utility.yul\":13048:13053   */\n      dup2\n        /* \"#utility.yul\":13045:13080   */\n      eq\n        /* \"#utility.yul\":13035:13098   */\n      tag_288\n      jumpi\n        /* \"#utility.yul\":13094:13095   */\n      0x00\n        /* \"#utility.yul\":13091:13092   */\n      dup1\n        /* \"#utility.yul\":13084:13096   */\n      revert\n        /* \"#utility.yul\":13035:13098   */\n    tag_288:\n        /* \"#utility.yul\":12982:13104   */\n      pop\n      jump\t// out\n        /* \"#utility.yul\":13110:13232   */\n    tag_136:\n        /* \"#utility.yul\":13183:13207   */\n      tag_290\n        /* \"#utility.yul\":13201:13206   */\n      dup2\n        /* \"#utility.yul\":13183:13207   */\n      tag_167\n      jump\t// in\n    tag_290:\n        /* \"#utility.yul\":13176:13181   */\n      dup2\n        /* \"#utility.yul\":13173:13208   */\n      eq\n        /* \"#utility.yul\":13163:13226   */\n      tag_291\n      jumpi\n        /* \"#utility.yul\":13222:13223   */\n      0x00\n        /* \"#utility.yul\":13219:13220   */\n      dup1\n        /* \"#utility.yul\":13212:13224   */\n      revert\n        /* \"#utility.yul\":13163:13226   */\n    tag_291:\n        /* \"#utility.yul\":13110:13232   */\n      pop\n      jump\t// out\n        /* \"#utility.yul\":13238:13360   */\n    tag_140:\n        /* \"#utility.yul\":13311:13335   */\n      tag_293\n        /* \"#utility.yul\":13329:13334   */\n      dup2\n        /* \"#utility.yul\":13311:13335   */\n      tag_212\n      jump\t// in\n    tag_293:\n        /* \"#utility.yul\":13304:13309   */\n      dup2\n        /* \"#utility.yul\":13301:13336   */\n      eq\n        /* \"#utility.yul\":13291:13354   */\n      tag_294\n      jumpi\n        /* \"#utility.yul\":13350:13351   */\n      0x00\n        /* \"#utility.yul\":13347:13348   */\n      dup1\n        /* \"#utility.yul\":13340:13352   */\n      revert\n        /* \"#utility.yul\":13291:13354   */\n    tag_294:\n        /* \"#utility.yul\":13238:13360   */\n      pop\n      jump\t// out\n\n    auxdata: 0xa2646970667358221220f4e94d32a80d7078b537bbc92e78d67e60c83031416976e8ad22716ade7db68164736f6c63430008070033\n}\n",
				"bytecode": {
					"linkReferences": {},
					"object": "608060405234801561001057600080fd5b5061111c806100206000396000f3fe608060405234801561001057600080fd5b506004361061004c5760003560e01c8063410346b314610051578063a3b9908914610081578063c1d5383c146100b1578063fce55812146100cd575b600080fd5b61006b60048036038101906100669190610a0b565b6100e9565b6040516100789190610c93565b60405180910390f35b61009b60048036038101906100969190610a0b565b610101565b6040516100a89190610cae565b60405180910390f35b6100cb60048036038101906100c69190610a65565b610121565b005b6100e760048036038101906100e29190610a38565b610408565b005b60026020528060005260406000206000915090505481565b60046020528060005260406000206000915054906101000a900460ff1681565b600160149054906101000a900460ff1615610171576040517f08c379a000000000000000000000000000000000000000000000000000000000815260040161016890610d09565b60405180910390fd5b6000600381111561018557610184610eb5565b5b600460003373ffffffffffffffffffffffffffffffffffffffff1673ffffffffffffffffffffffffffffffffffffffff16815260200190815260200160002060009054906101000a900460ff1660038111156101e4576101e3610eb5565b5b14610224576040517f08c379a000000000000000000000000000000000000000000000000000000000815260040161021b90610d49565b60405180910390fd5b600260003373ffffffffffffffffffffffffffffffffffffffff1673ffffffffffffffffffffffffffffffffffffffff1681526020019081526020016000205482823360405160200161027993929190610be9565b60405160208183030381529060405280519060200120146102cf576040517f08c379a00000000000000000000000000000000000000000000000000000000081526004016102c690610d29565b60405180910390fd5b6102d8826105e8565b600460003373ffffffffffffffffffffffffffffffffffffffff1673ffffffffffffffffffffffffffffffffffffffff16815260200190815260200160002060006101000a81548160ff0219169083600381111561033957610338610eb5565b5b02179055507f5a6f3269421694461ff6bf84b6be1922723cedb23a85496d43a1ab67f7ea67fb33610369846105e8565b604051610377929190610c6a565b60405180910390a16003600081548092919061039290610e05565b919050555060026003541415610404576103aa610660565b7fbfabc6814ae9da8c3d60f2534acc59a54c9ddc4d1ce2c6fc2afef4d447880daf600160009054906101000a900473ffffffffffffffffffffffffffffffffffffffff166040516103fb9190610c26565b60405180910390a15b5050565b600160149054906101000a900460ff16610457576040517f08c379a000000000000000000000000000000000000000000000000000000000815260040161044e90610cc9565b60405180910390fd5b6000801b600260003373ffffffffffffffffffffffffffffffffffffffff1673ffffffffffffffffffffffffffffffffffffffff16815260200190815260200160002054146104db576040517f08c379a00000000000000000000000000000000000000000000000000000000081526004016104d290610ce9565b60405180910390fd5b6000339080600181540180825580915050600190039060005260206000200160009091909190916101000a81548173ffffffffffffffffffffffffffffffffffffffff021916908373ffffffffffffffffffffffffffffffffffffffff16021790555080600260003373ffffffffffffffffffffffffffffffffffffffff1673ffffffffffffffffffffffffffffffffffffffff168152602001908152602001600020819055507f30f73c991d5cc2b3ba37e592c2cada15a965c615935598e04ac3bc5fc71c331933826040516105b3929190610c41565b60405180910390a1600260008054905014156105e5576000600160146101000a81548160ff0219169083151502179055505b50565b600060018214156105fc576001905061065b565b600282141561060e576002905061065b565b6003821415610620576003905061065b565b6040517f08c379a000000000000000000000000000000000000000000000000000000000815260040161065290610d69565b60405180910390fd5b919050565b6000600460008060008154811061067a57610679610ee4565b5b9060005260206000200160009054906101000a900473ffffffffffffffffffffffffffffffffffffffff1673ffffffffffffffffffffffffffffffffffffffff1673ffffffffffffffffffffffffffffffffffffffff16815260200190815260200160002060009054906101000a900460ff1690506000600460008060018154811061070957610708610ee4565b5b9060005260206000200160009054906101000a900473ffffffffffffffffffffffffffffffffffffffff1673ffffffffffffffffffffffffffffffffffffffff1673ffffffffffffffffffffffffffffffffffffffff16815260200190815260200160002060009054906101000a900460ff16905080600381111561079157610790610eb5565b5b8260038111156107a4576107a3610eb5565b5b146109c857600160038111156107bd576107bc610eb5565b5b8260038111156107d0576107cf610eb5565b5b1480156108015750600260038111156107ec576107eb610eb5565b5b8160038111156107ff576107fe610eb5565b5b145b8061085f57506002600381111561081b5761081a610eb5565b5b82600381111561082e5761082d610eb5565b5b14801561085e575060038081111561084957610848610eb5565b5b81600381111561085c5761085b610eb5565b5b145b5b806108bd575060038081111561087857610877610eb5565b5b82600381111561088b5761088a610eb5565b5b1480156108bc5750600160038111156108a7576108a6610eb5565b5b8160038111156108ba576108b9610eb5565b5b145b5b156109475760006001815481106108d7576108d6610ee4565b5b9060005260206000200160009054906101000a900473ffffffffffffffffffffffffffffffffffffffff16600160006101000a81548173ffffffffffffffffffffffffffffffffffffffff021916908373ffffffffffffffffffffffffffffffffffffffff1602179055506109c7565b6000808154811061095b5761095a610ee4565b5b9060005260206000200160009054906101000a900473ffffffffffffffffffffffffffffffffffffffff16600160006101000a81548173ffffffffffffffffffffffffffffffffffffffff021916908373ffffffffffffffffffffffffffffffffffffffff1602179055505b5b5050565b6000813590506109db816110a1565b92915050565b6000813590506109f0816110b8565b92915050565b600081359050610a05816110cf565b92915050565b600060208284031215610a2157610a20610f13565b5b6000610a2f848285016109cc565b91505092915050565b600060208284031215610a4e57610a4d610f13565b5b6000610a5c848285016109e1565b91505092915050565b60008060408385031215610a7c57610a7b610f13565b5b6000610a8a858286016109f6565b9250506020610a9b858286016109e1565b9150509250929050565b610aae81610d9a565b82525050565b610ac5610ac082610d9a565b610e4e565b82525050565b610ad481610dac565b82525050565b610aeb610ae682610dac565b610e60565b82525050565b610afa81610df3565b82525050565b6000610b0d601e83610d89565b9150610b1882610f25565b602082019050919050565b6000610b30601a83610d89565b9150610b3b82610f4e565b602082019050919050565b6000610b53602283610d89565b9150610b5e82610f77565b604082019050919050565b6000610b76602883610d89565b9150610b8182610fc6565b604082019050919050565b6000610b99602183610d89565b9150610ba482611015565b604082019050919050565b6000610bbc601883610d89565b9150610bc782611064565b602082019050919050565b610be3610bde82610de9565b610e7c565b82525050565b6000610bf58286610bd2565b602082019150610c058285610ada565b602082019150610c158284610ab4565b601482019150819050949350505050565b6000602082019050610c3b6000830184610aa5565b92915050565b6000604082019050610c566000830185610aa5565b610c636020830184610acb565b9392505050565b6000604082019050610c7f6000830185610aa5565b610c8c6020830184610af1565b9392505050565b6000602082019050610ca86000830184610acb565b92915050565b6000602082019050610cc36000830184610af1565b92915050565b60006020820190508181036000830152610ce281610b00565b9050919050565b60006020820190508181036000830152610d0281610b23565b9050919050565b60006020820190508181036000830152610d2281610b46565b9050919050565b60006020820190508181036000830152610d4281610b69565b9050919050565b60006020820190508181036000830152610d6281610b8c565b9050919050565b60006020820190508181036000830152610d8281610baf565b9050919050565b600082825260208201905092915050565b6000610da582610dc9565b9050919050565b6000819050919050565b6000819050610dc48261108d565b919050565b600073ffffffffffffffffffffffffffffffffffffffff82169050919050565b6000819050919050565b6000610dfe82610db6565b9050919050565b6000610e1082610de9565b91507fffffffffffffffffffffffffffffffffffffffffffffffffffffffffffffffff821415610e4357610e42610e86565b5b600182019050919050565b6000610e5982610e6a565b9050919050565b6000819050919050565b6000610e7582610f18565b9050919050565b6000819050919050565b7f4e487b7100000000000000000000000000000000000000000000000000000000600052601160045260246000fd5b7f4e487b7100000000000000000000000000000000000000000000000000000000600052602160045260246000fd5b7f4e487b7100000000000000000000000000000000000000000000000000000000600052603260045260246000fd5b600080fd5b60008160601b9050919050565b7f43686f6f736520737461676520616c72656164792066696e6973686564210000600082015250565b7f596f7520616c7265616479206d61646520612063686f69636521000000000000600082015250565b7f43686f6f736520737461676520686176656e27742066696e697368656420796560008201527f7421000000000000000000000000000000000000000000000000000000000000602082015250565b7f43686f69636520697320646566666572732066726f6d207768617420796f752060008201527f63686f6f73656421000000000000000000000000000000000000000000000000602082015250565b7f596f7520616c72656164792072657665616c656420796f75722063686f69636560008201527f2100000000000000000000000000000000000000000000000000000000000000602082015250565b7f496e636f72726563742063686f696365206e756d626572210000000000000000600082015250565b6004811061109e5761109d610eb5565b5b50565b6110aa81610d9a565b81146110b557600080fd5b50565b6110c181610dac565b81146110cc57600080fd5b50565b6110d881610de9565b81146110e357600080fd5b5056fea2646970667358221220f4e94d32a80d7078b537bbc92e78d67e60c83031416976e8ad22716ade7db68164736f6c63430008070033",
					"opcodes": "PUSH1 0x80 PUSH1 0x40 MSTORE CALLVALUE DUP1 ISZERO PUSH2 0x10 JUMPI PUSH1 0x0 DUP1 REVERT JUMPDEST POP PUSH2 0x111C DUP1 PUSH2 0x20 PUSH1 0x0 CODECOPY PUSH1 0x0 RETURN INVALID PUSH1 0x80 PUSH1 0x40 MSTORE CALLVALUE DUP1 ISZERO PUSH2 0x10 JUMPI PUSH1 0x0 DUP1 REVERT JUMPDEST POP PUSH1 0x4 CALLDATASIZE LT PUSH2 0x4C JUMPI PUSH1 0x0 CALLDATALOAD PUSH1 0xE0 SHR DUP1 PUSH4 0x410346B3 EQ PUSH2 0x51 JUMPI DUP1 PUSH4 0xA3B99089 EQ PUSH2 0x81 JUMPI DUP1 PUSH4 0xC1D5383C EQ PUSH2 0xB1 JUMPI DUP1 PUSH4 0xFCE55812 EQ PUSH2 0xCD JUMPI JUMPDEST PUSH1 0x0 DUP1 REVERT JUMPDEST PUSH2 0x6B PUSH1 0x4 DUP1 CALLDATASIZE SUB DUP2 ADD SWAP1 PUSH2 0x66 SWAP2 SWAP1 PUSH2 0xA0B JUMP JUMPDEST PUSH2 0xE9 JUMP JUMPDEST PUSH1 0x40 MLOAD PUSH2 0x78 SWAP2 SWAP1 PUSH2 0xC93 JUMP JUMPDEST PUSH1 0x40 MLOAD DUP1 SWAP2 SUB SWAP1 RETURN JUMPDEST PUSH2 0x9B PUSH1 0x4 DUP1 CALLDATASIZE SUB DUP2 ADD SWAP1 PUSH2 0x96 SWAP2 SWAP1 PUSH2 0xA0B JUMP JUMPDEST PUSH2 0x101 JUMP JUMPDEST PUSH1 0x40 MLOAD PUSH2 0xA8 SWAP2 SWAP1 PUSH2 0xCAE JUMP JUMPDEST PUSH1 0x40 MLOAD DUP1 SWAP2 SUB SWAP1 RETURN JUMPDEST PUSH2 0xCB PUSH1 0x4 DUP1 CALLDATASIZE SUB DUP2 ADD SWAP1 PUSH2 0xC6 SWAP2 SWAP1 PUSH2 0xA65 JUMP JUMPDEST PUSH2 0x121 JUMP JUMPDEST STOP JUMPDEST PUSH2 0xE7 PUSH1 0x4 DUP1 CALLDATASIZE SUB DUP2 ADD SWAP1 PUSH2 0xE2 SWAP2 SWAP1 PUSH2 0xA38 JUMP JUMPDEST PUSH2 0x408 JUMP JUMPDEST STOP JUMPDEST PUSH1 0x2 PUSH1 0x20 MSTORE DUP1 PUSH1 0x0 MSTORE PUSH1 0x40 PUSH1 0x0 KECCAK256 PUSH1 0x0 SWAP2 POP SWAP1 POP SLOAD DUP2 JUMP JUMPDEST PUSH1 0x4 PUSH1 0x20 MSTORE DUP1 PUSH1 0x0 MSTORE PUSH1 0x40 PUSH1 0x0 KECCAK256 PUSH1 0x0 SWAP2 POP SLOAD SWAP1 PUSH2 0x100 EXP SWAP1 DIV PUSH1 0xFF AND DUP2 JUMP JUMPDEST PUSH1 0x1 PUSH1 0x14 SWAP1 SLOAD SWAP1 PUSH2 0x100 EXP SWAP1 DIV PUSH1 0xFF AND ISZERO PUSH2 0x171 JUMPI PUSH1 0x40 MLOAD PUSH32 0x8C379A000000000000000000000000000000000000000000000000000000000 DUP2 MSTORE PUSH1 0x4 ADD PUSH2 0x168 SWAP1 PUSH2 0xD09 JUMP JUMPDEST PUSH1 0x40 MLOAD DUP1 SWAP2 SUB SWAP1 REVERT JUMPDEST PUSH1 0x0 PUSH1 0x3 DUP2 GT ISZERO PUSH2 0x185 JUMPI PUSH2 0x184 PUSH2 0xEB5 JUMP JUMPDEST JUMPDEST PUSH1 0x4 PUSH1 0x0 CALLER PUSH20 0xFFFFFFFFFFFFFFFFFFFFFFFFFFFFFFFFFFFFFFFF AND PUSH20 0xFFFFFFFFFFFFFFFFFFFFFFFFFFFFFFFFFFFFFFFF AND DUP2 MSTORE PUSH1 0x20 ADD SWAP1 DUP2 MSTORE PUSH1 0x20 ADD PUSH1 0x0 KECCAK256 PUSH1 0x0 SWAP1 SLOAD SWAP1 PUSH2 0x100 EXP SWAP1 DIV PUSH1 0xFF AND PUSH1 0x3 DUP2 GT ISZERO PUSH2 0x1E4 JUMPI PUSH2 0x1E3 PUSH2 0xEB5 JUMP JUMPDEST JUMPDEST EQ PUSH2 0x224 JUMPI PUSH1 0x40 MLOAD PUSH32 0x8C379A000000000000000000000000000000000000000000000000000000000 DUP2 MSTORE PUSH1 0x4 ADD PUSH2 0x21B SWAP1 PUSH2 0xD49 JUMP JUMPDEST PUSH1 0x40 MLOAD DUP1 SWAP2 SUB SWAP1 REVERT JUMPDEST PUSH1 0x2 PUSH1 0x0 CALLER PUSH20 0xFFFFFFFFFFFFFFFFFFFFFFFFFFFFFFFFFFFFFFFF AND PUSH20 0xFFFFFFFFFFFFFFFFFFFFFFFFFFFFFFFFFFFFFFFF AND DUP2 MSTORE PUSH1 0x20 ADD SWAP1 DUP2 MSTORE PUSH1 0x20 ADD PUSH1 0x0 KECCAK256 SLOAD DUP3 DUP3 CALLER PUSH1 0x40 MLOAD PUSH1 0x20 ADD PUSH2 0x279 SWAP4 SWAP3 SWAP2 SWAP1 PUSH2 0xBE9 JUMP JUMPDEST PUSH1 0x40 MLOAD PUSH1 0x20 DUP2 DUP4 SUB SUB DUP2 MSTORE SWAP1 PUSH1 0x40 MSTORE DUP1 MLOAD SWAP1 PUSH1 0x20 ADD KECCAK256 EQ PUSH2 0x2CF JUMPI PUSH1 0x40 MLOAD PUSH32 0x8C379A000000000000000000000000000000000000000000000000000000000 DUP2 MSTORE PUSH1 0x4 ADD PUSH2 0x2C6 SWAP1 PUSH2 0xD29 JUMP JUMPDEST PUSH1 0x40 MLOAD DUP1 SWAP2 SUB SWAP1 REVERT JUMPDEST PUSH2 0x2D8 DUP3 PUSH2 0x5E8 JUMP JUMPDEST PUSH1 0x4 PUSH1 0x0 CALLER PUSH20 0xFFFFFFFFFFFFFFFFFFFFFFFFFFFFFFFFFFFFFFFF AND PUSH20 0xFFFFFFFFFFFFFFFFFFFFFFFFFFFFFFFFFFFFFFFF AND DUP2 MSTORE PUSH1 0x20 ADD SWAP1 DUP2 MSTORE PUSH1 0x20 ADD PUSH1 0x0 KECCAK256 PUSH1 0x0 PUSH2 0x100 EXP DUP2 SLOAD DUP2 PUSH1 0xFF MUL NOT AND SWAP1 DUP4 PUSH1 0x3 DUP2 GT ISZERO PUSH2 0x339 JUMPI PUSH2 0x338 PUSH2 0xEB5 JUMP JUMPDEST JUMPDEST MUL OR SWAP1 SSTORE POP PUSH32 0x5A6F3269421694461FF6BF84B6BE1922723CEDB23A85496D43A1AB67F7EA67FB CALLER PUSH2 0x369 DUP5 PUSH2 0x5E8 JUMP JUMPDEST PUSH1 0x40 MLOAD PUSH2 0x377 SWAP3 SWAP2 SWAP1 PUSH2 0xC6A JUMP JUMPDEST PUSH1 0x40 MLOAD DUP1 SWAP2 SUB SWAP1 LOG1 PUSH1 0x3 PUSH1 0x0 DUP2 SLOAD DUP1 SWAP3 SWAP2 SWAP1 PUSH2 0x392 SWAP1 PUSH2 0xE05 JUMP JUMPDEST SWAP2 SWAP1 POP SSTORE POP PUSH1 0x2 PUSH1 0x3 SLOAD EQ ISZERO PUSH2 0x404 JUMPI PUSH2 0x3AA PUSH2 0x660 JUMP JUMPDEST PUSH32 0xBFABC6814AE9DA8C3D60F2534ACC59A54C9DDC4D1CE2C6FC2AFEF4D447880DAF PUSH1 0x1 PUSH1 0x0 SWAP1 SLOAD SWAP1 PUSH2 0x100 EXP SWAP1 DIV PUSH20 0xFFFFFFFFFFFFFFFFFFFFFFFFFFFFFFFFFFFFFFFF AND PUSH1 0x40 MLOAD PUSH2 0x3FB SWAP2 SWAP1 PUSH2 0xC26 JUMP JUMPDEST PUSH1 0x40 MLOAD DUP1 SWAP2 SUB SWAP1 LOG1 JUMPDEST POP POP JUMP JUMPDEST PUSH1 0x1 PUSH1 0x14 SWAP1 SLOAD SWAP1 PUSH2 0x100 EXP SWAP1 DIV PUSH1 0xFF AND PUSH2 0x457 JUMPI PUSH1 0x40 MLOAD PUSH32 0x8C379A000000000000000000000000000000000000000000000000000000000 DUP2 MSTORE PUSH1 0x4 ADD PUSH2 0x44E SWAP1 PUSH2 0xCC9 JUMP JUMPDEST PUSH1 0x40 MLOAD DUP1 SWAP2 SUB SWAP1 REVERT JUMPDEST PUSH1 0x0 DUP1 SHL PUSH1 0x2 PUSH1 0x0 CALLER PUSH20 0xFFFFFFFFFFFFFFFFFFFFFFFFFFFFFFFFFFFFFFFF AND PUSH20 0xFFFFFFFFFFFFFFFFFFFFFFFFFFFFFFFFFFFFFFFF AND DUP2 MSTORE PUSH1 0x20 ADD SWAP1 DUP2 MSTORE PUSH1 0x20 ADD PUSH1 0x0 KECCAK256 SLOAD EQ PUSH2 0x4DB JUMPI PUSH1 0x40 MLOAD PUSH32 0x8C379A000000000000000000000000000000000000000000000000000000000 DUP2 MSTORE PUSH1 0x4 ADD PUSH2 0x4D2 SWAP1 PUSH2 0xCE9 JUMP JUMPDEST PUSH1 0x40 MLOAD DUP1 SWAP2 SUB SWAP1 REVERT JUMPDEST PUSH1 0x0 CALLER SWAP1 DUP1 PUSH1 0x1 DUP2 SLOAD ADD DUP1 DUP3 SSTORE DUP1 SWAP2 POP POP PUSH1 0x1 SWAP1 SUB SWAP1 PUSH1 0x0 MSTORE PUSH1 0x20 PUSH1 0x0 KECCAK256 ADD PUSH1 0x0 SWAP1 SWAP2 SWAP1 SWAP2 SWAP1 SWAP2 PUSH2 0x100 EXP DUP2 SLOAD DUP2 PUSH20 0xFFFFFFFFFFFFFFFFFFFFFFFFFFFFFFFFFFFFFFFF MUL NOT AND SWAP1 DUP4 PUSH20 0xFFFFFFFFFFFFFFFFFFFFFFFFFFFFFFFFFFFFFFFF AND MUL OR SWAP1 SSTORE POP DUP1 PUSH1 0x2 PUSH1 0x0 CALLER PUSH20 0xFFFFFFFFFFFFFFFFFFFFFFFFFFFFFFFFFFFFFFFF AND PUSH20 0xFFFFFFFFFFFFFFFFFFFFFFFFFFFFFFFFFFFFFFFF AND DUP2 MSTORE PUSH1 0x20 ADD SWAP1 DUP2 MSTORE PUSH1 0x20 ADD PUSH1 0x0 KECCAK256 DUP2 SWAP1 SSTORE POP PUSH32 0x30F73C991D5CC2B3BA37E592C2CADA15A965C615935598E04AC3BC5FC71C3319 CALLER DUP3 PUSH1 0x40 MLOAD PUSH2 0x5B3 SWAP3 SWAP2 SWAP1 PUSH2 0xC41 JUMP JUMPDEST PUSH1 0x40 MLOAD DUP1 SWAP2 SUB SWAP1 LOG1 PUSH1 0x2 PUSH1 0x0 DUP1 SLOAD SWAP1 POP EQ ISZERO PUSH2 0x5E5 JUMPI PUSH1 0x0 PUSH1 0x1 PUSH1 0x14 PUSH2 0x100 EXP DUP2 SLOAD DUP2 PUSH1 0xFF MUL NOT AND SWAP1 DUP4 ISZERO ISZERO MUL OR SWAP1 SSTORE POP JUMPDEST POP JUMP JUMPDEST PUSH1 0x0 PUSH1 0x1 DUP3 EQ ISZERO PUSH2 0x5FC JUMPI PUSH1 0x1 SWAP1 POP PUSH2 0x65B JUMP JUMPDEST PUSH1 0x2 DUP3 EQ ISZERO PUSH2 0x60E JUMPI PUSH1 0x2 SWAP1 POP PUSH2 0x65B JUMP JUMPDEST PUSH1 0x3 DUP3 EQ ISZERO PUSH2 0x620 JUMPI PUSH1 0x3 SWAP1 POP PUSH2 0x65B JUMP JUMPDEST PUSH1 0x40 MLOAD PUSH32 0x8C379A000000000000000000000000000000000000000000000000000000000 DUP2 MSTORE PUSH1 0x4 ADD PUSH2 0x652 SWAP1 PUSH2 0xD69 JUMP JUMPDEST PUSH1 0x40 MLOAD DUP1 SWAP2 SUB SWAP1 REVERT JUMPDEST SWAP2 SWAP1 POP JUMP JUMPDEST PUSH1 0x0 PUSH1 0x4 PUSH1 0x0 DUP1 PUSH1 0x0 DUP2 SLOAD DUP2 LT PUSH2 0x67A JUMPI PUSH2 0x679 PUSH2 0xEE4 JUMP JUMPDEST JUMPDEST SWAP1 PUSH1 0x0 MSTORE PUSH1 0x20 PUSH1 0x0 KECCAK256 ADD PUSH1 0x0 SWAP1 SLOAD SWAP1 PUSH2 0x100 EXP SWAP1 DIV PUSH20 0xFFFFFFFFFFFFFFFFFFFFFFFFFFFFFFFFFFFFFFFF AND PUSH20 0xFFFFFFFFFFFFFFFFFFFFFFFFFFFFFFFFFFFFFFFF AND PUSH20 0xFFFFFFFFFFFFFFFFFFFFFFFFFFFFFFFFFFFFFFFF AND DUP2 MSTORE PUSH1 0x20 ADD SWAP1 DUP2 MSTORE PUSH1 0x20 ADD PUSH1 0x0 KECCAK256 PUSH1 0x0 SWAP1 SLOAD SWAP1 PUSH2 0x100 EXP SWAP1 DIV PUSH1 0xFF AND SWAP1 POP PUSH1 0x0 PUSH1 0x4 PUSH1 0x0 DUP1 PUSH1 0x1 DUP2 SLOAD DUP2 LT PUSH2 0x709 JUMPI PUSH2 0x708 PUSH2 0xEE4 JUMP JUMPDEST JUMPDEST SWAP1 PUSH1 0x0 MSTORE PUSH1 0x20 PUSH1 0x0 KECCAK256 ADD PUSH1 0x0 SWAP1 SLOAD SWAP1 PUSH2 0x100 EXP SWAP1 DIV PUSH20 0xFFFFFFFFFFFFFFFFFFFFFFFFFFFFFFFFFFFFFFFF AND PUSH20 0xFFFFFFFFFFFFFFFFFFFFFFFFFFFFFFFFFFFFFFFF AND PUSH20 0xFFFFFFFFFFFFFFFFFFFFFFFFFFFFFFFFFFFFFFFF AND DUP2 MSTORE PUSH1 0x20 ADD SWAP1 DUP2 MSTORE PUSH1 0x20 ADD PUSH1 0x0 KECCAK256 PUSH1 0x0 SWAP1 SLOAD SWAP1 PUSH2 0x100 EXP SWAP1 DIV PUSH1 0xFF AND SWAP1 POP DUP1 PUSH1 0x3 DUP2 GT ISZERO PUSH2 0x791 JUMPI PUSH2 0x790 PUSH2 0xEB5 JUMP JUMPDEST JUMPDEST DUP3 PUSH1 0x3 DUP2 GT ISZERO PUSH2 0x7A4 JUMPI PUSH2 0x7A3 PUSH2 0xEB5 JUMP JUMPDEST JUMPDEST EQ PUSH2 0x9C8 JUMPI PUSH1 0x1 PUSH1 0x3 DUP2 GT ISZERO PUSH2 0x7BD JUMPI PUSH2 0x7BC PUSH2 0xEB5 JUMP JUMPDEST JUMPDEST DUP3 PUSH1 0x3 DUP2 GT ISZERO PUSH2 0x7D0 JUMPI PUSH2 0x7CF PUSH2 0xEB5 JUMP JUMPDEST JUMPDEST EQ DUP1 ISZERO PUSH2 0x801 JUMPI POP PUSH1 0x2 PUSH1 0x3 DUP2 GT ISZERO PUSH2 0x7EC JUMPI PUSH2 0x7EB PUSH2 0xEB5 JUMP JUMPDEST JUMPDEST DUP2 PUSH1 0x3 DUP2 GT ISZERO PUSH2 0x7FF JUMPI PUSH2 0x7FE PUSH2 0xEB5 JUMP JUMPDEST JUMPDEST EQ JUMPDEST DUP1 PUSH2 0x85F JUMPI POP PUSH1 0x2 PUSH1 0x3 DUP2 GT ISZERO PUSH2 0x81B JUMPI PUSH2 0x81A PUSH2 0xEB5 JUMP JUMPDEST JUMPDEST DUP3 PUSH1 0x3 DUP2 GT ISZERO PUSH2 0x82E JUMPI PUSH2 0x82D PUSH2 0xEB5 JUMP JUMPDEST JUMPDEST EQ DUP1 ISZERO PUSH2 0x85E JUMPI POP PUSH1 0x3 DUP1 DUP2 GT ISZERO PUSH2 0x849 JUMPI PUSH2 0x848 PUSH2 0xEB5 JUMP JUMPDEST JUMPDEST DUP2 PUSH1 0x3 DUP2 GT ISZERO PUSH2 0x85C JUMPI PUSH2 0x85B PUSH2 0xEB5 JUMP JUMPDEST JUMPDEST EQ JUMPDEST JUMPDEST DUP1 PUSH2 0x8BD JUMPI POP PUSH1 0x3 DUP1 DUP2 GT ISZERO PUSH2 0x878 JUMPI PUSH2 0x877 PUSH2 0xEB5 JUMP JUMPDEST JUMPDEST DUP3 PUSH1 0x3 DUP2 GT ISZERO PUSH2 0x88B JUMPI PUSH2 0x88A PUSH2 0xEB5 JUMP JUMPDEST JUMPDEST EQ DUP1 ISZERO PUSH2 0x8BC JUMPI POP PUSH1 0x1 PUSH1 0x3 DUP2 GT ISZERO PUSH2 0x8A7 JUMPI PUSH2 0x8A6 PUSH2 0xEB5 JUMP JUMPDEST JUMPDEST DUP2 PUSH1 0x3 DUP2 GT ISZERO PUSH2 0x8BA JUMPI PUSH2 0x8B9 PUSH2 0xEB5 JUMP JUMPDEST JUMPDEST EQ JUMPDEST JUMPDEST ISZERO PUSH2 0x947 JUMPI PUSH1 0x0 PUSH1 0x1 DUP2 SLOAD DUP2 LT PUSH2 0x8D7 JUMPI PUSH2 0x8D6 PUSH2 0xEE4 JUMP JUMPDEST JUMPDEST SWAP1 PUSH1 0x0 MSTORE PUSH1 0x20 PUSH1 0x0 KECCAK256 ADD PUSH1 0x0 SWAP1 SLOAD SWAP1 PUSH2 0x100 EXP SWAP1 DIV PUSH20 0xFFFFFFFFFFFFFFFFFFFFFFFFFFFFFFFFFFFFFFFF AND PUSH1 0x1 PUSH1 0x0 PUSH2 0x100 EXP DUP2 SLOAD DUP2 PUSH20 0xFFFFFFFFFFFFFFFFFFFFFFFFFFFFFFFFFFFFFFFF MUL NOT AND SWAP1 DUP4 PUSH20 0xFFFFFFFFFFFFFFFFFFFFFFFFFFFFFFFFFFFFFFFF AND MUL OR SWAP1 SSTORE POP PUSH2 0x9C7 JUMP JUMPDEST PUSH1 0x0 DUP1 DUP2 SLOAD DUP2 LT PUSH2 0x95B JUMPI PUSH2 0x95A PUSH2 0xEE4 JUMP JUMPDEST JUMPDEST SWAP1 PUSH1 0x0 MSTORE PUSH1 0x20 PUSH1 0x0 KECCAK256 ADD PUSH1 0x0 SWAP1 SLOAD SWAP1 PUSH2 0x100 EXP SWAP1 DIV PUSH20 0xFFFFFFFFFFFFFFFFFFFFFFFFFFFFFFFFFFFFFFFF AND PUSH1 0x1 PUSH1 0x0 PUSH2 0x100 EXP DUP2 SLOAD DUP2 PUSH20 0xFFFFFFFFFFFFFFFFFFFFFFFFFFFFFFFFFFFFFFFF MUL NOT AND SWAP1 DUP4 PUSH20 0xFFFFFFFFFFFFFFFFFFFFFFFFFFFFFFFFFFFFFFFF AND MUL OR SWAP1 SSTORE POP JUMPDEST JUMPDEST POP POP JUMP JUMPDEST PUSH1 0x0 DUP2 CALLDATALOAD SWAP1 POP PUSH2 0x9DB DUP2 PUSH2 0x10A1 JUMP JUMPDEST SWAP3 SWAP2 POP POP JUMP JUMPDEST PUSH1 0x0 DUP2 CALLDATALOAD SWAP1 POP PUSH2 0x9F0 DUP2 PUSH2 0x10B8 JUMP JUMPDEST SWAP3 SWAP2 POP POP JUMP JUMPDEST PUSH1 0x0 DUP2 CALLDATALOAD SWAP1 POP PUSH2 0xA05 DUP2 PUSH2 0x10CF JUMP JUMPDEST SWAP3 SWAP2 POP POP JUMP JUMPDEST PUSH1 0x0 PUSH1 0x20 DUP3 DUP5 SUB SLT ISZERO PUSH2 0xA21 JUMPI PUSH2 0xA20 PUSH2 0xF13 JUMP JUMPDEST JUMPDEST PUSH1 0x0 PUSH2 0xA2F DUP5 DUP3 DUP6 ADD PUSH2 0x9CC JUMP JUMPDEST SWAP2 POP POP SWAP3 SWAP2 POP POP JUMP JUMPDEST PUSH1 0x0 PUSH1 0x20 DUP3 DUP5 SUB SLT ISZERO PUSH2 0xA4E JUMPI PUSH2 0xA4D PUSH2 0xF13 JUMP JUMPDEST JUMPDEST PUSH1 0x0 PUSH2 0xA5C DUP5 DUP3 DUP6 ADD PUSH2 0x9E1 JUMP JUMPDEST SWAP2 POP POP SWAP3 SWAP2 POP POP JUMP JUMPDEST PUSH1 0x0 DUP1 PUSH1 0x40 DUP4 DUP6 SUB SLT ISZERO PUSH2 0xA7C JUMPI PUSH2 0xA7B PUSH2 0xF13 JUMP JUMPDEST JUMPDEST PUSH1 0x0 PUSH2 0xA8A DUP6 DUP3 DUP7 ADD PUSH2 0x9F6 JUMP JUMPDEST SWAP3 POP POP PUSH1 0x20 PUSH2 0xA9B DUP6 DUP3 DUP7 ADD PUSH2 0x9E1 JUMP JUMPDEST SWAP2 POP POP SWAP3 POP SWAP3 SWAP1 POP JUMP JUMPDEST PUSH2 0xAAE DUP2 PUSH2 0xD9A JUMP JUMPDEST DUP3 MSTORE POP POP JUMP JUMPDEST PUSH2 0xAC5 PUSH2 0xAC0 DUP3 PUSH2 0xD9A JUMP JUMPDEST PUSH2 0xE4E JUMP JUMPDEST DUP3 MSTORE POP POP JUMP JUMPDEST PUSH2 0xAD4 DUP2 PUSH2 0xDAC JUMP JUMPDEST DUP3 MSTORE POP POP JUMP JUMPDEST PUSH2 0xAEB PUSH2 0xAE6 DUP3 PUSH2 0xDAC JUMP JUMPDEST PUSH2 0xE60 JUMP JUMPDEST DUP3 MSTORE POP POP JUMP JUMPDEST PUSH2 0xAFA DUP2 PUSH2 0xDF3 JUMP JUMPDEST DUP3 MSTORE POP POP JUMP JUMPDEST PUSH1 0x0 PUSH2 0xB0D PUSH1 0x1E DUP4 PUSH2 0xD89 JUMP JUMPDEST SWAP2 POP PUSH2 0xB18 DUP3 PUSH2 0xF25 JUMP JUMPDEST PUSH1 0x20 DUP3 ADD SWAP1 POP SWAP2 SWAP1 POP JUMP JUMPDEST PUSH1 0x0 PUSH2 0xB30 PUSH1 0x1A DUP4 PUSH2 0xD89 JUMP JUMPDEST SWAP2 POP PUSH2 0xB3B DUP3 PUSH2 0xF4E JUMP JUMPDEST PUSH1 0x20 DUP3 ADD SWAP1 POP SWAP2 SWAP1 POP JUMP JUMPDEST PUSH1 0x0 PUSH2 0xB53 PUSH1 0x22 DUP4 PUSH2 0xD89 JUMP JUMPDEST SWAP2 POP PUSH2 0xB5E DUP3 PUSH2 0xF77 JUMP JUMPDEST PUSH1 0x40 DUP3 ADD SWAP1 POP SWAP2 SWAP1 POP JUMP JUMPDEST PUSH1 0x0 PUSH2 0xB76 PUSH1 0x28 DUP4 PUSH2 0xD89 JUMP JUMPDEST SWAP2 POP PUSH2 0xB81 DUP3 PUSH2 0xFC6 JUMP JUMPDEST PUSH1 0x40 DUP3 ADD SWAP1 POP SWAP2 SWAP1 POP JUMP JUMPDEST PUSH1 0x0 PUSH2 0xB99 PUSH1 0x21 DUP4 PUSH2 0xD89 JUMP JUMPDEST SWAP2 POP PUSH2 0xBA4 DUP3 PUSH2 0x1015 JUMP JUMPDEST PUSH1 0x40 DUP3 ADD SWAP1 POP SWAP2 SWAP1 POP JUMP JUMPDEST PUSH1 0x0 PUSH2 0xBBC PUSH1 0x18 DUP4 PUSH2 0xD89 JUMP JUMPDEST SWAP2 POP PUSH2 0xBC7 DUP3 PUSH2 0x1064 JUMP JUMPDEST PUSH1 0x20 DUP3 ADD SWAP1 POP SWAP2 SWAP1 POP JUMP JUMPDEST PUSH2 0xBE3 PUSH2 0xBDE DUP3 PUSH2 0xDE9 JUMP JUMPDEST PUSH2 0xE7C JUMP JUMPDEST DUP3 MSTORE POP POP JUMP JUMPDEST PUSH1 0x0 PUSH2 0xBF5 DUP3 DUP7 PUSH2 0xBD2 JUMP JUMPDEST PUSH1 0x20 DUP3 ADD SWAP2 POP PUSH2 0xC05 DUP3 DUP6 PUSH2 0xADA JUMP JUMPDEST PUSH1 0x20 DUP3 ADD SWAP2 POP PUSH2 0xC15 DUP3 DUP5 PUSH2 0xAB4 JUMP JUMPDEST PUSH1 0x14 DUP3 ADD SWAP2 POP DUP2 SWAP1 POP SWAP5 SWAP4 POP POP POP POP JUMP JUMPDEST PUSH1 0x0 PUSH1 0x20 DUP3 ADD SWAP1 POP PUSH2 0xC3B PUSH1 0x0 DUP4 ADD DUP5 PUSH2 0xAA5 JUMP JUMPDEST SWAP3 SWAP2 POP POP JUMP JUMPDEST PUSH1 0x0 PUSH1 0x40 DUP3 ADD SWAP1 POP PUSH2 0xC56 PUSH1 0x0 DUP4 ADD DUP6 PUSH2 0xAA5 JUMP JUMPDEST PUSH2 0xC63 PUSH1 0x20 DUP4 ADD DUP5 PUSH2 0xACB JUMP JUMPDEST SWAP4 SWAP3 POP POP POP JUMP JUMPDEST PUSH1 0x0 PUSH1 0x40 DUP3 ADD SWAP1 POP PUSH2 0xC7F PUSH1 0x0 DUP4 ADD DUP6 PUSH2 0xAA5 JUMP JUMPDEST PUSH2 0xC8C PUSH1 0x20 DUP4 ADD DUP5 PUSH2 0xAF1 JUMP JUMPDEST SWAP4 SWAP3 POP POP POP JUMP JUMPDEST PUSH1 0x0 PUSH1 0x20 DUP3 ADD SWAP1 POP PUSH2 0xCA8 PUSH1 0x0 DUP4 ADD DUP5 PUSH2 0xACB JUMP JUMPDEST SWAP3 SWAP2 POP POP JUMP JUMPDEST PUSH1 0x0 PUSH1 0x20 DUP3 ADD SWAP1 POP PUSH2 0xCC3 PUSH1 0x0 DUP4 ADD DUP5 PUSH2 0xAF1 JUMP JUMPDEST SWAP3 SWAP2 POP POP JUMP JUMPDEST PUSH1 0x0 PUSH1 0x20 DUP3 ADD SWAP1 POP DUP2 DUP2 SUB PUSH1 0x0 DUP4 ADD MSTORE PUSH2 0xCE2 DUP2 PUSH2 0xB00 JUMP JUMPDEST SWAP1 POP SWAP2 SWAP1 POP JUMP JUMPDEST PUSH1 0x0 PUSH1 0x20 DUP3 ADD SWAP1 POP DUP2 DUP2 SUB PUSH1 0x0 DUP4 ADD MSTORE PUSH2 0xD02 DUP2 PUSH2 0xB23 JUMP JUMPDEST SWAP1 POP SWAP2 SWAP1 POP JUMP JUMPDEST PUSH1 0x0 PUSH1 0x20 DUP3 ADD SWAP1 POP DUP2 DUP2 SUB PUSH1 0x0 DUP4 ADD MSTORE PUSH2 0xD22 DUP2 PUSH2 0xB46 JUMP JUMPDEST SWAP1 POP SWAP2 SWAP1 POP JUMP JUMPDEST PUSH1 0x0 PUSH1 0x20 DUP3 ADD SWAP1 POP DUP2 DUP2 SUB PUSH1 0x0 DUP4 ADD MSTORE PUSH2 0xD42 DUP2 PUSH2 0xB69 JUMP JUMPDEST SWAP1 POP SWAP2 SWAP1 POP JUMP JUMPDEST PUSH1 0x0 PUSH1 0x20 DUP3 ADD SWAP1 POP DUP2 DUP2 SUB PUSH1 0x0 DUP4 ADD MSTORE PUSH2 0xD62 DUP2 PUSH2 0xB8C JUMP JUMPDEST SWAP1 POP SWAP2 SWAP1 POP JUMP JUMPDEST PUSH1 0x0 PUSH1 0x20 DUP3 ADD SWAP1 POP DUP2 DUP2 SUB PUSH1 0x0 DUP4 ADD MSTORE PUSH2 0xD82 DUP2 PUSH2 0xBAF JUMP JUMPDEST SWAP1 POP SWAP2 SWAP1 POP JUMP JUMPDEST PUSH1 0x0 DUP3 DUP3 MSTORE PUSH1 0x20 DUP3 ADD SWAP1 POP SWAP3 SWAP2 POP POP JUMP JUMPDEST PUSH1 0x0 PUSH2 0xDA5 DUP3 PUSH2 0xDC9 JUMP JUMPDEST SWAP1 POP SWAP2 SWAP1 POP JUMP JUMPDEST PUSH1 0x0 DUP2 SWAP1 POP SWAP2 SWAP1 POP JUMP JUMPDEST PUSH1 0x0 DUP2 SWAP1 POP PUSH2 0xDC4 DUP3 PUSH2 0x108D JUMP JUMPDEST SWAP2 SWAP1 POP JUMP JUMPDEST PUSH1 0x0 PUSH20 0xFFFFFFFFFFFFFFFFFFFFFFFFFFFFFFFFFFFFFFFF DUP3 AND SWAP1 POP SWAP2 SWAP1 POP JUMP JUMPDEST PUSH1 0x0 DUP2 SWAP1 POP SWAP2 SWAP1 POP JUMP JUMPDEST PUSH1 0x0 PUSH2 0xDFE DUP3 PUSH2 0xDB6 JUMP JUMPDEST SWAP1 POP SWAP2 SWAP1 POP JUMP JUMPDEST PUSH1 0x0 PUSH2 0xE10 DUP3 PUSH2 0xDE9 JUMP JUMPDEST SWAP2 POP PUSH32 0xFFFFFFFFFFFFFFFFFFFFFFFFFFFFFFFFFFFFFFFFFFFFFFFFFFFFFFFFFFFFFFFF DUP3 EQ ISZERO PUSH2 0xE43 JUMPI PUSH2 0xE42 PUSH2 0xE86 JUMP JUMPDEST JUMPDEST PUSH1 0x1 DUP3 ADD SWAP1 POP SWAP2 SWAP1 POP JUMP JUMPDEST PUSH1 0x0 PUSH2 0xE59 DUP3 PUSH2 0xE6A JUMP JUMPDEST SWAP1 POP SWAP2 SWAP1 POP JUMP JUMPDEST PUSH1 0x0 DUP2 SWAP1 POP SWAP2 SWAP1 POP JUMP JUMPDEST PUSH1 0x0 PUSH2 0xE75 DUP3 PUSH2 0xF18 JUMP JUMPDEST SWAP1 POP SWAP2 SWAP1 POP JUMP JUMPDEST PUSH1 0x0 DUP2 SWAP1 POP SWAP2 SWAP1 POP JUMP JUMPDEST PUSH32 0x4E487B7100000000000000000000000000000000000000000000000000000000 PUSH1 0x0 MSTORE PUSH1 0x11 PUSH1 0x4 MSTORE PUSH1 0x24 PUSH1 0x0 REVERT JUMPDEST PUSH32 0x4E487B7100000000000000000000000000000000000000000000000000000000 PUSH1 0x0 MSTORE PUSH1 0x21 PUSH1 0x4 MSTORE PUSH1 0x24 PUSH1 0x0 REVERT JUMPDEST PUSH32 0x4E487B7100000000000000000000000000000000000000000000000000000000 PUSH1 0x0 MSTORE PUSH1 0x32 PUSH1 0x4 MSTORE PUSH1 0x24 PUSH1 0x0 REVERT JUMPDEST PUSH1 0x0 DUP1 REVERT JUMPDEST PUSH1 0x0 DUP2 PUSH1 0x60 SHL SWAP1 POP SWAP2 SWAP1 POP JUMP JUMPDEST PUSH32 0x43686F6F736520737461676520616C72656164792066696E6973686564210000 PUSH1 0x0 DUP3 ADD MSTORE POP JUMP JUMPDEST PUSH32 0x596F7520616C7265616479206D61646520612063686F69636521000000000000 PUSH1 0x0 DUP3 ADD MSTORE POP JUMP JUMPDEST PUSH32 0x43686F6F736520737461676520686176656E27742066696E6973686564207965 PUSH1 0x0 DUP3 ADD MSTORE PUSH32 0x7421000000000000000000000000000000000000000000000000000000000000 PUSH1 0x20 DUP3 ADD MSTORE POP JUMP JUMPDEST PUSH32 0x43686F69636520697320646566666572732066726F6D207768617420796F7520 PUSH1 0x0 DUP3 ADD MSTORE PUSH32 0x63686F6F73656421000000000000000000000000000000000000000000000000 PUSH1 0x20 DUP3 ADD MSTORE POP JUMP JUMPDEST PUSH32 0x596F7520616C72656164792072657665616C656420796F75722063686F696365 PUSH1 0x0 DUP3 ADD MSTORE PUSH32 0x2100000000000000000000000000000000000000000000000000000000000000 PUSH1 0x20 DUP3 ADD MSTORE POP JUMP JUMPDEST PUSH32 0x496E636F72726563742063686F696365206E756D626572210000000000000000 PUSH1 0x0 DUP3 ADD MSTORE POP JUMP JUMPDEST PUSH1 0x4 DUP2 LT PUSH2 0x109E JUMPI PUSH2 0x109D PUSH2 0xEB5 JUMP JUMPDEST JUMPDEST POP JUMP JUMPDEST PUSH2 0x10AA DUP2 PUSH2 0xD9A JUMP JUMPDEST DUP2 EQ PUSH2 0x10B5 JUMPI PUSH1 0x0 DUP1 REVERT JUMPDEST POP JUMP JUMPDEST PUSH2 0x10C1 DUP2 PUSH2 0xDAC JUMP JUMPDEST DUP2 EQ PUSH2 0x10CC JUMPI PUSH1 0x0 DUP1 REVERT JUMPDEST POP JUMP JUMPDEST PUSH2 0x10D8 DUP2 PUSH2 0xDE9 JUMP JUMPDEST DUP2 EQ PUSH2 0x10E3 JUMPI PUSH1 0x0 DUP1 REVERT JUMPDEST POP JUMP INVALID LOG2 PUSH5 0x6970667358 0x22 SLT KECCAK256 DELEGATECALL 0xE9 0x4D ORIGIN 0xA8 0xD PUSH17 0x78B537BBC92E78D67E60C83031416976E8 0xAD 0x22 PUSH18 0x6ADE7DB68164736F6C634300080700330000 "
				},
				"gasEstimates": {
					"creation": {
						"codeDepositCost": "876000",
						"executionCost": "909",
						"totalCost": "876909"
					},
					"external": {
						"choices(address)": "2792",
						"makeChoice(bytes32)": "infinite",
						"revealChoices(uint256,bytes32)": "infinite",
						"revealedChoice(address)": "2934"
					},
					"internal": {
						"defineWinner()": "42281",
						"getEnumValueByIndex(uint256)": "infinite"
					}
				},
				"methodIdentifiers": {
					"choices(address)": "410346b3",
					"makeChoice(bytes32)": "fce55812",
					"revealChoices(uint256,bytes32)": "c1d5383c",
					"revealedChoice(address)": "a3b99089"
				}
			},
			"storageLayout": {
				"storage": [
					{
						"astId": 26,
						"contract": "contracts/RockPaperScissors.sol:RockPaperScissors",
						"label": "playerKeys",
						"offset": 0,
						"slot": "0",
						"type": "t_array(t_address)dyn_storage"
					},
					{
						"astId": 28,
						"contract": "contracts/RockPaperScissors.sol:RockPaperScissors",
						"label": "winner",
						"offset": 0,
						"slot": "1",
						"type": "t_address"
					},
					{
						"astId": 30,
						"contract": "contracts/RockPaperScissors.sol:RockPaperScissors",
						"label": "isChooseStage",
						"offset": 20,
						"slot": "1",
						"type": "t_bool"
					},
					{
						"astId": 34,
						"contract": "contracts/RockPaperScissors.sol:RockPaperScissors",
						"label": "choices",
						"offset": 0,
						"slot": "2",
						"type": "t_mapping(t_address,t_bytes32)"
					},
					{
						"astId": 36,
						"contract": "contracts/RockPaperScissors.sol:RockPaperScissors",
						"label": "peopleRevealed",
						"offset": 0,
						"slot": "3",
						"type": "t_uint256"
					},
					{
						"astId": 41,
						"contract": "contracts/RockPaperScissors.sol:RockPaperScissors",
						"label": "revealedChoice",
						"offset": 0,
						"slot": "4",
						"type": "t_mapping(t_address,t_enum(Choice)6)"
					}
				],
				"types": {
					"t_address": {
						"encoding": "inplace",
						"label": "address",
						"numberOfBytes": "20"
					},
					"t_array(t_address)dyn_storage": {
						"base": "t_address",
						"encoding": "dynamic_array",
						"label": "address[]",
						"numberOfBytes": "32"
					},
					"t_bool": {
						"encoding": "inplace",
						"label": "bool",
						"numberOfBytes": "1"
					},
					"t_bytes32": {
						"encoding": "inplace",
						"label": "bytes32",
						"numberOfBytes": "32"
					},
					"t_enum(Choice)6": {
						"encoding": "inplace",
						"label": "enum RockPaperScissors.Choice",
						"numberOfBytes": "1"
					},
					"t_mapping(t_address,t_bytes32)": {
						"encoding": "mapping",
						"key": "t_address",
						"label": "mapping(address => bytes32)",
						"numberOfBytes": "32",
						"value": "t_bytes32"
					},
					"t_mapping(t_address,t_enum(Choice)6)": {
						"encoding": "mapping",
						"key": "t_address",
						"label": "mapping(address => enum RockPaperScissors.Choice)",
						"numberOfBytes": "32",
						"value": "t_enum(Choice)6"
					},
					"t_uint256": {
						"encoding": "inplace",
						"label": "uint256",
						"numberOfBytes": "32"
					}
				}
			},
			"userdoc": {
				"kind": "user",
				"methods": {},
				"version": 1
			}
		}
	}
}